{
  "contractName": "Curator",
  "abi": [
    {
      "anonymous": false,
      "inputs": [
        {
          "indexed": true,
          "internalType": "address",
          "name": "previousOwner",
          "type": "address"
        },
        {
          "indexed": true,
          "internalType": "address",
          "name": "newOwner",
          "type": "address"
        }
      ],
      "name": "OwnershipTransferred",
      "type": "event"
    },
    {
      "inputs": [],
      "name": "POOL_CODE_LENGTH",
      "outputs": [
        {
          "internalType": "string",
          "name": "",
          "type": "string"
        }
      ],
      "stateMutability": "view",
      "type": "function",
      "constant": true
    },
    {
      "inputs": [],
      "name": "hasRootRouter",
      "outputs": [
        {
          "internalType": "bool",
          "name": "",
          "type": "bool"
        }
      ],
      "stateMutability": "view",
      "type": "function",
      "constant": true
    },
    {
      "inputs": [],
      "name": "owner",
      "outputs": [
        {
          "internalType": "address",
          "name": "",
          "type": "address"
        }
      ],
      "stateMutability": "view",
      "type": "function",
      "constant": true
    },
    {
      "inputs": [],
      "name": "renounceOwnership",
      "outputs": [],
      "stateMutability": "nonpayable",
      "type": "function"
    },
    {
      "inputs": [],
      "name": "rootRouter",
      "outputs": [
        {
          "internalType": "string",
          "name": "chainId",
          "type": "string"
        },
        {
          "internalType": "string",
          "name": "adr",
          "type": "string"
        }
      ],
      "stateMutability": "view",
      "type": "function",
      "constant": true
    },
    {
      "inputs": [
        {
          "internalType": "address",
          "name": "newOwner",
          "type": "address"
        }
      ],
      "name": "transferOwnership",
      "outputs": [],
      "stateMutability": "nonpayable",
      "type": "function"
    },
    {
      "inputs": [],
      "name": "ttl",
      "outputs": [
        {
          "internalType": "string",
          "name": "",
          "type": "string"
        }
      ],
      "stateMutability": "view",
      "type": "function",
      "constant": true
    },
    {
      "inputs": [
        {
          "internalType": "uint256",
          "name": "newTtl",
          "type": "uint256"
        }
      ],
      "name": "setTtl",
      "outputs": [],
      "stateMutability": "nonpayable",
      "type": "function"
    },
    {
      "inputs": [
        {
          "internalType": "uint256",
          "name": "newChainId",
          "type": "uint256"
        },
        {
          "internalType": "string",
          "name": "newAddress",
          "type": "string"
        }
      ],
      "name": "setRootRouter",
      "outputs": [],
      "stateMutability": "nonpayable",
      "type": "function"
    },
    {
      "inputs": [],
      "name": "cleanRootRouter",
      "outputs": [],
      "stateMutability": "nonpayable",
      "type": "function"
    },
    {
      "inputs": [],
      "name": "getRootRouter",
      "outputs": [
        {
          "internalType": "string[5]",
          "name": "",
          "type": "string[5]"
        }
      ],
      "stateMutability": "view",
      "type": "function",
      "constant": true
    }
  ],
  "bytecode": "0x60c0604052600660809081526503836343030360d41b60a0526001906200002790826200013c565b503480156200003557600080fd5b50620000413362000047565b62000208565b600080546001600160a01b038381166001600160a01b0319831681178455604051919092169283917f8be0079c531659141344cd1fd0a4f28419497f9722a3daafe3b4186f6b6457e09190a35050565b634e487b7160e01b600052604160045260246000fd5b600181811c90821680620000c257607f821691505b602082108103620000e357634e487b7160e01b600052602260045260246000fd5b50919050565b601f8211156200013757600081815260208120601f850160051c81016020861015620001125750805b601f850160051c820191505b8181101562000133578281556001016200011e565b5050505b505050565b81516001600160401b0381111562000158576200015862000097565b6200017081620001698454620000ad565b84620000e9565b602080601f831160018114620001a857600084156200018f5750858301515b600019600386901b1c1916600185901b17855562000133565b600085815260208120601f198616915b82811015620001d957888601518255948401946001909101908401620001b8565b5085821015620001f85787850151600019600388901b60f8161c191681555b5050505050600190811b01905550565b610cbf80620002186000396000f3fe608060405234801561001057600080fd5b50600436106100a95760003560e01c8063715018a611610071578063715018a614610117578063781be92a1461011f5780638da5cb5b14610132578063b2f5adb61461014d578063ed42a15e1461016d578063f2fde38b1461018357600080fd5b806303d3efa4146100ae5780633d66b68f146100b85780634e8b1dd5146100da57806355d87bd2146100ef57806359837ab014610102575b600080fd5b6100b6610196565b005b6004546100c59060ff1681565b60405190151581526020015b60405180910390f35b6100e26101c8565b6040516100d19190610998565b6100b66100fd3660046109b2565b610256565b61010a610278565b6040516100d191906109cb565b6100b66104b2565b6100b661012d366004610a2e565b6104c6565b6000546040516001600160a01b0390911681526020016100d1565b6100e2604051806040016040528060018152602001603360f81b81525081565b610175610524565b6040516100d1929190610ae9565b6100b6610191366004610b17565b610644565b61019e6106c2565b600260006101ac82826108d8565b6101ba6001830160006108d8565b50506004805460ff19169055565b600180546101d590610b40565b80601f016020809104026020016040519081016040528092919081815260200182805461020190610b40565b801561024e5780601f106102235761010080835404028352916020019161024e565b820191906000526020600020905b81548152906001019060200180831161023157829003601f168201915b505050505081565b61025e6106c2565b6102678161071c565b6001906102749082610bc9565b5050565b610280610912565b6040805160a08101909152600454819060ff166102b8576040518060400160405280600381526020016203430360ec1b8152506102d5565b6040518060400160405280600381526020016203230360ec1b8152505b8152602001604051806040016040528060018152602001603360f81b81525081526020016002600001805461030990610b40565b80601f016020809104026020016040519081016040528092919081815260200182805461033590610b40565b80156103825780601f1061035757610100808354040283529160200191610382565b820191906000526020600020905b81548152906001019060200180831161036557829003601f168201915b505050505081526020016002600101805461039c90610b40565b80601f01602080910402602001604051908101604052809291908181526020018280546103c890610b40565b80156104155780601f106103ea57610100808354040283529160200191610415565b820191906000526020600020905b8154815290600101906020018083116103f857829003601f168201915b505050505081526020016001805461042c90610b40565b80601f016020809104026020016040519081016040528092919081815260200182805461045890610b40565b80156104a55780601f1061047a576101008083540402835291602001916104a5565b820191906000526020600020905b81548152906001019060200180831161048857829003601f168201915b5050505050815250905090565b6104ba6106c2565b6104c460006107af565b565b6104ce6106c2565b60405180604001604052806104e28461071c565b8152602001829052805160029081906104fb9082610bc9565b50602082015160018201906105109082610bc9565b50506004805460ff19166001179055505050565b60028054819061053390610b40565b80601f016020809104026020016040519081016040528092919081815260200182805461055f90610b40565b80156105ac5780601f10610581576101008083540402835291602001916105ac565b820191906000526020600020905b81548152906001019060200180831161058f57829003601f168201915b5050505050908060010180546105c190610b40565b80601f01602080910402602001604051908101604052809291908181526020018280546105ed90610b40565b801561063a5780601f1061060f5761010080835404028352916020019161063a565b820191906000526020600020905b81548152906001019060200180831161061d57829003601f168201915b5050505050905082565b61064c6106c2565b6001600160a01b0381166106b65760405162461bcd60e51b815260206004820152602660248201527f4f776e61626c653a206e6577206f776e657220697320746865207a65726f206160448201526564647265737360d01b60648201526084015b60405180910390fd5b6106bf816107af565b50565b6000546001600160a01b031633146104c45760405162461bcd60e51b815260206004820181905260248201527f4f776e61626c653a2063616c6c6572206973206e6f7420746865206f776e657260448201526064016106ad565b60606000610729836107ff565b600101905060008167ffffffffffffffff81111561074957610749610a18565b6040519080825280601f01601f191660200182016040528015610773576020820181803683370190505b5090508181016020015b600019016f181899199a1a9b1b9c1cb0b131b232b360811b600a86061a8153600a850494508461077d57509392505050565b600080546001600160a01b038381166001600160a01b0319831681178455604051919092169283917f8be0079c531659141344cd1fd0a4f28419497f9722a3daafe3b4186f6b6457e09190a35050565b60008072184f03e93ff9f4daa797ed6e38ed64bf6a1f0160401b831061083e5772184f03e93ff9f4daa797ed6e38ed64bf6a1f0160401b830492506040015b6d04ee2d6d415b85acef8100000000831061086a576d04ee2d6d415b85acef8100000000830492506020015b662386f26fc10000831061088857662386f26fc10000830492506010015b6305f5e10083106108a0576305f5e100830492506008015b61271083106108b457612710830492506004015b606483106108c6576064830492506002015b600a83106108d2576001015b92915050565b5080546108e490610b40565b6000825580601f106108f4575050565b601f0160209004906000526020600020908101906106bf9190610939565b6040518060a001604052806005905b60608152602001906001900390816109215790505090565b5b8082111561094e576000815560010161093a565b5090565b6000815180845260005b818110156109785760208185018101518683018201520161095c565b506000602082860101526020601f19601f83011685010191505092915050565b6020815260006109ab6020830184610952565b9392505050565b6000602082840312156109c457600080fd5b5035919050565b602080825260009060c0830183820185845b6005811015610a0c57601f198785030183526109fa848351610952565b935091840191908401906001016109dd565b50919695505050505050565b634e487b7160e01b600052604160045260246000fd5b60008060408385031215610a4157600080fd5b82359150602083013567ffffffffffffffff80821115610a6057600080fd5b818501915085601f830112610a7457600080fd5b813581811115610a8657610a86610a18565b604051601f8201601f19908116603f01168101908382118183101715610aae57610aae610a18565b81604052828152886020848701011115610ac757600080fd5b8260208601602083013760006020848301015280955050505050509250929050565b604081526000610afc6040830185610952565b8281036020840152610b0e8185610952565b95945050505050565b600060208284031215610b2957600080fd5b81356001600160a01b03811681146109ab57600080fd5b600181811c90821680610b5457607f821691505b602082108103610b7457634e487b7160e01b600052602260045260246000fd5b50919050565b601f821115610bc457600081815260208120601f850160051c81016020861015610ba15750805b601f850160051c820191505b81811015610bc057828155600101610bad565b5050505b505050565b815167ffffffffffffffff811115610be357610be3610a18565b610bf781610bf18454610b40565b84610b7a565b602080601f831160018114610c2c5760008415610c145750858301515b600019600386901b1c1916600185901b178555610bc0565b600085815260208120601f198616915b82811015610c5b57888601518255948401946001909101908401610c3c565b5085821015610c795787850151600019600388901b60f8161c191681555b5050505050600190811b0190555056fea2646970667358221220e1bf975b1e0414ac609a7f6eb011699d28ced1ae27969b70d6cc86b950b75d8964736f6c63430008110033",
  "immutableReferences": {},
  "source": "// SPDX-License-Identifier: MIT\r\npragma solidity 0.8.17;\r\n\r\n\r\nimport \"@openzeppelin/contracts/access/Ownable.sol\";\r\nimport \"@openzeppelin/contracts/utils/Strings.sol\";\r\n\r\n\r\ncontract Curator is Ownable {\r\n    // ----- CUSTOM TYPES ----------------------------------------------------------------------------------------------\r\n\r\n    struct RootRouter {\r\n        string chainId;\r\n        string adr;\r\n    }\r\n\r\n\r\n\r\n    // ----- SETTINGS --------------------------------------------------------------------------------------------------\r\n\r\n    string constant public POOL_CODE_LENGTH = \"3\";\r\n\r\n    string public ttl = \"864000\"; // 10 days\r\n\r\n\r\n\r\n    // ----- DATA ------------------------------------------------------------------------------------------------------\r\n\r\n    RootRouter public rootRouter;\r\n    bool public hasRootRouter;\r\n\r\n\r\n\r\n    // ----- SMART CONTRACT MANAGEMENT ---------------------------------------------------------------------------------\r\n\r\n    function setTtl(uint256 newTtl) external onlyOwner {\r\n        ttl = Strings.toString(newTtl);\r\n    }\r\n\r\n    function setRootRouter(uint256 newChainId, string memory newAddress) external onlyOwner {\r\n        rootRouter = RootRouter(\r\n            Strings.toString(newChainId),\r\n                newAddress\r\n        );\r\n        hasRootRouter = true;\r\n    }\r\n\r\n    function cleanRootRouter() external onlyOwner {\r\n        delete rootRouter;\r\n        hasRootRouter = false;\r\n    }\r\n\r\n\r\n\r\n    // ----- ROUTING ---------------------------------------------------------------------------------------------------\r\n\r\n    function getRootRouter() public view returns(string[5] memory) {\r\n        return [\r\n            (hasRootRouter ? \"200\" : \"400\"), // Response code\r\n            POOL_CODE_LENGTH,\r\n            rootRouter.chainId,\r\n            rootRouter.adr,\r\n            ttl\r\n        ];\r\n    }\r\n}\r\n",
  "sourcePath": "W:\\QUIC-PRO Inc\\mvts-smart-contract-curator\\contracts\\Curator.sol",
  "compiler": {
    "name": "solc",
    "version": "0.8.17+commit.8df45f5f.Emscripten.clang"
  },
  "schemaVersion": "3.4.10",
  "updatedAt": "2022-11-15T14:56:52.754Z",
  "networkType": "ethereum",
  "devdoc": {
    "kind": "dev",
    "methods": {
      "owner()": {
        "details": "Returns the address of the current owner."
      },
      "renounceOwnership()": {
        "details": "Leaves the contract without owner. It will not be possible to call `onlyOwner` functions anymore. Can only be called by the current owner. NOTE: Renouncing ownership will leave the contract without an owner, thereby removing any functionality that is only available to the owner."
      },
      "transferOwnership(address)": {
        "details": "Transfers ownership of the contract to a new account (`newOwner`). Can only be called by the current owner."
      }
    },
    "version": 1
  },
  "userdoc": {
    "kind": "user",
    "methods": {},
    "version": 1
  }
}