{
  "contractName": "Curator",
  "abi": [
    {
      "anonymous": false,
      "inputs": [
        {
          "indexed": true,
          "internalType": "address",
          "name": "previousOwner",
          "type": "address"
        },
        {
          "indexed": true,
          "internalType": "address",
          "name": "newOwner",
          "type": "address"
        }
      ],
      "name": "OwnershipTransferred",
      "type": "event"
    },
    {
      "inputs": [],
      "name": "owner",
      "outputs": [
        {
          "internalType": "address",
          "name": "",
          "type": "address"
        }
      ],
      "stateMutability": "view",
      "type": "function",
      "constant": true
    },
    {
      "inputs": [],
      "name": "renounceOwnership",
      "outputs": [],
      "stateMutability": "nonpayable",
      "type": "function"
    },
    {
      "inputs": [],
      "name": "rootRouter",
      "outputs": [
        {
          "internalType": "uint128",
          "name": "ttl",
          "type": "uint128"
        },
        {
          "internalType": "uint128",
          "name": "chainId",
          "type": "uint128"
        },
        {
          "internalType": "string",
          "name": "adr",
          "type": "string"
        }
      ],
      "stateMutability": "view",
      "type": "function",
      "constant": true
    },
    {
      "inputs": [
        {
          "internalType": "address",
          "name": "newOwner",
          "type": "address"
        }
      ],
      "name": "transferOwnership",
      "outputs": [],
      "stateMutability": "nonpayable",
      "type": "function"
    },
    {
      "inputs": [
        {
          "internalType": "uint128",
          "name": "chainId",
          "type": "uint128"
        },
        {
          "internalType": "string",
          "name": "adr",
          "type": "string"
        },
        {
          "internalType": "uint128",
          "name": "ttl",
          "type": "uint128"
        }
      ],
      "name": "setRootRouter",
      "outputs": [],
      "stateMutability": "nonpayable",
      "type": "function"
    },
    {
      "inputs": [],
      "name": "cleanRootRouter",
      "outputs": [],
      "stateMutability": "nonpayable",
      "type": "function"
    }
  ],
  "bytecode": "0x608060405234801561001057600080fd5b5061001a3361001f565b61006f565b600080546001600160a01b038381166001600160a01b0319831681178455604051919092169283917f8be0079c531659141344cd1fd0a4f28419497f9722a3daafe3b4186f6b6457e09190a35050565b6106228061007e6000396000f3fe608060405234801561001057600080fd5b50600436106100625760003560e01c806303d3efa41461006757806308582dcc14610071578063715018a6146100845780638da5cb5b1461008c578063ed42a15e146100ac578063f2fde38b146100c3575b600080fd5b61006f6100d6565b005b61006f61007f366004610457565b6100f5565b61006f610150565b6000546040516001600160a01b0390911681526020015b60405180910390f35b6100b4610164565b6040516100a393929190610529565b61006f6100d1366004610427565b610210565b6100de61028e565b60006001818155906100f1600282610338565b5050565b6100fd61028e565b604080516060810182526001600160801b038084168083529086166020808401829052938301869052600160801b021760019081558451919290916101489160029190870190610372565b505050505050565b61015861028e565b61016260006102e8565b565b60018054600280546001600160801b0380841694600160801b9094041692919061018d9061059b565b80601f01602080910402602001604051908101604052809291908181526020018280546101b99061059b565b80156102065780601f106101db57610100808354040283529160200191610206565b820191906000526020600020905b8154815290600101906020018083116101e957829003601f168201915b5050505050905083565b61021861028e565b6001600160a01b0381166102825760405162461bcd60e51b815260206004820152602660248201527f4f776e61626c653a206e6577206f776e657220697320746865207a65726f206160448201526564647265737360d01b60648201526084015b60405180910390fd5b61028b816102e8565b50565b6000546001600160a01b031633146101625760405162461bcd60e51b815260206004820181905260248201527f4f776e61626c653a2063616c6c6572206973206e6f7420746865206f776e65726044820152606401610279565b600080546001600160a01b038381166001600160a01b0319831681178455604051919092169283917f8be0079c531659141344cd1fd0a4f28419497f9722a3daafe3b4186f6b6457e09190a35050565b5080546103449061059b565b6000825580601f10610354575050565b601f01602090049060005260206000209081019061028b91906103f6565b82805461037e9061059b565b90600052602060002090601f0160209004810192826103a057600085556103e6565b82601f106103b957805160ff19168380011785556103e6565b828001600101855582156103e6579182015b828111156103e65782518255916020019190600101906103cb565b506103f29291506103f6565b5090565b5b808211156103f257600081556001016103f7565b80356001600160801b038116811461042257600080fd5b919050565b60006020828403121561043957600080fd5b81356001600160a01b038116811461045057600080fd5b9392505050565b60008060006060848603121561046c57600080fd5b6104758461040b565b9250602084013567ffffffffffffffff8082111561049257600080fd5b818601915086601f8301126104a657600080fd5b8135818111156104b8576104b86105d6565b604051601f8201601f19908116603f011681019083821181831017156104e0576104e06105d6565b816040528281528960208487010111156104f957600080fd5b8260208601602083013760006020848301015280965050505050506105206040850161040b565b90509250925092565b60006001600160801b038086168352602081861681850152606060408501528451915081606085015260005b8281101561057157858101820151858201608001528101610555565b82811115610583576000608084870101525b5050601f01601f191691909101608001949350505050565b600181811c908216806105af57607f821691505b602082108114156105d057634e487b7160e01b600052602260045260246000fd5b50919050565b634e487b7160e01b600052604160045260246000fdfea26469706673582212205ce9201fb908ca0a280a54f2f7140e6690c21fb54f84811d40a337ad2cd276d164736f6c63430008070033",
  "immutableReferences": {},
  "source": "// SPDX-License-Identifier: MIT\r\n\r\n\r\npragma solidity 0.8.7;\r\n\r\n\r\nimport \"@openzeppelin/contracts/access/Ownable.sol\";\r\n\r\n\r\ncontract Curator is Ownable {\r\n    // ----- CUSTOM TYPES ------------------------------------------------------\r\n\r\n    struct Router {\r\n        uint128 ttl;\r\n        uint128 chainId;\r\n        string adr;\r\n    }\r\n\r\n\r\n\r\n    // ----- DATA --------------------------------------------------------------\r\n\r\n    Router public rootRouter;\r\n\r\n\r\n\r\n    // ----- SMART CONTRACT MANAGEMENT ------------------------------------------\r\n\r\n    function setRootRouter(uint128 chainId, string memory adr, uint128 ttl) external onlyOwner {\r\n        rootRouter = Router(ttl, chainId, adr);\r\n    }\r\n\r\n    function cleanRootRouter() external onlyOwner {\r\n        delete rootRouter;\r\n    }\r\n}\r\n",
  "sourcePath": "W:\\QUIC-PRO Inc\\mvts-smart-contract-curator\\contracts\\Curator.sol",
  "compiler": {
    "name": "solc",
    "version": "0.8.7+commit.e28d00a7.Emscripten.clang"
  },
  "schemaVersion": "3.4.10",
  "updatedAt": "2022-11-11T16:31:14.323Z",
  "networkType": "ethereum",
  "devdoc": {
    "kind": "dev",
    "methods": {
      "owner()": {
        "details": "Returns the address of the current owner."
      },
      "renounceOwnership()": {
        "details": "Leaves the contract without owner. It will not be possible to call `onlyOwner` functions anymore. Can only be called by the current owner. NOTE: Renouncing ownership will leave the contract without an owner, thereby removing any functionality that is only available to the owner."
      },
      "transferOwnership(address)": {
        "details": "Transfers ownership of the contract to a new account (`newOwner`). Can only be called by the current owner."
      }
    },
    "version": 1
  },
  "userdoc": {
    "kind": "user",
    "methods": {},
    "version": 1
  }
}