{
  "contractName": "Curator",
  "abi": [
    {
      "anonymous": false,
      "inputs": [
        {
          "indexed": true,
          "internalType": "address",
          "name": "previousOwner",
          "type": "address"
        },
        {
          "indexed": true,
          "internalType": "address",
          "name": "newOwner",
          "type": "address"
        }
      ],
      "name": "OwnershipTransferred",
      "type": "event"
    },
    {
      "inputs": [],
      "name": "owner",
      "outputs": [
        {
          "internalType": "address",
          "name": "",
          "type": "address"
        }
      ],
      "stateMutability": "view",
      "type": "function",
      "constant": true
    },
    {
      "inputs": [],
      "name": "renounceOwnership",
      "outputs": [],
      "stateMutability": "nonpayable",
      "type": "function"
    },
    {
      "inputs": [],
      "name": "rootRouter",
      "outputs": [
        {
          "internalType": "uint128",
          "name": "ttl",
          "type": "uint128"
        },
        {
          "internalType": "uint128",
          "name": "chainId",
          "type": "uint128"
        },
        {
          "internalType": "string",
          "name": "adr",
          "type": "string"
        }
      ],
      "stateMutability": "view",
      "type": "function",
      "constant": true
    },
    {
      "inputs": [
        {
          "internalType": "address",
          "name": "newOwner",
          "type": "address"
        }
      ],
      "name": "transferOwnership",
      "outputs": [],
      "stateMutability": "nonpayable",
      "type": "function"
    },
    {
      "inputs": [
        {
          "internalType": "uint128",
          "name": "ttl",
          "type": "uint128"
        },
        {
          "internalType": "uint128",
          "name": "chainId",
          "type": "uint128"
        },
        {
          "internalType": "string",
          "name": "adr",
          "type": "string"
        }
      ],
      "name": "setRootRouter",
      "outputs": [],
      "stateMutability": "nonpayable",
      "type": "function"
    },
    {
      "inputs": [],
      "name": "cleanRootRouter",
      "outputs": [],
      "stateMutability": "nonpayable",
      "type": "function"
    }
  ],
  "bytecode": "0x608060405234801561001057600080fd5b5061001a3361001f565b61006f565b600080546001600160a01b038381166001600160a01b0319831681178455604051919092169283917f8be0079c531659141344cd1fd0a4f28419497f9722a3daafe3b4186f6b6457e09190a35050565b61062f8061007e6000396000f3fe608060405234801561001057600080fd5b50600436106100625760003560e01c806303d3efa41461006757806329f403bd14610071578063715018a6146100845780638da5cb5b1461008c578063ed42a15e146100ac578063f2fde38b146100c3575b600080fd5b61006f6100d6565b005b61006f61007f366004610464565b61013c565b61006f610197565b6000546040516001600160a01b0390911681526020015b60405180910390f35b6100b46101ab565b6040516100a393929190610536565b61006f6100d1366004610434565b610257565b6100de6102d5565b60408051606081018252600080825260208083018281528451918201808652928252938301819052825193516001600160801b03908116600160801b02941693909317600190815592519192916101379160029161037f565b505050565b6101446102d5565b604080516060810182526001600160801b038086168083529085166020808401829052938301859052600160801b0217600190815583519192909161018f916002919086019061037f565b505050505050565b61019f6102d5565b6101a9600061032f565b565b60018054600280546001600160801b0380841694600160801b909404169291906101d4906105a8565b80601f0160208091040260200160405190810160405280929190818152602001828054610200906105a8565b801561024d5780601f106102225761010080835404028352916020019161024d565b820191906000526020600020905b81548152906001019060200180831161023057829003601f168201915b5050505050905083565b61025f6102d5565b6001600160a01b0381166102c95760405162461bcd60e51b815260206004820152602660248201527f4f776e61626c653a206e6577206f776e657220697320746865207a65726f206160448201526564647265737360d01b60648201526084015b60405180910390fd5b6102d28161032f565b50565b6000546001600160a01b031633146101a95760405162461bcd60e51b815260206004820181905260248201527f4f776e61626c653a2063616c6c6572206973206e6f7420746865206f776e657260448201526064016102c0565b600080546001600160a01b038381166001600160a01b0319831681178455604051919092169283917f8be0079c531659141344cd1fd0a4f28419497f9722a3daafe3b4186f6b6457e09190a35050565b82805461038b906105a8565b90600052602060002090601f0160209004810192826103ad57600085556103f3565b82601f106103c657805160ff19168380011785556103f3565b828001600101855582156103f3579182015b828111156103f35782518255916020019190600101906103d8565b506103ff929150610403565b5090565b5b808211156103ff5760008155600101610404565b80356001600160801b038116811461042f57600080fd5b919050565b60006020828403121561044657600080fd5b81356001600160a01b038116811461045d57600080fd5b9392505050565b60008060006060848603121561047957600080fd5b61048284610418565b925061049060208501610418565b9150604084013567ffffffffffffffff808211156104ad57600080fd5b818601915086601f8301126104c157600080fd5b8135818111156104d3576104d36105e3565b604051601f8201601f19908116603f011681019083821181831017156104fb576104fb6105e3565b8160405282815289602084870101111561051457600080fd5b8260208601602083013760006020848301015280955050505050509250925092565b60006001600160801b038086168352602081861681850152606060408501528451915081606085015260005b8281101561057e57858101820151858201608001528101610562565b82811115610590576000608084870101525b5050601f01601f191691909101608001949350505050565b600181811c908216806105bc57607f821691505b602082108114156105dd57634e487b7160e01b600052602260045260246000fd5b50919050565b634e487b7160e01b600052604160045260246000fdfea2646970667358221220dbb1744652f13e1c8574f1293a75408d0a8dc02d56e178d269d35e87fcb8305d64736f6c63430008070033",
  "immutableReferences": {},
  "source": "// SPDX-License-Identifier: MIT\n\n\npragma solidity 0.8.7;\n\n\nimport \"@openzeppelin/contracts/access/Ownable.sol\";\n\n\ncontract Curator is Ownable {\n    // ----- CUSTOM TYPES ------------------------------------------------------\n    \n    struct Router {\n        uint128 ttl;\n        uint128 chainId;\n        string adr;\n    }\n    \n    \n    \n    // ----- DATA --------------------------------------------------------------\n    \n    Router public rootRouter;\n    \n    \n    \n    // ----- SMART CONTRACT MANAGEMENT ------------------------------------------\n\n    function setRootRouter(uint128 ttl, uint128 chainId, string memory adr) external onlyOwner {\n        rootRouter = Router(ttl, chainId, adr);\n    }\n    \n    function cleanRootRouter() external onlyOwner {\n        rootRouter = Router(0, 0, \"\");\n    }\n}\n",
  "sourcePath": "/Users/kosrotoff/Desktop/mvts-smart-contract-curator/contracts/Curator.sol",
  "compiler": {
    "name": "solc",
    "version": "0.8.7+commit.e28d00a7.Emscripten.clang"
  },
  "schemaVersion": "3.4.10",
  "updatedAt": "2022-11-05T16:38:12.513Z",
  "networkType": "ethereum",
  "devdoc": {
    "kind": "dev",
    "methods": {
      "owner()": {
        "details": "Returns the address of the current owner."
      },
      "renounceOwnership()": {
        "details": "Leaves the contract without owner. It will not be possible to call `onlyOwner` functions anymore. Can only be called by the current owner. NOTE: Renouncing ownership will leave the contract without an owner, thereby removing any functionality that is only available to the owner."
      },
      "transferOwnership(address)": {
        "details": "Transfers ownership of the contract to a new account (`newOwner`). Can only be called by the current owner."
      }
    },
    "version": 1
  },
  "userdoc": {
    "kind": "user",
    "methods": {},
    "version": 1
  }
}