{
  "contractName": "Guardian",
  "abi": [
    {
      "anonymous": false,
      "inputs": [
        {
          "indexed": true,
          "internalType": "address",
          "name": "previousOwner",
          "type": "address"
        },
        {
          "indexed": true,
          "internalType": "address",
          "name": "newOwner",
          "type": "address"
        }
      ],
      "name": "OwnershipTransferred",
      "type": "event"
    },
    {
      "inputs": [],
      "name": "owner",
      "outputs": [
        {
          "internalType": "address",
          "name": "",
          "type": "address"
        }
      ],
      "stateMutability": "view",
      "type": "function",
      "constant": true
    },
    {
      "inputs": [],
      "name": "renounceOwnership",
      "outputs": [],
      "stateMutability": "nonpayable",
      "type": "function"
    },
    {
      "inputs": [],
      "name": "rootRouter",
      "outputs": [
        {
          "internalType": "uint128",
          "name": "chainId",
          "type": "uint128"
        },
        {
          "internalType": "string",
          "name": "adr",
          "type": "string"
        },
        {
          "internalType": "uint128",
          "name": "poolCodeLength",
          "type": "uint128"
        }
      ],
      "stateMutability": "view",
      "type": "function",
      "constant": true
    },
    {
      "inputs": [
        {
          "internalType": "address",
          "name": "newOwner",
          "type": "address"
        }
      ],
      "name": "transferOwnership",
      "outputs": [],
      "stateMutability": "nonpayable",
      "type": "function"
    },
    {
      "inputs": [
        {
          "internalType": "uint128",
          "name": "chainId",
          "type": "uint128"
        },
        {
          "internalType": "string",
          "name": "adr",
          "type": "string"
        },
        {
          "internalType": "uint128",
          "name": "poolCodeLength",
          "type": "uint128"
        }
      ],
      "name": "setRootRouter",
      "outputs": [],
      "stateMutability": "nonpayable",
      "type": "function"
    },
    {
      "inputs": [],
      "name": "removeRootRouter",
      "outputs": [],
      "stateMutability": "nonpayable",
      "type": "function"
    }
  ],
  "bytecode": "0x608060405234801561001057600080fd5b5061001a3361001f565b61006f565b600080546001600160a01b038381166001600160a01b0319831681178455604051919092169283917f8be0079c531659141344cd1fd0a4f28419497f9722a3daafe3b4186f6b6457e09190a35050565b6106bb8061007e6000396000f3fe608060405234801561001057600080fd5b50600436106100625760003560e01c806308582dcc14610067578063715018a61461007c5780638da5cb5b14610084578063ba891a75146100a4578063ed42a15e146100ac578063f2fde38b146100c3575b600080fd5b61007a6100753660046103d0565b6100d6565b005b61007a61012a565b6000546040516001600160a01b0390911681526020015b60405180910390f35b61007a61013e565b6100b46101c6565b60405161009b939291906104a2565b61007a6100d136600461050c565b610276565b6100de6102f4565b600180546001600160801b0319166001600160801b038516179055600261010583826105c5565b50600380546001600160801b0319166001600160801b03929092169190911790555050565b6101326102f4565b61013c600061034e565b565b6101466102f4565b6040805160608101825260008082528251602080820185528282528301819052928201528051600180546001600160801b0319166001600160801b03909216919091178155909160029061019a90826105c5565b5060409190910151600290910180546001600160801b0319166001600160801b03909216919091179055565b60018054600280546001600160801b0390921692916101e49061053c565b80601f01602080910402602001604051908101604052809291908181526020018280546102109061053c565b801561025d5780601f106102325761010080835404028352916020019161025d565b820191906000526020600020905b81548152906001019060200180831161024057829003601f168201915b505050600290930154919250506001600160801b031683565b61027e6102f4565b6001600160a01b0381166102e85760405162461bcd60e51b815260206004820152602660248201527f4f776e61626c653a206e6577206f776e657220697320746865207a65726f206160448201526564647265737360d01b60648201526084015b60405180910390fd5b6102f18161034e565b50565b6000546001600160a01b0316331461013c5760405162461bcd60e51b815260206004820181905260248201527f4f776e61626c653a2063616c6c6572206973206e6f7420746865206f776e657260448201526064016102df565b600080546001600160a01b038381166001600160a01b0319831681178455604051919092169283917f8be0079c531659141344cd1fd0a4f28419497f9722a3daafe3b4186f6b6457e09190a35050565b80356001600160801b03811681146103b557600080fd5b919050565b634e487b7160e01b600052604160045260246000fd5b6000806000606084860312156103e557600080fd5b6103ee8461039e565b9250602084013567ffffffffffffffff8082111561040b57600080fd5b818601915086601f83011261041f57600080fd5b813581811115610431576104316103ba565b604051601f8201601f19908116603f01168101908382118183101715610459576104596103ba565b8160405282815289602084870101111561047257600080fd5b8260208601602083013760006020848301015280965050505050506104996040850161039e565b90509250925092565b60006001600160801b0380861683526020606081850152855180606086015260005b818110156104e0578781018301518682016080015282016104c4565b506000608082870101526080601f19601f83011686010193505050808416604084015250949350505050565b60006020828403121561051e57600080fd5b81356001600160a01b038116811461053557600080fd5b9392505050565b600181811c9082168061055057607f821691505b60208210810361057057634e487b7160e01b600052602260045260246000fd5b50919050565b601f8211156105c057600081815260208120601f850160051c8101602086101561059d5750805b601f850160051c820191505b818110156105bc578281556001016105a9565b5050505b505050565b815167ffffffffffffffff8111156105df576105df6103ba565b6105f3816105ed845461053c565b84610576565b602080601f83116001811461062857600084156106105750858301515b600019600386901b1c1916600185901b1785556105bc565b600085815260208120601f198616915b8281101561065757888601518255948401946001909101908401610638565b50858210156106755787850151600019600388901b60f8161c191681555b5050505050600190811b0190555056fea26469706673582212204492dea8af9487b6723bcaaa6d62866b72fd542453a6ac92fb3703b597e826e064736f6c63430008110033",
  "immutableReferences": {},
  "source": "// SPDX-License-Identifier: MIT\n\n\npragma solidity ^0.8.7;\n\n\nimport \"@openzeppelin/contracts/access/Ownable.sol\";\n\n\ncontract Guardian is Ownable {\n    // ----- CUSTOM TYPES ------------------------------------------------------\n    \n    struct RootRouter {\n        uint128 chainId;\n        string adr;\n        uint128 poolCodeLength;\n    }\n    \n    \n    \n    // ----- DATA --------------------------------------------------------------\n    \n    RootRouter public rootRouter;\n    \n    \n    \n    // ----- SMART CONTRACT MANAGEMENT ------------------------------------------\n\n    function setRootRouter(uint128 chainId, string memory adr, uint128 poolCodeLength) external onlyOwner {\n        rootRouter.chainId = chainId;\n        rootRouter.adr = adr;\n        rootRouter.poolCodeLength = poolCodeLength;\n    }\n    \n    function removeRootRouter() external onlyOwner {\n        rootRouter = RootRouter(0, \"\", 0);\n    }\n}\n",
  "sourcePath": "/Users/kosrotoff/Desktop/mvts-smart-contract/contracts/Guardian.sol",
  "compiler": {
    "name": "solc",
    "version": "0.8.17+commit.8df45f5f.Emscripten.clang"
  },
  "schemaVersion": "3.4.10",
  "updatedAt": "2022-10-31T11:57:51.746Z",
  "networkType": "ethereum",
  "devdoc": {
    "kind": "dev",
    "methods": {
      "owner()": {
        "details": "Returns the address of the current owner."
      },
      "renounceOwnership()": {
        "details": "Leaves the contract without owner. It will not be possible to call `onlyOwner` functions anymore. Can only be called by the current owner. NOTE: Renouncing ownership will leave the contract without an owner, thereby removing any functionality that is only available to the owner."
      },
      "transferOwnership(address)": {
        "details": "Transfers ownership of the contract to a new account (`newOwner`). Can only be called by the current owner."
      }
    },
    "version": 1
  },
  "userdoc": {
    "kind": "user",
    "methods": {},
    "version": 1
  }
}