{
  "contractName": "RootRouter",
  "abi": [
    {
      "anonymous": false,
      "inputs": [
        {
          "indexed": true,
          "internalType": "address",
          "name": "previousOwner",
          "type": "address"
        },
        {
          "indexed": true,
          "internalType": "address",
          "name": "newOwner",
          "type": "address"
        }
      ],
      "name": "OwnershipTransferred",
      "type": "event"
    },
    {
      "inputs": [],
      "name": "MAX_NUMBER",
      "outputs": [
        {
          "internalType": "uint256",
          "name": "",
          "type": "uint256"
        }
      ],
      "stateMutability": "view",
      "type": "function"
    },
    {
      "inputs": [],
      "name": "MIN_NUMBER",
      "outputs": [
        {
          "internalType": "uint256",
          "name": "",
          "type": "uint256"
        }
      ],
      "stateMutability": "view",
      "type": "function"
    },
    {
      "inputs": [],
      "name": "POOL_CODE_LENGTH",
      "outputs": [
        {
          "internalType": "uint256",
          "name": "",
          "type": "uint256"
        }
      ],
      "stateMutability": "view",
      "type": "function"
    },
    {
      "inputs": [],
      "name": "POOL_SIZE",
      "outputs": [
        {
          "internalType": "uint256",
          "name": "",
          "type": "uint256"
        }
      ],
      "stateMutability": "view",
      "type": "function"
    },
    {
      "inputs": [],
      "name": "buyPrice",
      "outputs": [
        {
          "internalType": "uint256",
          "name": "",
          "type": "uint256"
        }
      ],
      "stateMutability": "view",
      "type": "function"
    },
    {
      "inputs": [],
      "name": "modeChangePrice",
      "outputs": [
        {
          "internalType": "uint256",
          "name": "",
          "type": "uint256"
        }
      ],
      "stateMutability": "view",
      "type": "function"
    },
    {
      "inputs": [],
      "name": "owner",
      "outputs": [
        {
          "internalType": "address",
          "name": "",
          "type": "address"
        }
      ],
      "stateMutability": "view",
      "type": "function"
    },
    {
      "inputs": [
        {
          "internalType": "uint256",
          "name": "",
          "type": "uint256"
        }
      ],
      "name": "pool",
      "outputs": [
        {
          "internalType": "address",
          "name": "owner",
          "type": "address"
        },
        {
          "internalType": "uint256",
          "name": "subscriptionEndTime",
          "type": "uint256"
        },
        {
          "internalType": "bool",
          "name": "isBlocked",
          "type": "bool"
        },
        {
          "internalType": "enum RootRouter.CustomerNumberMode",
          "name": "mode",
          "type": "uint8"
        },
        {
          "components": [
            {
              "internalType": "uint128",
              "name": "chainId",
              "type": "uint128"
            },
            {
              "internalType": "string",
              "name": "adr",
              "type": "string"
            },
            {
              "internalType": "uint128",
              "name": "poolCodeLength",
              "type": "uint128"
            }
          ],
          "internalType": "struct RootRouter.Router",
          "name": "router",
          "type": "tuple"
        }
      ],
      "stateMutability": "view",
      "type": "function"
    },
    {
      "inputs": [],
      "name": "renewalOwnershipPrice",
      "outputs": [
        {
          "internalType": "uint256",
          "name": "",
          "type": "uint256"
        }
      ],
      "stateMutability": "view",
      "type": "function"
    },
    {
      "inputs": [],
      "name": "renounceOwnership",
      "outputs": [],
      "stateMutability": "nonpayable",
      "type": "function"
    },
    {
      "inputs": [],
      "name": "sipDomain",
      "outputs": [
        {
          "internalType": "string",
          "name": "",
          "type": "string"
        }
      ],
      "stateMutability": "view",
      "type": "function"
    },
    {
      "inputs": [],
      "name": "subscriptionDuration",
      "outputs": [
        {
          "internalType": "uint256",
          "name": "",
          "type": "uint256"
        }
      ],
      "stateMutability": "view",
      "type": "function"
    },
    {
      "inputs": [
        {
          "internalType": "address",
          "name": "newOwner",
          "type": "address"
        }
      ],
      "name": "transferOwnership",
      "outputs": [],
      "stateMutability": "nonpayable",
      "type": "function"
    },
    {
      "inputs": [],
      "name": "ttl",
      "outputs": [
        {
          "internalType": "uint256",
          "name": "",
          "type": "uint256"
        }
      ],
      "stateMutability": "view",
      "type": "function"
    },
    {
      "inputs": [
        {
          "internalType": "uint256",
          "name": "number",
          "type": "uint256"
        }
      ],
      "name": "hasOwner",
      "outputs": [
        {
          "internalType": "bool",
          "name": "",
          "type": "bool"
        }
      ],
      "stateMutability": "view",
      "type": "function"
    },
    {
      "inputs": [],
      "name": "withdraw",
      "outputs": [],
      "stateMutability": "nonpayable",
      "type": "function"
    },
    {
      "inputs": [
        {
          "internalType": "uint256",
          "name": "newPrice",
          "type": "uint256"
        }
      ],
      "name": "setBuyPrice",
      "outputs": [],
      "stateMutability": "nonpayable",
      "type": "function"
    },
    {
      "inputs": [
        {
          "internalType": "uint256",
          "name": "newPrice",
          "type": "uint256"
        }
      ],
      "name": "setRenewalOwnershipPrice",
      "outputs": [],
      "stateMutability": "nonpayable",
      "type": "function"
    },
    {
      "inputs": [
        {
          "internalType": "uint256",
          "name": "newPrice",
          "type": "uint256"
        }
      ],
      "name": "setModeChangePrice",
      "outputs": [],
      "stateMutability": "nonpayable",
      "type": "function"
    },
    {
      "inputs": [
        {
          "internalType": "uint256",
          "name": "newDuration",
          "type": "uint256"
        }
      ],
      "name": "setSubscriptionDuration",
      "outputs": [],
      "stateMutability": "nonpayable",
      "type": "function"
    },
    {
      "inputs": [
        {
          "internalType": "uint256",
          "name": "newTtl",
          "type": "uint256"
        }
      ],
      "name": "setTtl",
      "outputs": [],
      "stateMutability": "nonpayable",
      "type": "function"
    },
    {
      "inputs": [
        {
          "internalType": "string",
          "name": "newSipDomain",
          "type": "string"
        }
      ],
      "name": "setSipDomain",
      "outputs": [],
      "stateMutability": "nonpayable",
      "type": "function"
    },
    {
      "inputs": [
        {
          "internalType": "uint256",
          "name": "number",
          "type": "uint256"
        }
      ],
      "name": "takeAwayOwnership",
      "outputs": [],
      "stateMutability": "nonpayable",
      "type": "function"
    },
    {
      "inputs": [
        {
          "internalType": "uint256",
          "name": "number",
          "type": "uint256"
        },
        {
          "internalType": "uint256",
          "name": "newExpirationTime",
          "type": "uint256"
        }
      ],
      "name": "setExpirationTimeCustomerNumber",
      "outputs": [],
      "stateMutability": "nonpayable",
      "type": "function"
    },
    {
      "inputs": [
        {
          "internalType": "uint256",
          "name": "number",
          "type": "uint256"
        },
        {
          "internalType": "bool",
          "name": "isBlocked",
          "type": "bool"
        }
      ],
      "name": "changeCustomerNumberStatus",
      "outputs": [],
      "stateMutability": "nonpayable",
      "type": "function"
    },
    {
      "inputs": [
        {
          "internalType": "uint256",
          "name": "number",
          "type": "uint256"
        }
      ],
      "name": "buy",
      "outputs": [],
      "stateMutability": "payable",
      "type": "function"
    },
    {
      "inputs": [
        {
          "internalType": "uint256",
          "name": "number",
          "type": "uint256"
        }
      ],
      "name": "renewSubscription",
      "outputs": [],
      "stateMutability": "payable",
      "type": "function"
    },
    {
      "inputs": [
        {
          "internalType": "uint256",
          "name": "number",
          "type": "uint256"
        }
      ],
      "name": "changeCustomerNumberMode",
      "outputs": [],
      "stateMutability": "payable",
      "type": "function"
    },
    {
      "inputs": [
        {
          "internalType": "uint256",
          "name": "number",
          "type": "uint256"
        },
        {
          "internalType": "uint128",
          "name": "chainId",
          "type": "uint128"
        },
        {
          "internalType": "string",
          "name": "adr",
          "type": "string"
        },
        {
          "internalType": "uint128",
          "name": "poolCodeLength",
          "type": "uint128"
        }
      ],
      "name": "setCustomerNumberRouter",
      "outputs": [],
      "stateMutability": "nonpayable",
      "type": "function"
    },
    {
      "inputs": [
        {
          "internalType": "uint256",
          "name": "number",
          "type": "uint256"
        },
        {
          "internalType": "address",
          "name": "newOwner",
          "type": "address"
        }
      ],
      "name": "transferOwnershipOfCustomerNumber",
      "outputs": [],
      "stateMutability": "nonpayable",
      "type": "function"
    },
    {
      "inputs": [
        {
          "internalType": "uint256",
          "name": "number",
          "type": "uint256"
        }
      ],
      "name": "getNextNode",
      "outputs": [
        {
          "internalType": "string[]",
          "name": "",
          "type": "string[]"
        }
      ],
      "stateMutability": "view",
      "type": "function"
    }
  ],
  "bytecode": "0x678ac7230489e80000600155676124fee993bc0000600255674563918244f400006003556312cea600600455620d2f0060055560c0604052600c60808190526b7369702e717569632e70726f60a01b60a0908152620000629160069190620000d2565b503480156200007057600080fd5b506200007c3362000082565b620001b5565b600080546001600160a01b038381166001600160a01b0319831681178455604051919092169283917f8be0079c531659141344cd1fd0a4f28419497f9722a3daafe3b4186f6b6457e09190a35050565b828054620000e09062000178565b90600052602060002090601f0160209004810192826200010457600085556200014f565b82601f106200011f57805160ff19168380011785556200014f565b828001600101855582156200014f579182015b828111156200014f57825182559160200191906001019062000132565b506200015d92915062000161565b5090565b5b808211156200015d576000815560010162000162565b600181811c908216806200018d57607f821691505b60208210811415620001af57634e487b7160e01b600052602260045260246000fd5b50919050565b611cab80620001c56000396000f3fe6080604052600436106101d85760003560e01c8063b380902e11610102578063e03b53e011610095578063f5415ac811610064578063f5415ac8146104e8578063fdab189314610508578063fe3131121461052a578063fea9b5721461055b57600080fd5b8063e03b53e014610458578063ee9de15f14610478578063f2fde38b14610498578063f48d60ca146104b857600080fd5b8063cac3c4d2116100d1578063cac3c4d2146103fd578063d71bb37b1461041d578063d96a094a14610430578063dd8ab8f91461044357600080fd5b8063b380902e1461039e578063b9930565146103be578063bf1916d0146103d1578063c8c1b94e146103e757600080fd5b8063715018a61161017a5780638620410b116101495780638620410b1461032b5780638da5cb5b14610341578063a7a4570614610369578063b2f5adb61461038957600080fd5b8063715018a6146102c0578063781c8580146102d55780637a94a633146102f55780637c78d6da1461030b57600080fd5b806355d87bd2116101b657806355d87bd2146102335780635a71a3761461025357806363ae8d6c146102735780636d902bfb1461029357600080fd5b80633ccfd60b146101dd5780634e8b1dd5146101f45780634f9daac61461021d575b600080fd5b3480156101e957600080fd5b506101f2610571565b005b34801561020057600080fd5b5061020a60055481565b6040519081526020015b60405180910390f35b34801561022957600080fd5b5061020a61038481565b34801561023f57600080fd5b506101f261024e366004611891565b6105b6565b34801561025f57600080fd5b506101f261026e366004611973565b6105c3565b34801561027f57600080fd5b506101f261028e366004611891565b6105f5565b34801561029f57600080fd5b506102b36102ae366004611891565b610602565b6040516102149190611a72565b3480156102cc57600080fd5b506101f26109fb565b3480156102e157600080fd5b506101f26102f03660046118aa565b610a0f565b34801561030157600080fd5b5061020a60045481565b34801561031757600080fd5b506101f261032636600461185c565b610aba565b34801561033757600080fd5b5061020a60015481565b34801561034d57600080fd5b506000546040516001600160a01b039091168152602001610214565b34801561037557600080fd5b506101f2610384366004611891565b610ad9565b34801561039557600080fd5b5061020a600381565b3480156103aa57600080fd5b506101f26103b93660046118d6565b610ae6565b6101f26103cc366004611891565b610b19565b3480156103dd57600080fd5b5061020a60025481565b3480156103f357600080fd5b5061020a60035481565b34801561040957600080fd5b506101f2610418366004611891565b610c74565b6101f261042b366004611891565b610c81565b6101f261043e366004611891565b610d36565b34801561044f57600080fd5b5061020a606481565b34801561046457600080fd5b506101f2610473366004611891565b610df0565b34801561048457600080fd5b506101f261049336600461190b565b610dfd565b3480156104a457600080fd5b506101f26104b3366004611841565b610f40565b3480156104c457600080fd5b506104d86104d3366004611891565b610fb6565b6040519015158152602001610214565b3480156104f457600080fd5b506101f2610503366004611891565b610fe8565b34801561051457600080fd5b5061051d611002565b6040516102149190611ad4565b34801561053657600080fd5b5061054a610545366004611891565b611090565b6040516102149594939291906119e2565b34801561056757600080fd5b5061020a6103e781565b61057961119d565b600080546040516001600160a01b03909116914780156108fc02929091818181858888f193505050501580156105b3573d6000803e3d6000fd5b50565b6105be61119d565b600555565b6105cb61119d565b6105d4826111f7565b60006105df83611248565b90506105eb4283611272565b6001909101555050565b6105fd61119d565b600155565b606061060d826111f7565b61061682610fb6565b6106675760405162461bcd60e51b815260206004820152601d60248201527f546865206e756d626572206973206e6f7420696e20736572766963652100000060448201526064015b60405180910390fd5b600061067283611248565b905061067d8161127e565b1561082f5760408051600480825260a08201909252600091816020015b606081526020019060019003908161069a575050600283015490915060ff166106dc57604051806040016040528060018152602001603160f81b8152506106f7565b604051806040016040528060018152602001600360fc1b8152505b8160008151811061070a5761070a611c49565b6020026020010181905250604051806040016040528060018152602001600360fc1b8152508160018151811061074257610742611c49565b60209081029190910101528154610761906001600160a01b03166112a7565b8160028151811061077457610774611c49565b60200260200101819052506006805461078c90611ba3565b80601f01602080910402602001604051908101604052809291908181526020018280546107b890611ba3565b80156108055780601f106107da57610100808354040283529160200191610805565b820191906000526020600020905b8154815290600101906020018083116107e857829003601f168201915b50505050508160038151811061081d5761081d611c49565b60209081029190910101529392505050565b60408051600580825260c08201909252600091816020015b6060815260200190600190039081610847575050600283015490915060ff1661088957604051806040016040528060018152602001603160f81b8152506108a4565b604051806040016040528060018152602001600360fc1b8152505b816000815181106108b7576108b7611c49565b602090810291909101015260058201546108d9906001600160801b03166112c3565b816001815181106108ec576108ec611c49565b6020908102919091010152600382015461090e906001600160801b03166112c3565b8160028151811061092157610921611c49565b602090810291909101015260048201805461093b90611ba3565b80601f016020809104026020016040519081016040528092919081815260200182805461096790611ba3565b80156109b45780601f10610989576101008083540402835291602001916109b4565b820191906000526020600020905b81548152906001019060200180831161099757829003601f168201915b5050505050816003815181106109cc576109cc611c49565b60200260200101819052506109e26005546112c3565b8160048151811061081d5761081d611c49565b50919050565b610a0361119d565b610a0d60006113c9565b565b81610a19816111f7565b6000610a2482611248565b9050610a386000546001600160a01b031690565b6001600160a01b0316336001600160a01b03161480610a6e575080546001600160a01b031633148015610a6e5750428160010154115b610a8a5760405162461bcd60e51b815260040161065e90611ae7565b6000610a9585611248565b80546001600160a01b0319166001600160a01b03959095169490941790935550505050565b610ac261119d565b8051610ad59060069060208401906116e8565b5050565b610ae161119d565b600255565b610aee61119d565b610af7826111f7565b6000610b0283611248565b600201805460ff1916921515929092179091555050565b80610b23816111f7565b6000610b2e82611248565b9050610b426000546001600160a01b031690565b6001600160a01b0316336001600160a01b03161480610b78575080546001600160a01b031633148015610b785750428160010154115b610b945760405162461bcd60e51b815260040161065e90611ae7565b610ba034600354611419565b6000610bab84611248565b9050610bb68161127e565b15610bd15760028101805461ff001916610100179055610c6e565b60028101805461ff0019169055604080516060810190915260008082526020820190610bfc906112a7565b8152600060209182015281516003840180546001600160801b0319166001600160801b039092169190911781558282015180519192610c43926004870192909101906116e8565b5060409190910151600290910180546001600160801b0319166001600160801b039092169190911790555b50505050565b610c7c61119d565b600455565b80610c8b816111f7565b6000610c9682611248565b9050610caa6000546001600160a01b031690565b6001600160a01b0316336001600160a01b03161480610ce0575080546001600160a01b031633148015610ce05750428160010154115b610cfc5760405162461bcd60e51b815260040161065e90611ae7565b610d0834600254611419565b6000610d1384611248565b9050600454816001016000828254610d2b9190611b2a565b909155505050505050565b610d3f816111f7565b610d4b34600154611419565b610d5481610fb6565b15610db25760405162461bcd60e51b815260206004820152602860248201527f54686520637573746f6d65724e756d62657220616c72656164792068617320616044820152676e206f776e65722160c01b606482015260840161065e565b610dbb81611474565b6000610dc682611248565b80546001600160a01b03191633178155600454909150610de7904290611272565b60019091015550565b610df861119d565b600355565b83610e07816111f7565b6000610e1282611248565b9050610e266000546001600160a01b031690565b6001600160a01b0316336001600160a01b03161480610e5c575080546001600160a01b031633148015610e5c5750428160010154115b610e785760405162461bcd60e51b815260040161065e90611ae7565b6000610e8387611248565b9050610e8e81611537565b610ee45760405162461bcd60e51b815260206004820152602160248201527f54686520437573746f6d65724e756d626572206973206e6f74206120706f6f6c6044820152602160f81b606482015260840161065e565b6003810180546001600160801b0319166001600160801b0388161790558451610f1690600483019060208801906116e8565b5060050180546001600160801b0319166001600160801b0394909416939093179092555050505050565b610f4861119d565b6001600160a01b038116610fad5760405162461bcd60e51b815260206004820152602660248201527f4f776e61626c653a206e6577206f776e657220697320746865207a65726f206160448201526564647265737360d01b606482015260840161065e565b6105b3816113c9565b600080610fc283611248565b80549091506001600160a01b031615801590610fe15750428160010154115b9392505050565b610ff061119d565b610ff9816111f7565b6105b381611474565b6006805461100f90611ba3565b80601f016020809104026020016040519081016040528092919081815260200182805461103b90611ba3565b80156110885780601f1061105d57610100808354040283529160200191611088565b820191906000526020600020905b81548152906001019060200180831161106b57829003601f168201915b505050505081565b60078161038481106110a157600080fd5b6006020180546001820154600283015460408051606081019091526003850180546001600160801b031682526004860180546001600160a01b039096169750939560ff808516966101009095041694909360208401919061110190611ba3565b80601f016020809104026020016040519081016040528092919081815260200182805461112d90611ba3565b801561117a5780601f1061114f5761010080835404028352916020019161117a565b820191906000526020600020905b81548152906001019060200180831161115d57829003601f168201915b5050509183525050600291909101546001600160801b0316602090910152905085565b6000546001600160a01b03163314610a0d5760405162461bcd60e51b815260206004820181905260248201527f4f776e61626c653a2063616c6c6572206973206e6f7420746865206f776e6572604482015260640161065e565b6064811015801561120a57506103e78111155b6105b35760405162461bcd60e51b815260206004820152600f60248201526e496e76616c6964206e756d6265722160881b604482015260640161065e565b60006007611257836064611540565b610384811061126857611268611c49565b6006020192915050565b6000610fe18284611b2a565b6000805b6002830154610100900460ff1660018111156112a0576112a0611c33565b1492915050565b60606112bd6001600160a01b038316601461154c565b92915050565b6060816112e75750506040805180820190915260018152600360fc1b602082015290565b8160005b811561131157806112fb81611bd8565b915061130a9050600a83611b42565b91506112eb565b60008167ffffffffffffffff81111561132c5761132c611c5f565b6040519080825280601f01601f191660200182016040528015611356576020820181803683370190505b5090505b84156113c15761136b600183611b75565b9150611378600a86611bf3565b611383906030611b2a565b60f81b81838151811061139857611398611c49565b60200101906001600160f81b031916908160001a9053506113ba600a86611b42565b945061135a565b949350505050565b600080546001600160a01b038381166001600160a01b0319831681178455604051919092169283917f8be0079c531659141344cd1fd0a4f28419497f9722a3daafe3b4186f6b6457e09190a35050565b808210158061143257506000546001600160a01b031633145b610ad55760405162461bcd60e51b8152602060048201526013602482015272496e73756666696369656e742066756e64732160681b604482015260640161065e565b600061147f82611248565b80546001600160a01b031916815542600182015560028101805461ffff19169055604080516060810190915260008082529192509060208201906114c2906112a7565b8152600060209182015281516003840180546001600160801b0319166001600160801b039092169190911781558282015180519192611509926004870192909101906116e8565b5060409190910151600290910180546001600160801b0319166001600160801b039092169190911790555050565b60006001611282565b6000610fe18284611b75565b6060600061155b836002611b56565b611566906002611b2a565b67ffffffffffffffff81111561157e5761157e611c5f565b6040519080825280601f01601f1916602001820160405280156115a8576020820181803683370190505b509050600360fc1b816000815181106115c3576115c3611c49565b60200101906001600160f81b031916908160001a905350600f60fb1b816001815181106115f2576115f2611c49565b60200101906001600160f81b031916908160001a9053506000611616846002611b56565b611621906001611b2a565b90505b6001811115611699576f181899199a1a9b1b9c1cb0b131b232b360811b85600f166010811061165557611655611c49565b1a60f81b82828151811061166b5761166b611c49565b60200101906001600160f81b031916908160001a90535060049490941c9361169281611b8c565b9050611624565b508315610fe15760405162461bcd60e51b815260206004820181905260248201527f537472696e67733a20686578206c656e67746820696e73756666696369656e74604482015260640161065e565b8280546116f490611ba3565b90600052602060002090601f016020900481019282611716576000855561175c565b82601f1061172f57805160ff191683800117855561175c565b8280016001018555821561175c579182015b8281111561175c578251825591602001919060010190611741565b5061176892915061176c565b5090565b5b80821115611768576000815560010161176d565b80356001600160a01b038116811461179857600080fd5b919050565b600082601f8301126117ae57600080fd5b813567ffffffffffffffff808211156117c9576117c9611c5f565b604051601f8301601f19908116603f011681019082821181831017156117f1576117f1611c5f565b8160405283815286602085880101111561180a57600080fd5b836020870160208301376000602085830101528094505050505092915050565b80356001600160801b038116811461179857600080fd5b60006020828403121561185357600080fd5b610fe182611781565b60006020828403121561186e57600080fd5b813567ffffffffffffffff81111561188557600080fd5b6113c18482850161179d565b6000602082840312156118a357600080fd5b5035919050565b600080604083850312156118bd57600080fd5b823591506118cd60208401611781565b90509250929050565b600080604083850312156118e957600080fd5b823591506020830135801515811461190057600080fd5b809150509250929050565b6000806000806080858703121561192157600080fd5b843593506119316020860161182a565b9250604085013567ffffffffffffffff81111561194d57600080fd5b6119598782880161179d565b9250506119686060860161182a565b905092959194509250565b6000806040838503121561198657600080fd5b50508035926020909101359150565b6000815180845260005b818110156119bb5760208185018101518683018201520161199f565b818111156119cd576000602083870101525b50601f01601f19169290920160200192915050565b6001600160a01b0386168152602081018590528315156040820152600060028410611a1d57634e487b7160e01b600052602160045260246000fd5b83606083015260a060808301526001600160801b038084511660a08401526020840151606060c0850152611a55610100850182611995565b90508160408601511660e085015280925050509695505050505050565b6000602080830181845280855180835260408601915060408160051b870101925083870160005b82811015611ac757603f19888603018452611ab5858351611995565b94509285019290850190600101611a99565b5092979650505050505050565b602081526000610fe16020830184611995565b60208082526023908201527f596f7520617265206e6f74206120637573746f6d65724e756d626572206f776e60408201526265722160e81b606082015260800190565b60008219821115611b3d57611b3d611c07565b500190565b600082611b5157611b51611c1d565b500490565b6000816000190483118215151615611b7057611b70611c07565b500290565b600082821015611b8757611b87611c07565b500390565b600081611b9b57611b9b611c07565b506000190190565b600181811c90821680611bb757607f821691505b602082108114156109f557634e487b7160e01b600052602260045260246000fd5b6000600019821415611bec57611bec611c07565b5060010190565b600082611c0257611c02611c1d565b500690565b634e487b7160e01b600052601160045260246000fd5b634e487b7160e01b600052601260045260246000fd5b634e487b7160e01b600052602160045260246000fd5b634e487b7160e01b600052603260045260246000fd5b634e487b7160e01b600052604160045260246000fdfea26469706673582212207beee080ca110eca943d413863d022c8534765604e93aa9632a1ab2cfcf1a5e664736f6c63430008070033",
  "immutableReferences": {},
  "source": "// SPDX-License-Identifier: MIT\n\n\npragma solidity 0.8.7;\n\n\nimport \"@openzeppelin/contracts/access/Ownable.sol\";\nimport \"@openzeppelin/contracts/utils/math/SafeMath.sol\";\nimport \"@openzeppelin/contracts/utils/Strings.sol\";\n\n\ncontract RootRouter is Ownable {\n    using SafeMath for uint256;\n\n\n    // ----- CUSTOM TYPES ------------------------------------------------------\n\n    enum CustomerNumberMode { Number, Pool }\n\n    struct CustomerNumber {\n        address owner;\n        uint256 subscriptionEndTime;\n        bool isBlocked;\n        CustomerNumberMode mode;\n        Router router;\n    }\n\n    struct Router {\n        uint128 chainId;\n        string adr;\n        uint128 poolCodeLength;\n    }\n\n\n\n    // ----- SETTINGS ----------------------------------------------------------\n\n    uint256 constant public POOL_CODE_LENGTH = 3;\n    uint256 constant public POOL_SIZE = 900;\n    uint256 constant public MIN_NUMBER = 100;\n    uint256 constant public MAX_NUMBER = 999;\n\n    uint256 public buyPrice = 10 ether;\n    uint256 public renewalOwnershipPrice = 7 ether;\n    uint256 public modeChangePrice = 5 ether;\n    uint256 public subscriptionDuration = 315532800; // 10 years\n    uint256 public ttl = 864000; // 10 days\n\n    string public sipDomain = \"sip.quic.pro\";\n\n\n\n    // ----- DATA --------------------------------------------------------------\n\n    CustomerNumber[POOL_SIZE] public pool;\n\n\n\n    // ----- HELPERS -----------------------------------------------------------\n\n    function checkNumber(uint256 number) internal pure {\n        require((number >= MIN_NUMBER) && (number <= MAX_NUMBER), \"Invalid number!\");\n    }\n\n    function checkValue(uint256 received, uint256 expected) internal view {\n        require((received >= expected) || (msg.sender == owner()), \"Insufficient funds!\");\n    }\n\n\n\n    // ----- MODIFIERS ---------------------------------------------------------\n\n    modifier onlyCustomerNumberOwner(uint256 number) {\n        checkNumber(number);\n\n        CustomerNumber storage customerNumber = getCustomerNumber(number);\n        require((msg.sender == owner()) || ((customerNumber.owner == msg.sender) && (customerNumber.subscriptionEndTime > block.timestamp)), \"You are not a customerNumber owner!\");\n        _;\n    }\n\n\n\n    // ----- UTILS -------------------------------------------------------------\n\n    function getCustomerNumber(uint256 number) internal view returns(CustomerNumber storage) {\n        return pool[number.sub(100)];\n    }\n\n    function isNumberMode(CustomerNumber storage customerNumber) internal view returns(bool) {\n        return customerNumber.mode == CustomerNumberMode.Number;\n    }\n\n    function isPoolMode(CustomerNumber storage customerNumber) internal view returns(bool) {\n        return customerNumber.mode == CustomerNumberMode.Pool;\n    }\n\n    function hasOwner(uint256 number) public view returns(bool) {\n        CustomerNumber storage customerNumber = getCustomerNumber(number);\n        return ((customerNumber.owner != address(0)) && (customerNumber.subscriptionEndTime > block.timestamp));\n    }\n\n    function clearCustomerNumber(uint256 number) internal {\n        CustomerNumber storage customerNumber = getCustomerNumber(number);\n        customerNumber.owner = address(0);\n        customerNumber.subscriptionEndTime = block.timestamp;\n        customerNumber.isBlocked = false;\n        customerNumber.mode = CustomerNumberMode.Number;\n        customerNumber.router = Router(0, Strings.toHexString(address(0)), 0);\n    }\n\n\n\n    // ----- SMART CONTRACT MANAGEMENT ------------------------------------------\n\n    function withdraw() external onlyOwner {\n        payable(owner()).transfer(address(this).balance);\n    }\n\n    function setBuyPrice(uint256 newPrice) external onlyOwner {\n        buyPrice = newPrice;\n    }\n\n    function setRenewalOwnershipPrice(uint256 newPrice) external onlyOwner {\n        renewalOwnershipPrice = newPrice;\n    }\n\n    function setModeChangePrice(uint256 newPrice) external onlyOwner {\n        modeChangePrice = newPrice;\n    }\n\n    function setSubscriptionDuration(uint256 newDuration) external onlyOwner {\n        subscriptionDuration = newDuration;\n    }\n\n    function setTtl(uint256 newTtl) external onlyOwner {\n        ttl = newTtl;\n    }\n\n    function setSipDomain(string memory newSipDomain) external onlyOwner {\n        sipDomain = newSipDomain;\n    }\n\n    function takeAwayOwnership(uint256 number) external onlyOwner {\n        checkNumber(number);\n\n        clearCustomerNumber(number);\n    }\n\n    function setExpirationTimeCustomerNumber(uint256 number, uint256 newExpirationTime) external onlyOwner {\n        checkNumber(number);\n\n        CustomerNumber storage customerNumber = getCustomerNumber(number);\n        customerNumber.subscriptionEndTime = block.timestamp.add(newExpirationTime);\n    }\n\n    function changeCustomerNumberStatus(uint256 number, bool isBlocked) external onlyOwner {\n        checkNumber(number);\n\n        CustomerNumber storage customerNumber = getCustomerNumber(number);\n        customerNumber.isBlocked = isBlocked;\n    }\n\n\n\n    // ----- CUSTOMER NUMBER MANAGEMENT -----------------------------------------\n\n    function buy(uint256 number) external payable {\n        checkNumber(number);\n        checkValue(msg.value, buyPrice);\n        require(!hasOwner(number), \"The customerNumber already has an owner!\");\n\n        clearCustomerNumber(number);\n\n        CustomerNumber storage customerNumber = getCustomerNumber(number);\n        customerNumber.owner = msg.sender;\n        customerNumber.subscriptionEndTime = block.timestamp.add(subscriptionDuration);\n    }\n\n    function renewSubscription(uint256 number) external payable onlyCustomerNumberOwner(number) {\n        checkValue(msg.value, renewalOwnershipPrice);\n\n        CustomerNumber storage customerNumber = getCustomerNumber(number);\n        customerNumber.subscriptionEndTime += subscriptionDuration;\n    }\n\n    function changeCustomerNumberMode(uint256 number) external payable onlyCustomerNumberOwner(number) {\n        checkValue(msg.value, modeChangePrice);\n\n        CustomerNumber storage customerNumber = getCustomerNumber(number);\n        if (isNumberMode(customerNumber)) {\n            customerNumber.mode = CustomerNumberMode.Pool;\n        } else {\n            customerNumber.mode = CustomerNumberMode.Number;\n            customerNumber.router = Router(0, Strings.toHexString(address(0)), 0);\n        }\n    }\n\n    function setCustomerNumberRouter(uint256 number, uint128 chainId, string memory adr, uint128 poolCodeLength) external onlyCustomerNumberOwner(number) {\n        CustomerNumber storage customerNumber = getCustomerNumber(number);\n        require(isPoolMode(customerNumber), \"The CustomerNumber is not a pool!\");\n\n        customerNumber.router.chainId = chainId;\n        customerNumber.router.adr = adr;\n        customerNumber.router.poolCodeLength = poolCodeLength;\n    }\n\n    function transferOwnershipOfCustomerNumber(uint256 number, address newOwner) external onlyCustomerNumberOwner(number) {\n        CustomerNumber storage customerNumber = getCustomerNumber(number);\n        customerNumber.owner = newOwner;\n    }\n\n\n\n    // ----- ROUTING ------------------------------------------------------------\n\n    function getNextNode(uint256 number) public view returns(string[] memory) {\n        checkNumber(number);\n        require(hasOwner(number), \"The number is not in service!\");\n\n        CustomerNumber storage customerNumber = getCustomerNumber(number);\n        if (isNumberMode(customerNumber)) {\n            string[] memory nextNode = new string[](4);\n            nextNode[0] = customerNumber.isBlocked ? \"0\" : \"1\";\n            nextNode[1] = \"0\";\n            nextNode[2] = Strings.toHexString(customerNumber.owner);\n            nextNode[3] = sipDomain;\n\n            return nextNode;\n        } else {\n            string[] memory nextNode = new string[](5);\n            nextNode[0] = customerNumber.isBlocked ? \"0\" : \"1\";\n            nextNode[1] = Strings.toString(customerNumber.router.poolCodeLength);\n            nextNode[2] = Strings.toString(customerNumber.router.chainId);\n            nextNode[3] = customerNumber.router.adr;\n            nextNode[4] = Strings.toString(ttl);\n\n            return nextNode;\n        }\n    }\n}\n",
  "sourcePath": "/Users/kosrotoff/Desktop/mvts-smart-contract-root-router/contracts/RootRouter.sol",
  "compiler": {
    "name": "solc",
    "version": "0.8.7+commit.e28d00a7.Emscripten.clang"
  },
  "schemaVersion": "3.4.10",
  "updatedAt": "2022-11-01T16:25:06.601Z",
  "devdoc": {
    "kind": "dev",
    "methods": {
      "owner()": {
        "details": "Returns the address of the current owner."
      },
      "renounceOwnership()": {
        "details": "Leaves the contract without owner. It will not be possible to call `onlyOwner` functions anymore. Can only be called by the current owner. NOTE: Renouncing ownership will leave the contract without an owner, thereby removing any functionality that is only available to the owner."
      },
      "transferOwnership(address)": {
        "details": "Transfers ownership of the contract to a new account (`newOwner`). Can only be called by the current owner."
      }
    },
    "version": 1
  },
  "userdoc": {
    "kind": "user",
    "methods": {},
    "version": 1
  }
}