{
  "contractName": "RootRouter",
  "abi": [
    {
      "anonymous": false,
      "inputs": [
        {
          "indexed": true,
          "internalType": "address",
          "name": "previousOwner",
          "type": "address"
        },
        {
          "indexed": true,
          "internalType": "address",
          "name": "newOwner",
          "type": "address"
        }
      ],
      "name": "OwnershipTransferred",
      "type": "event"
    },
    {
      "inputs": [],
      "name": "MAX_NUMBER",
      "outputs": [
        {
          "internalType": "uint256",
          "name": "",
          "type": "uint256"
        }
      ],
      "stateMutability": "view",
      "type": "function",
      "constant": true
    },
    {
      "inputs": [],
      "name": "MIN_NUMBER",
      "outputs": [
        {
          "internalType": "uint256",
          "name": "",
          "type": "uint256"
        }
      ],
      "stateMutability": "view",
      "type": "function",
      "constant": true
    },
    {
      "inputs": [],
      "name": "POOL_CODE_LENGTH",
      "outputs": [
        {
          "internalType": "uint256",
          "name": "",
          "type": "uint256"
        }
      ],
      "stateMutability": "view",
      "type": "function",
      "constant": true
    },
    {
      "inputs": [],
      "name": "POOL_SIZE",
      "outputs": [
        {
          "internalType": "uint256",
          "name": "",
          "type": "uint256"
        }
      ],
      "stateMutability": "view",
      "type": "function",
      "constant": true
    },
    {
      "inputs": [],
      "name": "buyPrice",
      "outputs": [
        {
          "internalType": "uint256",
          "name": "",
          "type": "uint256"
        }
      ],
      "stateMutability": "view",
      "type": "function",
      "constant": true
    },
    {
      "inputs": [],
      "name": "modeChangePrice",
      "outputs": [
        {
          "internalType": "uint256",
          "name": "",
          "type": "uint256"
        }
      ],
      "stateMutability": "view",
      "type": "function",
      "constant": true
    },
    {
      "inputs": [],
      "name": "owner",
      "outputs": [
        {
          "internalType": "address",
          "name": "",
          "type": "address"
        }
      ],
      "stateMutability": "view",
      "type": "function",
      "constant": true
    },
    {
      "inputs": [
        {
          "internalType": "uint256",
          "name": "",
          "type": "uint256"
        }
      ],
      "name": "pool",
      "outputs": [
        {
          "internalType": "address",
          "name": "owner",
          "type": "address"
        },
        {
          "internalType": "uint256",
          "name": "subscriptionEndTime",
          "type": "uint256"
        },
        {
          "internalType": "bool",
          "name": "isBlocked",
          "type": "bool"
        },
        {
          "internalType": "enum RootRouter.CustomerNumberMode",
          "name": "mode",
          "type": "uint8"
        },
        {
          "components": [
            {
              "internalType": "uint128",
              "name": "chainId",
              "type": "uint128"
            },
            {
              "internalType": "string",
              "name": "adr",
              "type": "string"
            },
            {
              "internalType": "uint128",
              "name": "poolCodeLength",
              "type": "uint128"
            }
          ],
          "internalType": "struct RootRouter.Router",
          "name": "router",
          "type": "tuple"
        }
      ],
      "stateMutability": "view",
      "type": "function",
      "constant": true
    },
    {
      "inputs": [],
      "name": "renewalOwnershipPrice",
      "outputs": [
        {
          "internalType": "uint256",
          "name": "",
          "type": "uint256"
        }
      ],
      "stateMutability": "view",
      "type": "function",
      "constant": true
    },
    {
      "inputs": [],
      "name": "renounceOwnership",
      "outputs": [],
      "stateMutability": "nonpayable",
      "type": "function"
    },
    {
      "inputs": [],
      "name": "sipDomain",
      "outputs": [
        {
          "internalType": "string",
          "name": "",
          "type": "string"
        }
      ],
      "stateMutability": "view",
      "type": "function",
      "constant": true
    },
    {
      "inputs": [],
      "name": "subscriptionDuration",
      "outputs": [
        {
          "internalType": "uint256",
          "name": "",
          "type": "uint256"
        }
      ],
      "stateMutability": "view",
      "type": "function",
      "constant": true
    },
    {
      "inputs": [
        {
          "internalType": "address",
          "name": "newOwner",
          "type": "address"
        }
      ],
      "name": "transferOwnership",
      "outputs": [],
      "stateMutability": "nonpayable",
      "type": "function"
    },
    {
      "inputs": [],
      "name": "ttl",
      "outputs": [
        {
          "internalType": "uint256",
          "name": "",
          "type": "uint256"
        }
      ],
      "stateMutability": "view",
      "type": "function",
      "constant": true
    },
    {
      "stateMutability": "payable",
      "type": "receive",
      "payable": true
    },
    {
      "inputs": [
        {
          "internalType": "uint256",
          "name": "number",
          "type": "uint256"
        }
      ],
      "name": "hasOwner",
      "outputs": [
        {
          "internalType": "bool",
          "name": "",
          "type": "bool"
        }
      ],
      "stateMutability": "view",
      "type": "function",
      "constant": true
    },
    {
      "inputs": [],
      "name": "withdraw",
      "outputs": [],
      "stateMutability": "nonpayable",
      "type": "function"
    },
    {
      "inputs": [
        {
          "internalType": "uint256",
          "name": "newPrice",
          "type": "uint256"
        }
      ],
      "name": "setBuyPrice",
      "outputs": [],
      "stateMutability": "nonpayable",
      "type": "function"
    },
    {
      "inputs": [
        {
          "internalType": "uint256",
          "name": "newPrice",
          "type": "uint256"
        }
      ],
      "name": "setRenewalOwnershipPrice",
      "outputs": [],
      "stateMutability": "nonpayable",
      "type": "function"
    },
    {
      "inputs": [
        {
          "internalType": "uint256",
          "name": "newPrice",
          "type": "uint256"
        }
      ],
      "name": "setModeChangePrice",
      "outputs": [],
      "stateMutability": "nonpayable",
      "type": "function"
    },
    {
      "inputs": [
        {
          "internalType": "uint256",
          "name": "newDuration",
          "type": "uint256"
        }
      ],
      "name": "setSubscriptionDuration",
      "outputs": [],
      "stateMutability": "nonpayable",
      "type": "function"
    },
    {
      "inputs": [
        {
          "internalType": "uint256",
          "name": "newTtl",
          "type": "uint256"
        }
      ],
      "name": "setTtl",
      "outputs": [],
      "stateMutability": "nonpayable",
      "type": "function"
    },
    {
      "inputs": [
        {
          "internalType": "string",
          "name": "newSipDomain",
          "type": "string"
        }
      ],
      "name": "setSipDomain",
      "outputs": [],
      "stateMutability": "nonpayable",
      "type": "function"
    },
    {
      "inputs": [
        {
          "internalType": "uint256",
          "name": "number",
          "type": "uint256"
        }
      ],
      "name": "takeAwayOwnership",
      "outputs": [],
      "stateMutability": "nonpayable",
      "type": "function"
    },
    {
      "inputs": [
        {
          "internalType": "uint256",
          "name": "number",
          "type": "uint256"
        },
        {
          "internalType": "uint256",
          "name": "newExpirationTime",
          "type": "uint256"
        }
      ],
      "name": "setExpirationTimeCustomerNumber",
      "outputs": [],
      "stateMutability": "nonpayable",
      "type": "function"
    },
    {
      "inputs": [
        {
          "internalType": "uint256",
          "name": "number",
          "type": "uint256"
        },
        {
          "internalType": "bool",
          "name": "isBlocked",
          "type": "bool"
        }
      ],
      "name": "changeCustomerNumberStatus",
      "outputs": [],
      "stateMutability": "nonpayable",
      "type": "function"
    },
    {
      "inputs": [
        {
          "internalType": "uint256",
          "name": "number",
          "type": "uint256"
        }
      ],
      "name": "buy",
      "outputs": [],
      "stateMutability": "payable",
      "type": "function",
      "payable": true
    },
    {
      "inputs": [
        {
          "internalType": "uint256",
          "name": "number",
          "type": "uint256"
        }
      ],
      "name": "renewSubscription",
      "outputs": [],
      "stateMutability": "payable",
      "type": "function",
      "payable": true
    },
    {
      "inputs": [
        {
          "internalType": "uint256",
          "name": "number",
          "type": "uint256"
        }
      ],
      "name": "changeCustomerNumberMode",
      "outputs": [],
      "stateMutability": "payable",
      "type": "function",
      "payable": true
    },
    {
      "inputs": [
        {
          "internalType": "uint256",
          "name": "number",
          "type": "uint256"
        },
        {
          "internalType": "uint128",
          "name": "chainId",
          "type": "uint128"
        },
        {
          "internalType": "string",
          "name": "adr",
          "type": "string"
        },
        {
          "internalType": "uint128",
          "name": "poolCodeLength",
          "type": "uint128"
        }
      ],
      "name": "setCustomerNumberRouter",
      "outputs": [],
      "stateMutability": "nonpayable",
      "type": "function"
    },
    {
      "inputs": [
        {
          "internalType": "uint256",
          "name": "number",
          "type": "uint256"
        },
        {
          "internalType": "address",
          "name": "newOwner",
          "type": "address"
        }
      ],
      "name": "transferOwnershipOfCustomerNumber",
      "outputs": [],
      "stateMutability": "nonpayable",
      "type": "function"
    },
    {
      "inputs": [
        {
          "internalType": "uint256",
          "name": "number",
          "type": "uint256"
        }
      ],
      "name": "getNextNode",
      "outputs": [
        {
          "internalType": "string[]",
          "name": "",
          "type": "string[]"
        }
      ],
      "stateMutability": "view",
      "type": "function",
      "constant": true
    }
  ],
  "bytecode": "0x678ac7230489e80000600155676124fee993bc0000600255674563918244f400006003556312cc0300600455606460055560c0604052600c60809081526b7369702e717569632e70726f60a01b60a0526006906200005e908262000173565b503480156200006c57600080fd5b5062000078336200007e565b6200023f565b600080546001600160a01b038381166001600160a01b0319831681178455604051919092169283917f8be0079c531659141344cd1fd0a4f28419497f9722a3daafe3b4186f6b6457e09190a35050565b634e487b7160e01b600052604160045260246000fd5b600181811c90821680620000f957607f821691505b6020821081036200011a57634e487b7160e01b600052602260045260246000fd5b50919050565b601f8211156200016e57600081815260208120601f850160051c81016020861015620001495750805b601f850160051c820191505b818110156200016a5782815560010162000155565b5050505b505050565b81516001600160401b038111156200018f576200018f620000ce565b620001a781620001a08454620000e4565b8462000120565b602080601f831160018114620001df5760008415620001c65750858301515b600019600386901b1c1916600185901b1785556200016a565b600085815260208120601f198616915b828110156200021057888601518255948401946001909101908401620001ef565b50858210156200022f5787850151600019600388901b60f8161c191681555b5050505050600190811b01905550565b611e3e806200024f6000396000f3fe6080604052600436106101dc5760003560e01c8063b380902e11610102578063e03b53e011610095578063f5415ac811610064578063f5415ac8146104f2578063fdab189314610512578063fe31311214610534578063fea9b5721461056557600080fd5b8063e03b53e014610462578063ee9de15f14610482578063f2fde38b146104a2578063f48d60ca146104c257600080fd5b8063cac3c4d2116100d1578063cac3c4d214610407578063d71bb37b14610427578063d96a094a1461043a578063dd8ab8f91461044d57600080fd5b8063b380902e146103a8578063b9930565146103c8578063bf1916d0146103db578063c8c1b94e146103f157600080fd5b8063715018a61161017a5780638620410b116101495780638620410b146103355780638da5cb5b1461034b578063a7a4570614610373578063b2f5adb61461039357600080fd5b8063715018a6146102ca578063781c8580146102df5780637a94a633146102ff5780637c78d6da1461031557600080fd5b806355d87bd2116101b657806355d87bd21461023d5780635a71a3761461025d57806363ae8d6c1461027d5780636d902bfb1461029d57600080fd5b80633ccfd60b146101e85780634e8b1dd5146101ff5780634f9daac61461022857600080fd5b366101e357005b600080fd5b3480156101f457600080fd5b506101fd61057a565b005b34801561020b57600080fd5b5061021560055481565b6040519081526020015b60405180910390f35b34801561023457600080fd5b506102156105b1565b34801561024957600080fd5b506101fd610258366004611730565b6105e1565b34801561026957600080fd5b506101fd610278366004611749565b6105ee565b34801561028957600080fd5b506101fd610298366004611730565b610620565b3480156102a957600080fd5b506102bd6102b8366004611730565b61062d565b60405161021f91906117b1565b3480156102d657600080fd5b506101fd610a26565b3480156102eb57600080fd5b506101fd6102fa36600461182f565b610a3a565b34801561030b57600080fd5b5061021560045481565b34801561032157600080fd5b506101fd6103303660046118fe565b610ae5565b34801561034157600080fd5b5061021560015481565b34801561035757600080fd5b506000546040516001600160a01b03909116815260200161021f565b34801561037f57600080fd5b506101fd61038e366004611730565b610afd565b34801561039f57600080fd5b50610215600381565b3480156103b457600080fd5b506101fd6103c3366004611933565b610b0a565b6101fd6103d6366004611730565b610b3d565b3480156103e757600080fd5b5061021560025481565b3480156103fd57600080fd5b5061021560035481565b34801561041357600080fd5b506101fd610422366004611730565b610c91565b6101fd610435366004611730565b610c9e565b6101fd610448366004611730565b610d53565b34801561045957600080fd5b50610215610e0c565b34801561046e57600080fd5b506101fd61047d366004611730565b610e23565b34801561048e57600080fd5b506101fd61049d36600461197f565b610e30565b3480156104ae57600080fd5b506101fd6104bd3660046119e7565b610f6c565b3480156104ce57600080fd5b506104e26104dd366004611730565b610fe2565b604051901515815260200161021f565b3480156104fe57600080fd5b506101fd61050d366004611730565b611014565b34801561051e57600080fd5b5061052761102e565b60405161021f9190611a02565b34801561054057600080fd5b5061055461054f366004611730565b6110bc565b60405161021f959493929190611a2b565b34801561057157600080fd5b506102156111c9565b6105826111d7565b60405133904780156108fc02916000818181858888f193505050501580156105ae573d6000803e3d6000fd5b50565b6105bd60016003611ad1565b6105c890600a611bc8565b6105d46003600a611bc8565b6105de9190611ad1565b81565b6105e96111d7565b600555565b6105f66111d7565b6105ff82611231565b600061060a836112ac565b90506106168242611bd4565b6001909101555050565b6106286111d7565b600155565b606061063882611231565b61064182610fe2565b6106925760405162461bcd60e51b815260206004820152601d60248201527f546865206e756d626572206973206e6f7420696e20736572766963652100000060448201526064015b60405180910390fd5b600061069d836112ac565b90506106a8816112d6565b1561085a5760408051600480825260a08201909252600091816020015b60608152602001906001900390816106c5575050600283015490915060ff1661070757604051806040016040528060018152602001603160f81b815250610722565b604051806040016040528060018152602001600360fc1b8152505b8160008151811061073557610735611be7565b6020026020010181905250604051806040016040528060018152602001600360fc1b8152508160018151811061076d5761076d611be7565b6020908102919091010152815461078c906001600160a01b03166112ff565b8160028151811061079f5761079f611be7565b6020026020010181905250600680546107b790611bfd565b80601f01602080910402602001604051908101604052809291908181526020018280546107e390611bfd565b80156108305780601f1061080557610100808354040283529160200191610830565b820191906000526020600020905b81548152906001019060200180831161081357829003601f168201915b50505050508160038151811061084857610848611be7565b60209081029190910101529392505050565b60408051600580825260c08201909252600091816020015b6060815260200190600190039081610872575050600283015490915060ff166108b457604051806040016040528060018152602001603160f81b8152506108cf565b604051806040016040528060018152602001600360fc1b8152505b816000815181106108e2576108e2611be7565b60209081029190910101526005820154610904906001600160801b031661131b565b8160018151811061091757610917611be7565b60209081029190910101526003820154610939906001600160801b031661131b565b8160028151811061094c5761094c611be7565b602090810291909101015260048201805461096690611bfd565b80601f016020809104026020016040519081016040528092919081815260200182805461099290611bfd565b80156109df5780601f106109b4576101008083540402835291602001916109df565b820191906000526020600020905b8154815290600101906020018083116109c257829003601f168201915b5050505050816003815181106109f7576109f7611be7565b6020026020010181905250610a0d60055461131b565b8160048151811061084857610848611be7565b50919050565b610a2e6111d7565b610a386000611424565b565b81610a4481611231565b6000610a4f826112ac565b9050610a636000546001600160a01b031690565b6001600160a01b0316336001600160a01b03161480610a99575080546001600160a01b031633148015610a995750428160010154115b610ab55760405162461bcd60e51b815260040161068990611c31565b6000610ac0856112ac565b80546001600160a01b0319166001600160a01b03959095169490941790935550505050565b610aed6111d7565b6006610af98282611cc3565b5050565b610b056111d7565b600255565b610b126111d7565b610b1b82611231565b6000610b26836112ac565b600201805460ff1916921515929092179091555050565b80610b4781611231565b6000610b52826112ac565b9050610b666000546001600160a01b031690565b6001600160a01b0316336001600160a01b03161480610b9c575080546001600160a01b031633148015610b9c5750428160010154115b610bb85760405162461bcd60e51b815260040161068990611c31565b610bc434600354611474565b6000610bcf846112ac565b9050610bda816112d6565b15610bf55760028101805461ff001916610100179055610c8b565b60028101805461ff0019169055604080516060810190915260008082526020820190610c20906112ff565b8152600060209182015281516003840180546001600160801b0319166001600160801b03909216919091178155908201516004840190610c609082611cc3565b5060409190910151600290910180546001600160801b0319166001600160801b039092169190911790555b50505050565b610c996111d7565b600455565b80610ca881611231565b6000610cb3826112ac565b9050610cc76000546001600160a01b031690565b6001600160a01b0316336001600160a01b03161480610cfd575080546001600160a01b031633148015610cfd5750428160010154115b610d195760405162461bcd60e51b815260040161068990611c31565b610d2534600254611474565b6000610d30846112ac565b9050600454816001016000828254610d489190611bd4565b909155505050505050565b610d5c81611231565b610d6834600154611474565b610d7181610fe2565b15610dcf5760405162461bcd60e51b815260206004820152602860248201527f54686520637573746f6d65724e756d62657220616c72656164792068617320616044820152676e206f776e65722160c01b6064820152608401610689565b610dd8816114cf565b6000610de3826112ac565b80546001600160a01b03191633178155600454909150610e039042611bd4565b60019091015550565b610e1860016003611ad1565b6105de90600a611bc8565b610e2b6111d7565b600355565b83610e3a81611231565b6000610e45826112ac565b9050610e596000546001600160a01b031690565b6001600160a01b0316336001600160a01b03161480610e8f575080546001600160a01b031633148015610e8f5750428160010154115b610eab5760405162461bcd60e51b815260040161068990611c31565b6000610eb6876112ac565b9050610ec18161158b565b610f175760405162461bcd60e51b815260206004820152602160248201527f54686520437573746f6d65724e756d626572206973206e6f74206120706f6f6c6044820152602160f81b6064820152608401610689565b6003810180546001600160801b0319166001600160801b03881617905560048101610f428682611cc3565b5060050180546001600160801b0319166001600160801b0394909416939093179092555050505050565b610f746111d7565b6001600160a01b038116610fd95760405162461bcd60e51b815260206004820152602660248201527f4f776e61626c653a206e6577206f776e657220697320746865207a65726f206160448201526564647265737360d01b6064820152608401610689565b6105ae81611424565b600080610fee836112ac565b80549091506001600160a01b03161580159061100d5750428160010154115b9392505050565b61101c6111d7565b61102581611231565b6105ae816114cf565b6006805461103b90611bfd565b80601f016020809104026020016040519081016040528092919081815260200182805461106790611bfd565b80156110b45780601f10611089576101008083540402835291602001916110b4565b820191906000526020600020905b81548152906001019060200180831161109757829003601f168201915b505050505081565b60078161038481106110cd57600080fd5b6006020180546001820154600283015460408051606081019091526003850180546001600160801b031682526004860180546001600160a01b039096169750939560ff808516966101009095041694909360208401919061112d90611bfd565b80601f016020809104026020016040519081016040528092919081815260200182805461115990611bfd565b80156111a65780601f1061117b576101008083540402835291602001916111a6565b820191906000526020600020905b81548152906001019060200180831161118957829003601f168201915b5050509183525050600291909101546001600160801b0316602090910152905085565b60016105d46003600a611bc8565b6000546001600160a01b03163314610a385760405162461bcd60e51b815260206004820181905260248201527f4f776e61626c653a2063616c6c6572206973206e6f7420746865206f776e65726044820152606401610689565b61123d60016003611ad1565b61124890600a611bc8565b811015801561126e575060016112606003600a611bc8565b61126a9190611ad1565b8111155b6105ae5760405162461bcd60e51b815260206004820152600f60248201526e496e76616c6964206e756d6265722160881b6044820152606401610689565b600060076112bb606484611ad1565b61038481106112cc576112cc611be7565b6006020192915050565b6000805b6002830154610100900460ff1660018111156112f8576112f8611a15565b1492915050565b60606113156001600160a01b0383166014611594565b92915050565b6060816000036113425750506040805180820190915260018152600360fc1b602082015290565b8160005b811561136c578061135681611d83565b91506113659050600a83611db2565b9150611346565b60008167ffffffffffffffff8111156113875761138761185b565b6040519080825280601f01601f1916602001820160405280156113b1576020820181803683370190505b5090505b841561141c576113c6600183611ad1565b91506113d3600a86611dc6565b6113de906030611bd4565b60f81b8183815181106113f3576113f3611be7565b60200101906001600160f81b031916908160001a905350611415600a86611db2565b94506113b5565b949350505050565b600080546001600160a01b038381166001600160a01b0319831681178455604051919092169283917f8be0079c531659141344cd1fd0a4f28419497f9722a3daafe3b4186f6b6457e09190a35050565b808210158061148d57506000546001600160a01b031633145b610af95760405162461bcd60e51b8152602060048201526013602482015272496e73756666696369656e742066756e64732160681b6044820152606401610689565b60006114da826112ac565b80546001600160a01b031916815542600182015560028101805461ffff191690556040805160608101909152600080825291925090602082019061151d906112ff565b8152600060209182015281516003840180546001600160801b0319166001600160801b0390921691909117815590820151600484019061155d9082611cc3565b5060409190910151600290910180546001600160801b0319166001600160801b039092169190911790555050565b600060016112da565b606060006115a3836002611dda565b6115ae906002611bd4565b67ffffffffffffffff8111156115c6576115c661185b565b6040519080825280601f01601f1916602001820160405280156115f0576020820181803683370190505b509050600360fc1b8160008151811061160b5761160b611be7565b60200101906001600160f81b031916908160001a905350600f60fb1b8160018151811061163a5761163a611be7565b60200101906001600160f81b031916908160001a905350600061165e846002611dda565b611669906001611bd4565b90505b60018111156116e1576f181899199a1a9b1b9c1cb0b131b232b360811b85600f166010811061169d5761169d611be7565b1a60f81b8282815181106116b3576116b3611be7565b60200101906001600160f81b031916908160001a90535060049490941c936116da81611df1565b905061166c565b50831561100d5760405162461bcd60e51b815260206004820181905260248201527f537472696e67733a20686578206c656e67746820696e73756666696369656e746044820152606401610689565b60006020828403121561174257600080fd5b5035919050565b6000806040838503121561175c57600080fd5b50508035926020909101359150565b6000815180845260005b8181101561179157602081850181015186830182015201611775565b506000602082860101526020601f19601f83011685010191505092915050565b6000602080830181845280855180835260408601915060408160051b870101925083870160005b8281101561180657603f198886030184526117f485835161176b565b945092850192908501906001016117d8565b5092979650505050505050565b80356001600160a01b038116811461182a57600080fd5b919050565b6000806040838503121561184257600080fd5b8235915061185260208401611813565b90509250929050565b634e487b7160e01b600052604160045260246000fd5b600082601f83011261188257600080fd5b813567ffffffffffffffff8082111561189d5761189d61185b565b604051601f8301601f19908116603f011681019082821181831017156118c5576118c561185b565b816040528381528660208588010111156118de57600080fd5b836020870160208301376000602085830101528094505050505092915050565b60006020828403121561191057600080fd5b813567ffffffffffffffff81111561192757600080fd5b61141c84828501611871565b6000806040838503121561194657600080fd5b823591506020830135801515811461195d57600080fd5b809150509250929050565b80356001600160801b038116811461182a57600080fd5b6000806000806080858703121561199557600080fd5b843593506119a560208601611968565b9250604085013567ffffffffffffffff8111156119c157600080fd5b6119cd87828801611871565b9250506119dc60608601611968565b905092959194509250565b6000602082840312156119f957600080fd5b61100d82611813565b60208152600061100d602083018461176b565b634e487b7160e01b600052602160045260246000fd5b6001600160a01b0386168152602081018590528315156040820152600060028410611a6657634e487b7160e01b600052602160045260246000fd5b83606083015260a060808301526001600160801b038084511660a08401526020840151606060c0850152611a9e61010085018261176b565b90508160408601511660e085015280925050509695505050505050565b634e487b7160e01b600052601160045260246000fd5b8181038181111561131557611315611abb565b600181815b80851115611b1f578160001904821115611b0557611b05611abb565b80851615611b1257918102915b93841c9390800290611ae9565b509250929050565b600082611b3657506001611315565b81611b4357506000611315565b8160018114611b595760028114611b6357611b7f565b6001915050611315565b60ff841115611b7457611b74611abb565b50506001821b611315565b5060208310610133831016604e8410600b8410161715611ba2575081810a611315565b611bac8383611ae4565b8060001904821115611bc057611bc0611abb565b029392505050565b600061100d8383611b27565b8082018082111561131557611315611abb565b634e487b7160e01b600052603260045260246000fd5b600181811c90821680611c1157607f821691505b602082108103610a2057634e487b7160e01b600052602260045260246000fd5b60208082526023908201527f596f7520617265206e6f74206120637573746f6d65724e756d626572206f776e60408201526265722160e81b606082015260800190565b601f821115611cbe57600081815260208120601f850160051c81016020861015611c9b5750805b601f850160051c820191505b81811015611cba57828155600101611ca7565b5050505b505050565b815167ffffffffffffffff811115611cdd57611cdd61185b565b611cf181611ceb8454611bfd565b84611c74565b602080601f831160018114611d265760008415611d0e5750858301515b600019600386901b1c1916600185901b178555611cba565b600085815260208120601f198616915b82811015611d5557888601518255948401946001909101908401611d36565b5085821015611d735787850151600019600388901b60f8161c191681555b5050505050600190811b01905550565b600060018201611d9557611d95611abb565b5060010190565b634e487b7160e01b600052601260045260246000fd5b600082611dc157611dc1611d9c565b500490565b600082611dd557611dd5611d9c565b500690565b808202811582820484141761131557611315611abb565b600081611e0057611e00611abb565b50600019019056fea2646970667358221220a50116fc9f9c5a60f87c9156ad58afdd67f0994061e84c6fb6b0bfd015410e2264736f6c63430008110033",
  "immutableReferences": {},
  "source": "// SPDX-License-Identifier: MIT\n\n\npragma solidity ^0.8.7;\n\n\nimport \"@openzeppelin/contracts/utils/Strings.sol\";\nimport \"@openzeppelin/contracts/access/Ownable.sol\";\n\n\ncontract RootRouter is Ownable {\n    // ----- CUSTOM TYPES ------------------------------------------------------\n\n    enum CustomerNumberMode { Number, Pool }\n\n    struct CustomerNumber {\n        address owner;\n        uint256 subscriptionEndTime;\n        bool isBlocked;\n        CustomerNumberMode mode;\n        Router router;\n    }\n\n    struct Router {\n        uint128 chainId;\n        string adr;\n        uint128 poolCodeLength;\n    }\n\n\n\n    // ----- SETTINGS ----------------------------------------------------------\n\n    uint256 constant public POOL_CODE_LENGTH = 3;\n    uint256 constant public POOL_SIZE = 10**POOL_CODE_LENGTH - 10**(POOL_CODE_LENGTH - 1);\n    uint256 constant public MIN_NUMBER = 10**(POOL_CODE_LENGTH - 1);\n    uint256 constant public MAX_NUMBER = 10**POOL_CODE_LENGTH - 1;\n\n    uint256 public buyPrice = 10 ether;\n    uint256 public renewalOwnershipPrice = 7 ether;\n    uint256 public modeChangePrice = 5 ether;\n    uint256 public subscriptionDuration = 86400 * 365 * 10;\n    uint256 public ttl = 100;\n\n    string public sipDomain = \"sip.quic.pro\";\n\n\n\n    // ----- DATA --------------------------------------------------------------\n\n    CustomerNumber[POOL_SIZE] public pool;\n\n\n\n    // ----- HELPERS -----------------------------------------------------------\n\n    function checkNumber(uint256 number) internal pure {\n        require((number >= MIN_NUMBER) && (number <= MAX_NUMBER), \"Invalid number!\");\n    }\n\n    function checkValue(uint256 received, uint256 expected) internal view {\n        require((received >= expected) || (msg.sender == owner()), \"Insufficient funds!\");\n    }\n\n\n\n    // ----- MODIFIERS ---------------------------------------------------------\n\n    modifier onlyCustomerNumberOwner(uint256 number) {\n        checkNumber(number);\n\n        CustomerNumber storage customerNumber = getCustomerNumber(number);\n        require((msg.sender == owner()) || ((customerNumber.owner == msg.sender) && (customerNumber.subscriptionEndTime > block.timestamp)), \"You are not a customerNumber owner!\");\n        _;\n    }\n\n\n\n    // ----- UTILS -------------------------------------------------------------\n\n    function getCustomerNumber(uint256 number) internal view returns(CustomerNumber storage) {\n        return pool[number - 100];\n    }\n\n    function isNumberMode(CustomerNumber storage customerNumber) internal view returns(bool) {\n        return customerNumber.mode == CustomerNumberMode.Number;\n    }\n\n    function isPoolMode(CustomerNumber storage customerNumber) internal view returns(bool) {\n        return customerNumber.mode == CustomerNumberMode.Pool;\n    }\n\n    function hasOwner(uint256 number) public view returns(bool) {\n        CustomerNumber storage customerNumber = getCustomerNumber(number);\n        return ((customerNumber.owner != address(0)) && (customerNumber.subscriptionEndTime > block.timestamp));\n    }\n\n    function clearCustomerNumber(uint256 number) internal {\n        CustomerNumber storage customerNumber = getCustomerNumber(number);\n        customerNumber.owner = address(0);\n        customerNumber.subscriptionEndTime = block.timestamp;\n        customerNumber.isBlocked = false;\n        customerNumber.mode = CustomerNumberMode.Number;\n        customerNumber.router = Router(0, Strings.toHexString(address(0)), 0);\n    }\n\n\n\n    // ----- SMART CONTRACT MANAGEMENT ------------------------------------------\n\n    function withdraw() external onlyOwner {\n        payable(msg.sender).transfer(address(this).balance);\n    }\n\n    function setBuyPrice(uint256 newPrice) external onlyOwner {\n        buyPrice = newPrice;\n    }\n\n    function setRenewalOwnershipPrice(uint256 newPrice) external onlyOwner {\n        renewalOwnershipPrice = newPrice;\n    }\n\n    function setModeChangePrice(uint256 newPrice) external onlyOwner {\n        modeChangePrice = newPrice;\n    }\n\n    function setSubscriptionDuration(uint256 newDuration) external onlyOwner {\n        subscriptionDuration = newDuration;\n    }\n\n    function setTtl(uint256 newTtl) external onlyOwner {\n        ttl = newTtl;\n    }\n\n    function setSipDomain(string memory newSipDomain) external onlyOwner {\n        sipDomain = newSipDomain;\n    }\n\n    function takeAwayOwnership(uint256 number) external onlyOwner {\n        checkNumber(number);\n\n        clearCustomerNumber(number);\n    }\n    \n    function setExpirationTimeCustomerNumber(uint256 number, uint256 newExpirationTime) external onlyOwner {\n        checkNumber(number);\n\n        CustomerNumber storage customerNumber = getCustomerNumber(number);\n        customerNumber.subscriptionEndTime = block.timestamp + newExpirationTime;\n    }\n\n    function changeCustomerNumberStatus(uint256 number, bool isBlocked) external onlyOwner {\n        checkNumber(number);\n\n        CustomerNumber storage customerNumber = getCustomerNumber(number);\n        customerNumber.isBlocked = isBlocked;\n    }\n\n\n\n    // ----- CUSTOMER NUMBER MANAGEMENT -----------------------------------------\n    \n    function buy(uint256 number) external payable {\n        checkNumber(number);\n        checkValue(msg.value, buyPrice);\n        require(!hasOwner(number), \"The customerNumber already has an owner!\");\n\n        clearCustomerNumber(number);\n\n        CustomerNumber storage customerNumber = getCustomerNumber(number);\n        customerNumber.owner = msg.sender;\n        customerNumber.subscriptionEndTime = block.timestamp + subscriptionDuration;\n    }\n\n    function renewSubscription(uint256 number) external payable onlyCustomerNumberOwner(number) {\n        checkValue(msg.value, renewalOwnershipPrice);\n\n        CustomerNumber storage customerNumber = getCustomerNumber(number);\n        customerNumber.subscriptionEndTime += subscriptionDuration;\n    }\n\n    function changeCustomerNumberMode(uint256 number) external payable onlyCustomerNumberOwner(number) {\n        checkValue(msg.value, modeChangePrice);\n\n        CustomerNumber storage customerNumber = getCustomerNumber(number);\n        if (isNumberMode(customerNumber)) {\n            customerNumber.mode = CustomerNumberMode.Pool;\n        } else {\n            customerNumber.mode = CustomerNumberMode.Number;\n            customerNumber.router = Router(0, Strings.toHexString(address(0)), 0);\n        }\n    }\n\n    function setCustomerNumberRouter(uint256 number, uint128 chainId, string memory adr, uint128 poolCodeLength) external onlyCustomerNumberOwner(number) {\n        CustomerNumber storage customerNumber = getCustomerNumber(number);\n        require(isPoolMode(customerNumber), \"The CustomerNumber is not a pool!\");\n\n        customerNumber.router.chainId = chainId;\n        customerNumber.router.adr = adr;\n        customerNumber.router.poolCodeLength = poolCodeLength;\n    }\n\n    function transferOwnershipOfCustomerNumber(uint256 number, address newOwner) external onlyCustomerNumberOwner(number) {\n        CustomerNumber storage customerNumber = getCustomerNumber(number);\n        customerNumber.owner = newOwner;\n    }\n\n    \n\n    // ----- ROUTING ------------------------------------------------------------\n\n    function getNextNode(uint256 number) public view returns(string[] memory) {\n        checkNumber(number);\n        require(hasOwner(number), \"The number is not in service!\");\n\n        CustomerNumber storage customerNumber = getCustomerNumber(number);\n        if (isNumberMode(customerNumber)) {\n            string[] memory nextNode = new string[](4);\n            nextNode[0] = customerNumber.isBlocked ? \"0\" : \"1\";\n            nextNode[1] = \"0\";\n            nextNode[2] = Strings.toHexString(customerNumber.owner);\n            nextNode[3] = sipDomain;\n\n            return nextNode;\n        } else {\n            string[] memory nextNode = new string[](5);\n            nextNode[0] = customerNumber.isBlocked ? \"0\" : \"1\";\n            nextNode[1] = Strings.toString(customerNumber.router.poolCodeLength);\n            nextNode[2] = Strings.toString(customerNumber.router.chainId);\n            nextNode[3] = customerNumber.router.adr;\n            nextNode[4] = Strings.toString(ttl);\n\n            return nextNode;\n        }\n    }\n\n\n\n    // ----- OTHER --------------------------------------------------------------\n\n    receive() external payable {}\n}\n",
  "sourcePath": "/Users/kosrotoff/Desktop/mvts-smart-contract/contracts/RootRouter.sol",
  "compiler": {
    "name": "solc",
    "version": "0.8.17+commit.8df45f5f.Emscripten.clang"
  },
  "schemaVersion": "3.4.10",
  "updatedAt": "2022-10-31T11:57:52.231Z",
  "networkType": "ethereum",
  "devdoc": {
    "kind": "dev",
    "methods": {
      "owner()": {
        "details": "Returns the address of the current owner."
      },
      "renounceOwnership()": {
        "details": "Leaves the contract without owner. It will not be possible to call `onlyOwner` functions anymore. Can only be called by the current owner. NOTE: Renouncing ownership will leave the contract without an owner, thereby removing any functionality that is only available to the owner."
      },
      "transferOwnership(address)": {
        "details": "Transfers ownership of the contract to a new account (`newOwner`). Can only be called by the current owner."
      }
    },
    "version": 1
  },
  "userdoc": {
    "kind": "user",
    "methods": {},
    "version": 1
  }
}