{
  "contractName": "RootRouter",
  "abi": [
    {
      "inputs": [],
      "stateMutability": "nonpayable",
      "type": "constructor"
    },
    {
      "anonymous": false,
      "inputs": [
        {
          "indexed": true,
          "internalType": "address",
          "name": "previousOwner",
          "type": "address"
        },
        {
          "indexed": true,
          "internalType": "address",
          "name": "newOwner",
          "type": "address"
        }
      ],
      "name": "OwnershipTransferred",
      "type": "event"
    },
    {
      "inputs": [],
      "name": "POOL_CODE_LENGTH",
      "outputs": [
        {
          "internalType": "uint256",
          "name": "",
          "type": "uint256"
        }
      ],
      "stateMutability": "view",
      "type": "function",
      "constant": true
    },
    {
      "inputs": [],
      "name": "POOL_SIZE",
      "outputs": [
        {
          "internalType": "uint256",
          "name": "",
          "type": "uint256"
        }
      ],
      "stateMutability": "view",
      "type": "function",
      "constant": true
    },
    {
      "inputs": [],
      "name": "buyPrice",
      "outputs": [
        {
          "internalType": "uint256",
          "name": "",
          "type": "uint256"
        }
      ],
      "stateMutability": "view",
      "type": "function",
      "constant": true
    },
    {
      "inputs": [],
      "name": "defaultSipDomain",
      "outputs": [
        {
          "internalType": "string",
          "name": "",
          "type": "string"
        }
      ],
      "stateMutability": "view",
      "type": "function",
      "constant": true
    },
    {
      "inputs": [],
      "name": "defaultTtl",
      "outputs": [
        {
          "internalType": "uint256",
          "name": "",
          "type": "uint256"
        }
      ],
      "stateMutability": "view",
      "type": "function",
      "constant": true
    },
    {
      "inputs": [],
      "name": "modeChangePrice",
      "outputs": [
        {
          "internalType": "uint256",
          "name": "",
          "type": "uint256"
        }
      ],
      "stateMutability": "view",
      "type": "function",
      "constant": true
    },
    {
      "inputs": [],
      "name": "numberFreezeDuration",
      "outputs": [
        {
          "internalType": "uint256",
          "name": "",
          "type": "uint256"
        }
      ],
      "stateMutability": "view",
      "type": "function",
      "constant": true
    },
    {
      "inputs": [],
      "name": "owner",
      "outputs": [
        {
          "internalType": "address",
          "name": "",
          "type": "address"
        }
      ],
      "stateMutability": "view",
      "type": "function",
      "constant": true
    },
    {
      "inputs": [
        {
          "internalType": "uint256",
          "name": "",
          "type": "uint256"
        }
      ],
      "name": "pool",
      "outputs": [
        {
          "internalType": "bool",
          "name": "isBlocked",
          "type": "bool"
        },
        {
          "internalType": "address",
          "name": "owner",
          "type": "address"
        },
        {
          "internalType": "uint256",
          "name": "subscriptionEndTime",
          "type": "uint256"
        },
        {
          "internalType": "enum RootRouter.CustomerNumberMode",
          "name": "mode",
          "type": "uint8"
        },
        {
          "internalType": "string",
          "name": "sipDomain",
          "type": "string"
        },
        {
          "components": [
            {
              "internalType": "uint128",
              "name": "chainId",
              "type": "uint128"
            },
            {
              "internalType": "uint128",
              "name": "poolCodeLength",
              "type": "uint128"
            },
            {
              "internalType": "uint256",
              "name": "ttl",
              "type": "uint256"
            },
            {
              "internalType": "string",
              "name": "adr",
              "type": "string"
            }
          ],
          "internalType": "struct RootRouter.Router",
          "name": "router",
          "type": "tuple"
        }
      ],
      "stateMutability": "view",
      "type": "function",
      "constant": true
    },
    {
      "inputs": [],
      "name": "renounceOwnership",
      "outputs": [],
      "stateMutability": "nonpayable",
      "type": "function"
    },
    {
      "inputs": [],
      "name": "subscriptionDuration",
      "outputs": [
        {
          "internalType": "uint256",
          "name": "",
          "type": "uint256"
        }
      ],
      "stateMutability": "view",
      "type": "function",
      "constant": true
    },
    {
      "inputs": [],
      "name": "subscriptionPrice",
      "outputs": [
        {
          "internalType": "uint256",
          "name": "",
          "type": "uint256"
        }
      ],
      "stateMutability": "view",
      "type": "function",
      "constant": true
    },
    {
      "inputs": [
        {
          "internalType": "address",
          "name": "newOwner",
          "type": "address"
        }
      ],
      "name": "transferOwnership",
      "outputs": [],
      "stateMutability": "nonpayable",
      "type": "function"
    },
    {
      "inputs": [],
      "name": "getTimestamp",
      "outputs": [
        {
          "internalType": "uint256",
          "name": "",
          "type": "uint256"
        }
      ],
      "stateMutability": "view",
      "type": "function",
      "constant": true
    },
    {
      "inputs": [
        {
          "internalType": "uint256",
          "name": "number",
          "type": "uint256"
        }
      ],
      "name": "isValidNumber",
      "outputs": [
        {
          "internalType": "bool",
          "name": "",
          "type": "bool"
        }
      ],
      "stateMutability": "pure",
      "type": "function",
      "constant": true
    },
    {
      "inputs": [
        {
          "internalType": "uint256",
          "name": "number",
          "type": "uint256"
        }
      ],
      "name": "getMode",
      "outputs": [
        {
          "internalType": "enum RootRouter.CustomerNumberMode",
          "name": "",
          "type": "uint8"
        }
      ],
      "stateMutability": "view",
      "type": "function",
      "constant": true
    },
    {
      "inputs": [
        {
          "internalType": "uint256",
          "name": "number",
          "type": "uint256"
        }
      ],
      "name": "getNumberStatus",
      "outputs": [
        {
          "components": [
            {
              "internalType": "bool",
              "name": "isBlocked",
              "type": "bool"
            },
            {
              "internalType": "bool",
              "name": "isAvailable",
              "type": "bool"
            },
            {
              "internalType": "bool",
              "name": "isHolded",
              "type": "bool"
            },
            {
              "internalType": "bool",
              "name": "isAvailableForBuy",
              "type": "bool"
            },
            {
              "internalType": "uint256",
              "name": "subscriptionEndTime",
              "type": "uint256"
            },
            {
              "internalType": "uint256",
              "name": "holdingEndTime",
              "type": "uint256"
            }
          ],
          "internalType": "struct RootRouter.NumberStatus",
          "name": "",
          "type": "tuple"
        }
      ],
      "stateMutability": "view",
      "type": "function",
      "constant": true
    },
    {
      "inputs": [],
      "name": "getBlockedNumbers",
      "outputs": [
        {
          "internalType": "bool[1000]",
          "name": "",
          "type": "bool[1000]"
        }
      ],
      "stateMutability": "view",
      "type": "function",
      "constant": true
    },
    {
      "inputs": [],
      "name": "getAvailableNumbers",
      "outputs": [
        {
          "internalType": "bool[1000]",
          "name": "",
          "type": "bool[1000]"
        }
      ],
      "stateMutability": "view",
      "type": "function",
      "constant": true
    },
    {
      "inputs": [],
      "name": "getHoldedNumbers",
      "outputs": [
        {
          "internalType": "bool[1000]",
          "name": "",
          "type": "bool[1000]"
        }
      ],
      "stateMutability": "view",
      "type": "function",
      "constant": true
    },
    {
      "inputs": [],
      "name": "getAvailableForBuyNumbers",
      "outputs": [
        {
          "internalType": "bool[1000]",
          "name": "",
          "type": "bool[1000]"
        }
      ],
      "stateMutability": "view",
      "type": "function",
      "constant": true
    },
    {
      "inputs": [
        {
          "internalType": "uint256",
          "name": "number",
          "type": "uint256"
        },
        {
          "internalType": "address",
          "name": "adr",
          "type": "address"
        }
      ],
      "name": "isNumberOwner",
      "outputs": [
        {
          "internalType": "bool",
          "name": "",
          "type": "bool"
        }
      ],
      "stateMutability": "view",
      "type": "function",
      "constant": true
    },
    {
      "inputs": [
        {
          "internalType": "uint256",
          "name": "number",
          "type": "uint256"
        }
      ],
      "name": "isAvailable",
      "outputs": [
        {
          "internalType": "bool",
          "name": "",
          "type": "bool"
        }
      ],
      "stateMutability": "view",
      "type": "function",
      "constant": true
    },
    {
      "inputs": [
        {
          "internalType": "uint256",
          "name": "number",
          "type": "uint256"
        }
      ],
      "name": "isBlocked",
      "outputs": [
        {
          "internalType": "bool",
          "name": "",
          "type": "bool"
        }
      ],
      "stateMutability": "view",
      "type": "function",
      "constant": true
    },
    {
      "inputs": [
        {
          "internalType": "uint256",
          "name": "number",
          "type": "uint256"
        }
      ],
      "name": "isHolded",
      "outputs": [
        {
          "internalType": "bool",
          "name": "",
          "type": "bool"
        }
      ],
      "stateMutability": "view",
      "type": "function",
      "constant": true
    },
    {
      "inputs": [
        {
          "internalType": "uint256",
          "name": "number",
          "type": "uint256"
        }
      ],
      "name": "isAvailableForBuy",
      "outputs": [
        {
          "internalType": "bool",
          "name": "",
          "type": "bool"
        }
      ],
      "stateMutability": "view",
      "type": "function",
      "constant": true
    },
    {
      "inputs": [],
      "name": "withdraw",
      "outputs": [],
      "stateMutability": "nonpayable",
      "type": "function"
    },
    {
      "inputs": [
        {
          "internalType": "uint256",
          "name": "newBuyPrice",
          "type": "uint256"
        }
      ],
      "name": "setBuyPrice",
      "outputs": [],
      "stateMutability": "nonpayable",
      "type": "function"
    },
    {
      "inputs": [
        {
          "internalType": "uint256",
          "name": "newSubscriptionPrice",
          "type": "uint256"
        }
      ],
      "name": "setSubscriptionPrice",
      "outputs": [],
      "stateMutability": "nonpayable",
      "type": "function"
    },
    {
      "inputs": [
        {
          "internalType": "uint256",
          "name": "newModeChangePrice",
          "type": "uint256"
        }
      ],
      "name": "setModeChangePrice",
      "outputs": [],
      "stateMutability": "nonpayable",
      "type": "function"
    },
    {
      "inputs": [
        {
          "internalType": "uint256",
          "name": "newSubscriptionDuration",
          "type": "uint256"
        }
      ],
      "name": "setSubscriptionDuration",
      "outputs": [],
      "stateMutability": "nonpayable",
      "type": "function"
    },
    {
      "inputs": [
        {
          "internalType": "uint256",
          "name": "newNumberFreezeDuration",
          "type": "uint256"
        }
      ],
      "name": "setNumberFreezeDuration",
      "outputs": [],
      "stateMutability": "nonpayable",
      "type": "function"
    },
    {
      "inputs": [
        {
          "internalType": "uint256",
          "name": "newDefaultTtl",
          "type": "uint256"
        }
      ],
      "name": "setDefaultTtl",
      "outputs": [],
      "stateMutability": "nonpayable",
      "type": "function"
    },
    {
      "inputs": [
        {
          "internalType": "string",
          "name": "newDefaultSipDomain",
          "type": "string"
        }
      ],
      "name": "setDefaultSipDomain",
      "outputs": [],
      "stateMutability": "nonpayable",
      "type": "function"
    },
    {
      "inputs": [
        {
          "internalType": "uint256",
          "name": "number",
          "type": "uint256"
        }
      ],
      "name": "takeAwayOwnership",
      "outputs": [],
      "stateMutability": "nonpayable",
      "type": "function"
    },
    {
      "inputs": [
        {
          "internalType": "uint256",
          "name": "number",
          "type": "uint256"
        },
        {
          "internalType": "bool",
          "name": "newBlockedStatus",
          "type": "bool"
        }
      ],
      "name": "setBlockedStatus",
      "outputs": [],
      "stateMutability": "nonpayable",
      "type": "function"
    },
    {
      "inputs": [
        {
          "internalType": "uint256",
          "name": "number",
          "type": "uint256"
        },
        {
          "internalType": "uint256",
          "name": "newExpirationTime",
          "type": "uint256"
        }
      ],
      "name": "setExpirationTime",
      "outputs": [],
      "stateMutability": "nonpayable",
      "type": "function"
    },
    {
      "inputs": [
        {
          "internalType": "uint256",
          "name": "number",
          "type": "uint256"
        }
      ],
      "name": "buy",
      "outputs": [],
      "stateMutability": "payable",
      "type": "function",
      "payable": true
    },
    {
      "inputs": [
        {
          "internalType": "uint256",
          "name": "number",
          "type": "uint256"
        }
      ],
      "name": "renewSubscription",
      "outputs": [
        {
          "internalType": "string[1]",
          "name": "",
          "type": "string[1]"
        }
      ],
      "stateMutability": "payable",
      "type": "function",
      "payable": true
    },
    {
      "inputs": [
        {
          "internalType": "uint256",
          "name": "number",
          "type": "uint256"
        },
        {
          "internalType": "address",
          "name": "newOwner",
          "type": "address"
        }
      ],
      "name": "transferOwnershipOfCustomerNumber",
      "outputs": [
        {
          "internalType": "string[1]",
          "name": "",
          "type": "string[1]"
        }
      ],
      "stateMutability": "nonpayable",
      "type": "function"
    },
    {
      "inputs": [
        {
          "internalType": "uint256",
          "name": "number",
          "type": "uint256"
        }
      ],
      "name": "renounceOwnershipOfCustomerNumber",
      "outputs": [
        {
          "internalType": "string[1]",
          "name": "",
          "type": "string[1]"
        }
      ],
      "stateMutability": "nonpayable",
      "type": "function"
    },
    {
      "inputs": [
        {
          "internalType": "uint256",
          "name": "number",
          "type": "uint256"
        }
      ],
      "name": "changeCustomerNumberMode",
      "outputs": [
        {
          "internalType": "string[1]",
          "name": "",
          "type": "string[1]"
        }
      ],
      "stateMutability": "payable",
      "type": "function",
      "payable": true
    },
    {
      "inputs": [
        {
          "internalType": "uint256",
          "name": "number",
          "type": "uint256"
        },
        {
          "internalType": "string",
          "name": "newSipDomain",
          "type": "string"
        }
      ],
      "name": "setCustomerNumberSipDomain",
      "outputs": [
        {
          "internalType": "string[1]",
          "name": "",
          "type": "string[1]"
        }
      ],
      "stateMutability": "nonpayable",
      "type": "function"
    },
    {
      "inputs": [
        {
          "internalType": "uint256",
          "name": "number",
          "type": "uint256"
        }
      ],
      "name": "clearCustomerNumberSipDomain",
      "outputs": [
        {
          "internalType": "string[1]",
          "name": "",
          "type": "string[1]"
        }
      ],
      "stateMutability": "nonpayable",
      "type": "function"
    },
    {
      "inputs": [
        {
          "internalType": "uint256",
          "name": "number",
          "type": "uint256"
        },
        {
          "components": [
            {
              "internalType": "uint128",
              "name": "chainId",
              "type": "uint128"
            },
            {
              "internalType": "uint128",
              "name": "poolCodeLength",
              "type": "uint128"
            },
            {
              "internalType": "uint256",
              "name": "ttl",
              "type": "uint256"
            },
            {
              "internalType": "string",
              "name": "adr",
              "type": "string"
            }
          ],
          "internalType": "struct RootRouter.Router",
          "name": "newRouter",
          "type": "tuple"
        }
      ],
      "name": "setCustomerNumberRouter",
      "outputs": [
        {
          "internalType": "string[1]",
          "name": "",
          "type": "string[1]"
        }
      ],
      "stateMutability": "nonpayable",
      "type": "function"
    },
    {
      "inputs": [
        {
          "internalType": "uint256",
          "name": "number",
          "type": "uint256"
        }
      ],
      "name": "clearCustomerNumberRouter",
      "outputs": [
        {
          "internalType": "string[1]",
          "name": "",
          "type": "string[1]"
        }
      ],
      "stateMutability": "nonpayable",
      "type": "function"
    },
    {
      "inputs": [
        {
          "internalType": "uint256",
          "name": "number",
          "type": "uint256"
        },
        {
          "internalType": "uint256",
          "name": "newTtl",
          "type": "uint256"
        }
      ],
      "name": "setCustomerNumberRouterTtl",
      "outputs": [
        {
          "internalType": "string[1]",
          "name": "",
          "type": "string[1]"
        }
      ],
      "stateMutability": "nonpayable",
      "type": "function"
    },
    {
      "inputs": [
        {
          "internalType": "uint256",
          "name": "number",
          "type": "uint256"
        }
      ],
      "name": "clearCustomerNumberRouterTtl",
      "outputs": [
        {
          "internalType": "string[1]",
          "name": "",
          "type": "string[1]"
        }
      ],
      "stateMutability": "nonpayable",
      "type": "function"
    },
    {
      "inputs": [
        {
          "internalType": "uint256",
          "name": "number",
          "type": "uint256"
        }
      ],
      "name": "getNextNode",
      "outputs": [
        {
          "internalType": "string[5]",
          "name": "",
          "type": "string[5]"
        }
      ],
      "stateMutability": "view",
      "type": "function",
      "constant": true
    }
  ],
  "bytecode": "0x678ac7230489e80000600155676124fee993bc0000600255674563918244f400006003556312cea6006004556276a700600555620d2f0060065560c0604052600c60808190526b7369702e717569632e70726f60a01b60a090815262000069916007919062000149565b503480156200007757600080fd5b506200008333620000e4565b60005b6064811015620000dd5760016008826103e88110620000a957620000a962000253565b60070201805460ff1916911515919091179055620000d581600162000134602090811b6200232617901c565b905062000086565b5062000269565b600080546001600160a01b038381166001600160a01b0319831681178455604051919092169283917f8be0079c531659141344cd1fd0a4f28419497f9722a3daafe3b4186f6b6457e09190a35050565b6000620001428284620001ef565b9392505050565b828054620001579062000216565b90600052602060002090601f0160209004810192826200017b5760008555620001c6565b82601f106200019657805160ff1916838001178555620001c6565b82800160010185558215620001c6579182015b82811115620001c6578251825591602001919060010190620001a9565b50620001d4929150620001d8565b5090565b5b80821115620001d45760008155600101620001d9565b600082198211156200021157634e487b7160e01b600052601160045260246000fd5b500190565b600181811c908216806200022b57607f821691505b602082108114156200024d57634e487b7160e01b600052602260045260246000fd5b50919050565b634e487b7160e01b600052603260045260246000fd5b612fad80620002796000396000f3fe6080604052600436106102ae5760003560e01c80637f948ba611610175578063bb486d75116100dc578063d96a094a11610095578063e055b5271161006f578063e055b52714610850578063f2fde38b14610865578063f5415ac814610885578063fe313112146108a557600080fd5b8063d96a094a146107fd578063db0c81b514610810578063e03b53e01461083057600080fd5b8063bb486d7514610773578063bdc8e54c14610788578063bf5247211461079e578063c8c1b94e146107b4578063cac3c4d2146107ca578063d71bb37b146107ea57600080fd5b8063a2f33b261161012e578063a2f33b26146106cb578063a91b5367146106eb578063b0aa98c71461070b578063b2f5adb61461072b578063b4d3d4c214610740578063b99305651461076057600080fd5b80637f948ba61461061457806382e7a976146106295780638620410b1461064b5780638da5cb5b1461066157806390c8125d1461068957806399b70e71146106a957600080fd5b80635aeb14b9116102195780636d902bfb116101d25780636d902bfb1461055c5780636dd2c31914610589578063715018a6146105a95780637776fb8f146105be578063781c8580146105de5780637a94a633146105fe57600080fd5b80635aeb14b91461049c5780635d554816146104bc57806363514e87146104dc57806363ae8d6c146104fc578063666263291461051c5780636b1971c11461053c57600080fd5b80633a721a961161026b5780633a721a961461038e5780633ccfd60b146103bb578063442b9738146103d057806349b81dba146103f25780634f9daac61461041257806350c3799f1461042857600080fd5b806306d92a27146102b3578063188ec356146102dc5780631a5ee779146102ef578063325296f71461031157806334292f80146103315780633a178d991461035e575b600080fd5b3480156102bf57600080fd5b506102c960065481565b6040519081526020015b60405180910390f35b3480156102e857600080fd5b50426102c9565b3480156102fb57600080fd5b5061030f61030a366004612af0565b6108d7565b005b34801561031d57600080fd5b5061030f61032c366004612af0565b6108e4565b34801561033d57600080fd5b5061035161034c366004612af0565b6108f1565b6040516102d39190612d32565b34801561036a57600080fd5b5061037e610379366004612af0565b610a42565b60405190151581526020016102d3565b34801561039a57600080fd5b506103ae6103a9366004612af0565b610a9a565b6040516102d39190612e52565b3480156103c757600080fd5b5061030f610ae8565b3480156103dc57600080fd5b506103e5610b2d565b6040516102d39190612cfd565b3480156103fe57600080fd5b5061035161040d366004612c6c565b610b88565b34801561041e57600080fd5b506102c96103e881565b34801561043457600080fd5b50610448610443366004612af0565b610cbf565b6040516102d39190600060c0820190508251151582526020830151151560208301526040830151151560408301526060830151151560608301526080830151608083015260a083015160a083015292915050565b3480156104a857600080fd5b5061030f6104b7366004612af0565b610dad565b3480156104c857600080fd5b506103516104d7366004612af0565b610dba565b3480156104e857600080fd5b5061030f6104f7366004612ab3565b610ef9565b34801561050857600080fd5b5061030f610517366004612af0565b610f18565b34801561052857600080fd5b50610351610537366004612af0565b610f25565b34801561054857600080fd5b5061037e610557366004612af0565b61105c565b34801561056857600080fd5b5061057c610577366004612af0565b6110a5565b6040516102d39190612d7f565b34801561059557600080fd5b506103516105a4366004612af0565b61158d565b3480156105b557600080fd5b5061030f61162b565b3480156105ca57600080fd5b506103516105d9366004612b6a565b61163f565b3480156105ea57600080fd5b506103516105f9366004612b09565b61175b565b34801561060a57600080fd5b506102c960045481565b34801561062057600080fd5b506103e5611875565b34801561063557600080fd5b5061037e610644366004612af0565b6103e81190565b34801561065757600080fd5b506102c960015481565b34801561066d57600080fd5b506000546040516001600160a01b0390911681526020016102d3565b34801561069557600080fd5b5061037e6106a4366004612af0565b6118ca565b3480156106b557600080fd5b506106be611913565b6040516102d39190612e60565b3480156106d757600080fd5b5061030f6106e6366004612b35565b6119a1565b3480156106f757600080fd5b5061037e610706366004612b09565b6119fe565b34801561071757600080fd5b5061037e610726366004612af0565b611a4f565b34801561073757600080fd5b506102c9600381565b34801561074c57600080fd5b5061035161075b366004612bb1565b611a9a565b61035161076e366004612af0565b611c1a565b34801561077f57600080fd5b506103e5611d7b565b34801561079457600080fd5b506102c960025481565b3480156107aa57600080fd5b506102c960055481565b3480156107c057600080fd5b506102c960035481565b3480156107d657600080fd5b5061030f6107e5366004612af0565b611dd0565b6103516107f8366004612af0565b611ddd565b61030f61080b366004612af0565b611eeb565b34801561081c57600080fd5b5061030f61082b366004612c6c565b612012565b34801561083c57600080fd5b5061030f61084b366004612af0565b612071565b34801561085c57600080fd5b506103e561207e565b34801561087157600080fd5b5061030f610880366004612a98565b6120d3565b34801561089157600080fd5b5061030f6108a0366004612af0565b612149565b3480156108b157600080fd5b506108c56108c0366004612af0565b612181565b6040516102d396959493929190612dc0565b6108df612332565b600255565b6108ec612332565b600655565b6108f96128a4565b610904826103e81190565b610931575050604080516060810182526003602082019081526203430360ec1b9282019290925290815290565b60006008836103e8811061094757610947612f4b565b600702019050610957813361238c565b610986575050604080516060810182526003602082019081526203430360ec1b92820192909252908152919050565b61098f816123da565b156109bf575050604080516060810182526003602082019081526203430360ec1b92820192909252908152919050565b6109c88161241e565b6109f7575050604080516060810182526003602082019081526203430360ec1b92820192909252908152919050565b6000600482018181556005830182905590610a1560068401826128cb565b5050604080516060810182526003602082019081526203230360ec1b928201929092529081529392505050565b6000610a4f826103e81190565b610a745760405162461bcd60e51b8152600401610a6b90612e73565b60405180910390fd5b610a946008836103e88110610a8b57610a8b612f4b565b60070201612443565b92915050565b6000610aa7826103e81190565b610ac35760405162461bcd60e51b8152600401610a6b90612e73565b6008826103e88110610ad757610ad7612f4b565b600702016002015460ff1692915050565b610af0612332565b600080546040516001600160a01b03909116914780156108fc02929091818181858888f19350505050158015610b2a573d6000803e3d6000fd5b50565b610b35612905565b610b3d612905565b60005b6103e8811015610b8257610b53816118ca565b82826103e88110610b6657610b66612f4b565b91151560209092020152610b7b816001612326565b9050610b40565b50919050565b610b906128a4565b610b9b836103e81190565b610bc95750604080516060810182526003602082019081526203430360ec1b92820192909252908152610a94565b60006008846103e88110610bdf57610bdf612f4b565b600702019050610bef813361238c565b610c1e575050604080516060810182526003602082019081526203430360ec1b92820192909252908152610a94565b610c27816123da565b15610c57575050604080516060810182526003602082019081526203430360ec1b92820192909252908152610a94565b610c608161241e565b610c8f575050604080516060810182526003602082019081526203430360ec1b92820192909252908152610a94565b600501919091555050604080516060810182526003602082019081526203230360ec1b9282019290925290815290565b6040805160c081018252600080825260208201819052918101829052606081018290526080810182905260a0810191909152610cfc826103e81190565b610d185760405162461bcd60e51b8152600401610a6b90612e73565b60006008836103e88110610d2e57610d2e612f4b565b6007020190506040518060c00160405280610d4a835460ff1690565b15158152602001610d5a83612443565b15158152602001610d6a836123da565b15158152602001610d7a83612467565b1515815260200182600101548152602001610da4600554846001015461232690919063ffffffff16565b90529392505050565b610db5612332565b600555565b610dc26128a4565b610dcd826103e81190565b610dfa575050604080516060810182526003602082019081526203430360ec1b9282019290925290815290565b60006008836103e88110610e1057610e10612f4b565b600702019050610e20813361238c565b610e4f575050604080516060810182526003602082019081526203430360ec1b92820192909252908152919050565b610e58816123da565b15610e88575050604080516060810182526003602082019081526203430360ec1b92820192909252908152919050565b610e9181612497565b610ec0575050604080516060810182526003602082019081526203430360ec1b92820192909252908152919050565b610ece6003820160006128cb565b5050604080516060810182526003602082019081526203230360ec1b92820192909252908152919050565b610f01612332565b8051610f14906007906020840190612925565b5050565b610f20612332565b600155565b610f2d6128a4565b610f38826103e81190565b610f65575050604080516060810182526003602082019081526203430360ec1b9282019290925290815290565b60006008836103e88110610f7b57610f7b612f4b565b600702019050610f8b813361238c565b610fba575050604080516060810182526003602082019081526203430360ec1b92820192909252908152919050565b610fc3816123da565b15610ff3575050604080516060810182526003602082019081526203430360ec1b92820192909252908152919050565b610ffc8161241e565b61102b575050604080516060810182526003602082019081526203430360ec1b92820192909252908152919050565b60006005909101555050604080516060810182526003602082019081526203230360ec1b9282019290925290815290565b6000611069826103e81190565b6110855760405162461bcd60e51b8152600401610a6b90612e73565b610a946008836103e8811061109c5761109c612f4b565b60070201612467565b6110ad6129a9565b6110b8826103e81190565b6111265750506040805160e081018252600360a082019081526203430360ec1b60c08301528152815160208181018452600080835281840192909252835180820185528281528385015283518082018552828152606084015283519081019093528252608081019190915290565b60006008836103e8811061113c5761113c612f4b565b60070201905061114d815460ff1690565b156111be5750506040805160e081018252600360a082019081526203430360ec1b60c083015281528151602081810184526000808352818401929092528351808201855282815283850152835180820185528281526060840152835190810190935282526080810191909152919050565b6111c781612443565b156112385750506040805160e081018252600360a082019081526203430360ec1b60c083015281528151602081810184526000808352818401929092528351808201855282815283850152835180820185528281526060840152835190810190935282526080810191909152919050565b611241816123da565b156112b25750506040805160e081018252600360a082019081526203430360ec1b60c083015281528151602081810184526000808352818401929092528351808201855282815283850152835180820185528281526060840152835190810190935282526080810191909152919050565b6112bb81612497565b1561146b576040805160e081018252600360a082019081526203230360ec1b60c083015281528151808301835260018152600360fc1b6020808301919091528201528254909182019061131b9061010090046001600160a01b031661249f565b81526020016113b583600301805461133290612eea565b80601f016020809104026020016040519081016040528092919081815260200182805461135e90612eea565b80156113ab5780601f10611380576101008083540402835291602001916113ab565b820191906000526020600020905b81548152906001019060200180831161138e57829003601f168201915b5050505050511590565b6113c257826003016113c5565b60075b80546113d090612eea565b80601f01602080910402602001604051908101604052809291908181526020018280546113fc90612eea565b80156114495780601f1061141e57610100808354040283529160200191611449565b820191906000526020600020905b81548152906001019060200180831161142c57829003601f168201915b5050509183525050604080516020818101909252600081529101529392505050565b6040805160e08101909152600360a082019081526203230360ec1b60c08301528152600482015460208201906114b090600160801b90046001600160801b03166124b5565b815260048301546020909101906114cf906001600160801b03166124b5565b81526020018260040160020180546114e690612eea565b80601f016020809104026020016040519081016040528092919081815260200182805461151290612eea565b801561155f5780601f106115345761010080835404028352916020019161155f565b820191906000526020600020905b81548152906001019060200180831161154257829003601f168201915b50505050508152602001610da483600401600101546000146115855760058401546124b5565b6006546124b5565b6115956128a4565b6115a0826103e81190565b6115cd575050604080516060810182526003602082019081526203430360ec1b9282019290925290815290565b60006008836103e881106115e3576115e3612f4b565b6007020190506115f3813361238c565b611622575050604080516060810182526003602082019081526203430360ec1b92820192909252908152919050565b610ece83612552565b611633612332565b61163d60006125bf565b565b6116476128a4565b611652836103e81190565b6116805750604080516060810182526003602082019081526203430360ec1b92820192909252908152610a94565b60006008846103e8811061169657611696612f4b565b6007020190506116a6813361238c565b6116d5575050604080516060810182526003602082019081526203430360ec1b92820192909252908152610a94565b6116de816123da565b1561170e575050604080516060810182526003602082019081526203430360ec1b92820192909252908152610a94565b61171781612497565b611746575050604080516060810182526003602082019081526203430360ec1b92820192909252908152610a94565b8251610a159060038301906020860190612925565b6117636128a4565b61176e836103e81190565b61179c5750604080516060810182526003602082019081526203430360ec1b92820192909252908152610a94565b60006008846103e881106117b2576117b2612f4b565b6007020190506117c2813361238c565b6117f1575050604080516060810182526003602082019081526203430360ec1b92820192909252908152610a94565b6117fa816123da565b1561182a575050604080516060810182526003602082019081526203430360ec1b92820192909252908152610a94565b80546001600160a01b03841661010002610100600160a81b031990911617905550604080516060810182526003602082019081526203230360ec1b9282019290925290815292915050565b61187d612905565b611885612905565b60005b6103e8811015610b825761189b81611a4f565b82826103e881106118ae576118ae612f4b565b911515602090920201526118c3816001612326565b9050611888565b60006118d7826103e81190565b6118f35760405162461bcd60e51b8152600401610a6b90612e73565b610a946008836103e8811061190a5761190a612f4b565b600702016123da565b6007805461192090612eea565b80601f016020809104026020016040519081016040528092919081815260200182805461194c90612eea565b80156119995780601f1061196e57610100808354040283529160200191611999565b820191906000526020600020905b81548152906001019060200180831161197c57829003601f168201915b505050505081565b6119a9612332565b6119b4826103e81190565b6119d05760405162461bcd60e51b8152600401610a6b90612e73565b60006008836103e881106119e6576119e6612f4b565b60070201805460ff1916921515929092179091555050565b6000611a0b836103e81190565b611a275760405162461bcd60e51b8152600401610a6b90612e73565b611a486008846103e88110611a3e57611a3e612f4b565b600702018361238c565b9392505050565b6000611a5c826103e81190565b611a785760405162461bcd60e51b8152600401610a6b90612e73565b610a946008836103e88110611a8f57611a8f612f4b565b600702015460ff1690565b611aa26128a4565b611aad836103e81190565b611adb5750604080516060810182526003602082019081526203430360ec1b92820192909252908152610a94565b60006008846103e88110611af157611af1612f4b565b600702019050611b01813361238c565b611b30575050604080516060810182526003602082019081526203430360ec1b92820192909252908152610a94565b611b39816123da565b15611b69575050604080516060810182526003602082019081526203430360ec1b92820192909252908152610a94565b611b728161241e565b611ba1575050604080516060810182526003602082019081526203430360ec1b92820192909252908152610a94565b82516020808501516001600160801b03908116600160801b029216919091176004830190815560408501516005840155606085015180518693611beb926006870192910190612925565b5050604080516060810182526003602082019081526203230360ec1b9282019290925290815295945050505050565b611c226128a4565b611c2d826103e81190565b611c5a575050604080516060810182526003602082019081526203430360ec1b9282019290925290815290565b611c666003543461260f565b611c93575050604080516060810182526003602082019081526203430360ec1b9282019290925290815290565b60006008836103e88110611ca957611ca9612f4b565b600702019050611cb9813361238c565b611ce8575050604080516060810182526003602082019081526203430360ec1b92820192909252908152919050565b611cf1816123da565b15611d21575050604080516060810182526003602082019081526203430360ec1b92820192909252908152919050565b611d2a81612497565b15611d515760028101805460ff19166001179055611d4c6003820160006128cb565b610ece565b60028101805460ff191690556000600482018181556005830182905590610a1560068401826128cb565b611d83612905565b611d8b612905565b60005b6103e8811015610b8257611da181610a42565b82826103e88110611db457611db4612f4b565b91151560209092020152611dc9816001612326565b9050611d8e565b611dd8612332565b600455565b611de56128a4565b611df0826103e81190565b611e1d575050604080516060810182526003602082019081526203430360ec1b9282019290925290815290565b611e296002543461260f565b611e56575050604080516060810182526003602082019081526203430360ec1b9282019290925290815290565b60006008836103e88110611e6c57611e6c612f4b565b600702019050611e7c813361238c565b611eab575050604080516060810182526003602082019081526203430360ec1b92820192909252908152919050565b6004546001820154611ebc91612326565b6001909101555050604080516060810182526003602082019081526203230360ec1b9282019290925290815290565b611ef6816103e81190565b611f125760405162461bcd60e51b8152600401610a6b90612e73565b611f1e6001543461260f565b611f605760405162461bcd60e51b8152602060048201526013602482015272496e73756666696369656e742066756e64732160681b6044820152606401610a6b565b60006008826103e88110611f7657611f76612f4b565b600702019050611f8581612467565b611fdd5760405162461bcd60e51b8152602060048201526024808201527f546865206e756d626572206973206e6f7420617661696c61626c6520666f72206044820152636275792160e01b6064820152608401610a6b565b611fe682612552565b8054610100600160a81b0319163361010002178155600454612009904290612326565b60019091015550565b61201a612332565b612025826103e81190565b6120415760405162461bcd60e51b8152600401610a6b90612e73565b60006008836103e8811061205757612057612f4b565b6007020190506120674283612326565b6001909101555050565b612079612332565b600355565b612086612905565b61208e612905565b60005b6103e8811015610b82576120a48161105c565b82826103e881106120b7576120b7612f4b565b911515602090920201526120cc816001612326565b9050612091565b6120db612332565b6001600160a01b0381166121405760405162461bcd60e51b815260206004820152602660248201527f4f776e61626c653a206e6577206f776e657220697320746865207a65726f206160448201526564647265737360d01b6064820152608401610a6b565b610b2a816125bf565b612151612332565b61215c816103e81190565b6121785760405162461bcd60e51b8152600401610a6b90612e73565b610b2a81612552565b6008816103e8811061219257600080fd5b6007020180546001820154600283015460038401805460ff80861697506101009095046001600160a01b031695939490921692916121cf90612eea565b80601f01602080910402602001604051908101604052809291908181526020018280546121fb90612eea565b80156122485780601f1061221d57610100808354040283529160200191612248565b820191906000526020600020905b81548152906001019060200180831161222b57829003601f168201915b5050604080516080810182526004870180546001600160801b038082168452600160801b90910416602083015260058801549282019290925260068701805496979691955091935060608501925061229f90612eea565b80601f01602080910402602001604051908101604052809291908181526020018280546122cb90612eea565b80156123185780601f106122ed57610100808354040283529160200191612318565b820191906000526020600020905b8154815290600101906020018083116122fb57829003601f168201915b505050505081525050905086565b6000611a488284612e9c565b6000546001600160a01b0316331461163d5760405162461bcd60e51b815260206004820181905260248201527f4f776e61626c653a2063616c6c6572206973206e6f7420746865206f776e65726044820152606401610a6b565b600080546001600160a01b0383811691161480611a48575082546001600160a01b0383811661010090920416148015611a48575060055460018401546123d191612326565b42109392505050565b805460009061010090046001600160a01b0316158015906123fe5750816001015442115b8015610a945750600554600183015461241691612326565b421092915050565b600060015b600283015460ff16600181111561243c5761243c612f35565b1492915050565b805460009061010090046001600160a01b03161580610a9457505060010154421190565b600061247282612443565b80156124805750815460ff16155b8015610a945750612490826123da565b1592915050565b600080612423565b6060610a946001600160a01b0383166014612630565b606060006124c2836127cc565b600101905060008167ffffffffffffffff8111156124e2576124e2612f61565b6040519080825280601f01601f19166020018201604052801561250c576020820181803683370190505b5090508181016020015b600019016f181899199a1a9b1b9c1cb0b131b232b360811b600a86061a8153600a85049450846125455761254a565b612516565b509392505050565b6008816103e8811061256657612566612f4b565b6007020180546001600160a81b031916815560006001820181905560028201805460ff1916905561259a60038301826128cb565b60006004830181815560058401829055906125b860068501826128cb565b5050505050565b600080546001600160a01b038381166001600160a01b0319831681178455604051919092169283917f8be0079c531659141344cd1fd0a4f28419497f9722a3daafe3b4186f6b6457e09190a35050565b60008282101580611a485750506000546001600160a01b0316331492915050565b6060600061263f836002612eb4565b61264a906002612e9c565b67ffffffffffffffff81111561266257612662612f61565b6040519080825280601f01601f19166020018201604052801561268c576020820181803683370190505b509050600360fc1b816000815181106126a7576126a7612f4b565b60200101906001600160f81b031916908160001a905350600f60fb1b816001815181106126d6576126d6612f4b565b60200101906001600160f81b031916908160001a90535060006126fa846002612eb4565b612705906001612e9c565b90505b600181111561277d576f181899199a1a9b1b9c1cb0b131b232b360811b85600f166010811061273957612739612f4b565b1a60f81b82828151811061274f5761274f612f4b565b60200101906001600160f81b031916908160001a90535060049490941c9361277681612ed3565b9050612708565b508315611a485760405162461bcd60e51b815260206004820181905260248201527f537472696e67733a20686578206c656e67746820696e73756666696369656e746044820152606401610a6b565b60008072184f03e93ff9f4daa797ed6e38ed64bf6a1f0160401b831061280b5772184f03e93ff9f4daa797ed6e38ed64bf6a1f0160401b830492506040015b6d04ee2d6d415b85acef81000000008310612837576d04ee2d6d415b85acef8100000000830492506020015b662386f26fc10000831061285557662386f26fc10000830492506010015b6305f5e100831061286d576305f5e100830492506008015b612710831061288157612710830492506004015b60648310612893576064830492506002015b600a8310610a945760010192915050565b60405180602001604052806001905b60608152602001906001900390816128b35790505090565b5080546128d790612eea565b6000825580601f106128e7575050565b601f016020900490600052602060002090810190610b2a91906129c3565b60405180617d0001604052806103e8906020820280368337509192915050565b82805461293190612eea565b90600052602060002090601f0160209004810192826129535760008555612999565b82601f1061296c57805160ff1916838001178555612999565b82800160010185558215612999579182015b8281111561299957825182559160200191906001019061297e565b506129a59291506129c3565b5090565b6040805160a08101909152606081526004602082016128b3565b5b808211156129a557600081556001016129c4565b80356001600160a01b03811681146129ef57600080fd5b919050565b600082601f830112612a0557600080fd5b813567ffffffffffffffff80821115612a2057612a20612f61565b604051601f8301601f19908116603f01168101908282118183101715612a4857612a48612f61565b81604052838152866020858801011115612a6157600080fd5b836020870160208301376000602085830101528094505050505092915050565b80356001600160801b03811681146129ef57600080fd5b600060208284031215612aaa57600080fd5b611a48826129d8565b600060208284031215612ac557600080fd5b813567ffffffffffffffff811115612adc57600080fd5b612ae8848285016129f4565b949350505050565b600060208284031215612b0257600080fd5b5035919050565b60008060408385031215612b1c57600080fd5b82359150612b2c602084016129d8565b90509250929050565b60008060408385031215612b4857600080fd5b8235915060208301358015158114612b5f57600080fd5b809150509250929050565b60008060408385031215612b7d57600080fd5b82359150602083013567ffffffffffffffff811115612b9b57600080fd5b612ba7858286016129f4565b9150509250929050565b60008060408385031215612bc457600080fd5b82359150602083013567ffffffffffffffff80821115612be357600080fd5b9084019060808287031215612bf757600080fd5b604051608081018181108382111715612c1257612c12612f61565b604052612c1e83612a81565b8152612c2c60208401612a81565b602082015260408301356040820152606083013582811115612c4d57600080fd5b612c59888286016129f4565b6060830152508093505050509250929050565b60008060408385031215612c7f57600080fd5b50508035926020909101359150565b60028110612cac57634e487b7160e01b600052602160045260246000fd5b9052565b6000815180845260005b81811015612cd657602081850181015186830182015201612cba565b81811115612ce8576000602083870101525b50601f01601f19169290920160200192915050565b617d008101818360005b6103e8811015612d295781511515835260209283019290910190600101612d07565b50505092915050565b60208082526000906040830183820185845b6001811015612d7357601f19878503018352612d61848351612cb0565b93509184019190840190600101612d44565b50919695505050505050565b602080825260009060c0830183820185845b6005811015612d7357601f19878503018352612dae848351612cb0565b93509184019190840190600101612d91565b86151581526001600160a01b038616602082015260408101859052612de86060820185612c8e565b60c060808201526000612dfe60c0830185612cb0565b82810360a08401526001600160801b038085511682528060208601511660208301525060408401516040820152606084015160806060830152612e446080830182612cb0565b9a9950505050505050505050565b60208101610a948284612c8e565b602081526000611a486020830184612cb0565b6020808252600f908201526e496e76616c6964206e756d6265722160881b604082015260600190565b60008219821115612eaf57612eaf612f1f565b500190565b6000816000190483118215151615612ece57612ece612f1f565b500290565b600081612ee257612ee2612f1f565b506000190190565b600181811c90821680612efe57607f821691505b60208210811415610b8257634e487b7160e01b600052602260045260246000fd5b634e487b7160e01b600052601160045260246000fd5b634e487b7160e01b600052602160045260246000fd5b634e487b7160e01b600052603260045260246000fd5b634e487b7160e01b600052604160045260246000fdfea26469706673582212200bbdadf888a9f5e9f615ecacd392deb785e8eb657cf6599edfa67703c6b2812f64736f6c63430008070033",
  "immutableReferences": {},
  "source": "// SPDX-License-Identifier: MIT\r\npragma solidity 0.8.7;\r\n\r\n\r\n\r\nimport \"@openzeppelin/contracts/access/Ownable.sol\";\r\nimport \"@openzeppelin/contracts/utils/math/SafeMath.sol\";\r\nimport \"@openzeppelin/contracts/utils/Strings.sol\";\r\n\r\n\r\n\r\ncontract RootRouter is Ownable {\r\n    using SafeMath for uint256;\r\n\r\n\r\n\r\n    // ----- CUSTOM TYPES ----------------------------------------------------------------------------------------------\r\n\r\n    enum CustomerNumberMode { Number, Pool }\r\n\r\n    struct Router {\r\n        uint128 chainId; // \r\n        uint128 poolCodeLength; // \r\n        uint256 ttl;\r\n        string adr;\r\n    }\r\n\r\n    struct CustomerNumber {\r\n        bool isBlocked; // \r\n        address owner; // \r\n        uint256 subscriptionEndTime;\r\n        CustomerNumberMode mode;\r\n        string sipDomain;\r\n        Router router;\r\n    }\r\n\r\n    struct NumberStatus {\r\n        bool isBlocked; // \r\n        bool isAvailable; //        \r\n        bool isHolded; //           \r\n        bool isAvailableForBuy; // \r\n        uint256 subscriptionEndTime;\r\n        uint256 holdingEndTime;\r\n    }\r\n\r\n\r\n\r\n    // ----- SETTINGS --------------------------------------------------------------------------------------------------\r\n\r\n    uint256 constant public POOL_CODE_LENGTH = 3;\r\n    uint256 constant public POOL_SIZE = 1000;\r\n\r\n    uint256 public buyPrice = 10 ether;\r\n    uint256 public subscriptionPrice = 7 ether;\r\n    uint256 public modeChangePrice = 5 ether;\r\n    uint256 public subscriptionDuration = 315532800; // 10 years\r\n    uint256 public numberFreezeDuration = 7776000; // 3 months\r\n    uint256 public defaultTtl = 864000; // 10 days\r\n\r\n    string public defaultSipDomain = \"sip.quic.pro\";\r\n\r\n\r\n\r\n    // ----- DATA ------------------------------------------------------------------------------------------------------\r\n\r\n    CustomerNumber[POOL_SIZE] public pool;\r\n\r\n\r\n\r\n    // ----- CONSTRUCTOR -----------------------------------------------------------------------------------------------\r\n\r\n    constructor() {\r\n        for (uint256 number; number < 100; number = number.add(1)) {\r\n            pool[number].isBlocked = true;\r\n        }\r\n    }\r\n\r\n\r\n\r\n    // ----- PUBLIC UTILS ----------------------------------------------------------------------------------------------\r\n\r\n    function getTimestamp() public view returns(uint256) {\r\n        return block.timestamp;\r\n    }\r\n\r\n    function isValidNumber(uint256 number) public pure returns(bool) {\r\n        return (number < POOL_SIZE);\r\n    }\r\n\r\n    function isNumberOwner(uint256 number, address adr) public view returns(bool) {\r\n        require(isValidNumber(number), \"Invalid number!\");\r\n        return isNumberOwner(pool[number], adr);\r\n    }\r\n\r\n    function isAvailable(uint256 number) public view returns(bool) {\r\n        require(isValidNumber(number), \"Invalid number!\");\r\n        return isAvailable(pool[number]);\r\n    }\r\n\r\n    function isBlocked(uint256 number) public view returns(bool) {\r\n        require(isValidNumber(number), \"Invalid number!\");\r\n        return isBlocked(pool[number]);\r\n    }\r\n\r\n    function isHolded(uint256 number) public view returns(bool) {\r\n        require(isValidNumber(number), \"Invalid number!\");\r\n        return isHolded(pool[number]);\r\n    }\r\n\r\n    function isAvailableForBuy(uint256 number) public view returns(bool) {\r\n        require(isValidNumber(number), \"Invalid number!\");\r\n        return isAvailableForBuy(pool[number]);\r\n    }\r\n\r\n    function isNumberMode(uint256 number) internal view returns(bool) {\r\n        require(isValidNumber(number), \"Invalid number!\");\r\n        return isNumberMode(pool[number]);\r\n    }\r\n\r\n    function isPoolMode(uint256 number) internal view returns(bool) {\r\n        require(isValidNumber(number), \"Invalid number!\");\r\n        return isPoolMode(pool[number]);\r\n    }\r\n\r\n    function getMode(uint256 number) public view returns(CustomerNumberMode) {\r\n        require(isValidNumber(number), \"Invalid number!\");\r\n        return pool[number].mode;\r\n    }\r\n\r\n    function getNumberStatus(uint256 number) public view returns(NumberStatus memory) {\r\n        require(isValidNumber(number), \"Invalid number!\");\r\n\r\n        CustomerNumber storage customerNumber = pool[number];\r\n        return NumberStatus(\r\n            isBlocked(customerNumber),\r\n            isAvailable(customerNumber),\r\n            isHolded(customerNumber),\r\n            isAvailableForBuy(customerNumber),\r\n            customerNumber.subscriptionEndTime,\r\n            customerNumber.subscriptionEndTime.add(numberFreezeDuration)\r\n        );\r\n    }\r\n\r\n    function getBlockedNumbers() public view returns(bool[POOL_SIZE] memory) {\r\n        bool[POOL_SIZE] memory blockedNumbers;\r\n        for (uint256 number; number < POOL_SIZE; number = number.add(1)) {\r\n            blockedNumbers[number] = isBlocked(number);\r\n        }\r\n        return blockedNumbers;\r\n    }\r\n\r\n    function getAvailableNumbers() public view returns(bool[POOL_SIZE] memory) {\r\n        bool[POOL_SIZE] memory availableNumbers;\r\n        for (uint256 number; number < POOL_SIZE; number = number.add(1)) {\r\n            availableNumbers[number] = isAvailable(number);\r\n        }\r\n        return availableNumbers;\r\n    }\r\n\r\n    function getHoldedNumbers() public view returns(bool[POOL_SIZE] memory) {\r\n        bool[POOL_SIZE] memory holdedNumbers;\r\n        for (uint256 number; number < POOL_SIZE; number = number.add(1)) {\r\n            holdedNumbers[number] = isHolded(number);\r\n        }\r\n        return holdedNumbers;\r\n    }\r\n\r\n    function getAvailableForBuyNumbers() public view returns(bool[POOL_SIZE] memory) {\r\n        bool[POOL_SIZE] memory availableForBuyNumbers;\r\n        for (uint256 number; number < POOL_SIZE; number = number.add(1)) {\r\n            availableForBuyNumbers[number] = isAvailableForBuy(number);\r\n        }\r\n        return availableForBuyNumbers;\r\n    }\r\n\r\n\r\n\r\n    // ----- INTERNAL UTILS --------------------------------------------------------------------------------------------\r\n\r\n    function checkPayment(uint256 expected, uint256 received) internal view returns(bool) {\r\n        return ((received >= expected) || (msg.sender == owner()));\r\n    }\r\n\r\n    function isNumberOwner(CustomerNumber storage customerNumber, address adr) internal view returns(bool) {\r\n        return (\r\n            (adr == owner()) ||\r\n            (\r\n                (customerNumber.owner == adr) &&\r\n                (block.timestamp < customerNumber.subscriptionEndTime.add(numberFreezeDuration))\r\n            )\r\n        );\r\n    }\r\n\r\n    function isAvailable(CustomerNumber storage customerNumber) internal view returns(bool) {\r\n        return ((customerNumber.owner == address(0)) || (block.timestamp > customerNumber.subscriptionEndTime));\r\n    }\r\n\r\n    function isBlocked(CustomerNumber storage customerNumber) internal view returns(bool) {\r\n        return customerNumber.isBlocked;\r\n    }\r\n\r\n    function isHolded(CustomerNumber storage customerNumber) internal view returns(bool) {\r\n        return (\r\n            (customerNumber.owner != address(0)) &&\r\n            (block.timestamp > customerNumber.subscriptionEndTime) &&\r\n            (block.timestamp < customerNumber.subscriptionEndTime.add(numberFreezeDuration))\r\n        );\r\n    }\r\n\r\n    function isAvailableForBuy(CustomerNumber storage customerNumber) internal view returns(bool) {\r\n        return (isAvailable(customerNumber) && !isBlocked(customerNumber) && !isHolded(customerNumber));\r\n    }\r\n\r\n    function isNumberMode(CustomerNumber storage customerNumber) internal view returns(bool) {\r\n        return (customerNumber.mode == CustomerNumberMode.Number);\r\n    }\r\n\r\n    function isPoolMode(CustomerNumber storage customerNumber) internal view returns(bool) {\r\n        return (customerNumber.mode == CustomerNumberMode.Pool);\r\n    }\r\n\r\n    function isEmptyString(string memory str) internal pure returns(bool) {\r\n        return (bytes(str).length == 0);\r\n    }\r\n\r\n    function clearCustomerNumber(uint256 number) internal {\r\n        delete pool[number];\r\n    }\r\n\r\n\r\n\r\n    // ----- SMART CONTRACT MANAGEMENT ---------------------------------------------------------------------------------\r\n\r\n    function withdraw() external onlyOwner {\r\n        payable(owner()).transfer(address(this).balance);\r\n    }\r\n\r\n    function setBuyPrice(uint256 newBuyPrice) external onlyOwner {\r\n        buyPrice = newBuyPrice;\r\n    }\r\n\r\n    function setSubscriptionPrice(uint256 newSubscriptionPrice) external onlyOwner {\r\n        subscriptionPrice = newSubscriptionPrice;\r\n    }\r\n\r\n    function setModeChangePrice(uint256 newModeChangePrice) external onlyOwner {\r\n        modeChangePrice = newModeChangePrice;\r\n    }\r\n\r\n    function setSubscriptionDuration(uint256 newSubscriptionDuration) external onlyOwner {\r\n        subscriptionDuration = newSubscriptionDuration;\r\n    }\r\n\r\n    function setNumberFreezeDuration(uint256 newNumberFreezeDuration) external onlyOwner {\r\n        numberFreezeDuration = newNumberFreezeDuration;\r\n    }\r\n\r\n    function setDefaultTtl(uint256 newDefaultTtl) external onlyOwner {\r\n        defaultTtl = newDefaultTtl;\r\n    }\r\n\r\n    function setDefaultSipDomain(string memory newDefaultSipDomain) external onlyOwner {\r\n        defaultSipDomain = newDefaultSipDomain;\r\n    }\r\n\r\n    function takeAwayOwnership(uint256 number) external onlyOwner {\r\n        require(isValidNumber(number), \"Invalid number!\");\r\n\r\n        clearCustomerNumber(number);\r\n    }\r\n\r\n    function setBlockedStatus(uint256 number, bool newBlockedStatus) external onlyOwner {\r\n        require(isValidNumber(number), \"Invalid number!\");\r\n\r\n        CustomerNumber storage customerNumber = pool[number];\r\n        customerNumber.isBlocked = newBlockedStatus;\r\n    }\r\n\r\n    function setExpirationTime(uint256 number, uint256 newExpirationTime) external onlyOwner {\r\n        require(isValidNumber(number), \"Invalid number!\");\r\n\r\n        CustomerNumber storage customerNumber = pool[number];\r\n        customerNumber.subscriptionEndTime = block.timestamp.add(newExpirationTime);\r\n    }\r\n\r\n\r\n\r\n    // ----- CUSTOMER NUMBER MANAGEMENT --------------------------------------------------------------------------------\r\n\r\n    // TODO: Refactory to ERC721 (like ENS Name)\r\n    function buy(uint256 number) external payable {\r\n        require(isValidNumber(number), \"Invalid number!\");\r\n        require(checkPayment(buyPrice, msg.value), \"Insufficient funds!\");\r\n\r\n        CustomerNumber storage customerNumber = pool[number];\r\n        require(isAvailableForBuy(customerNumber), \"The number is not available for buy!\");\r\n\r\n        clearCustomerNumber(number);\r\n\r\n        customerNumber.owner = msg.sender;\r\n        customerNumber.subscriptionEndTime = block.timestamp.add(subscriptionDuration);\r\n    }\r\n\r\n    function renewSubscription(uint256 number) external payable returns(string[1] memory) {\r\n        if (!isValidNumber(number)) return [\"400\"];\r\n        if (!checkPayment(subscriptionPrice, msg.value)) return [\"400\"];\r\n\r\n        CustomerNumber storage customerNumber = pool[number];\r\n        if (!isNumberOwner(customerNumber, msg.sender)) return [\"400\"];\r\n\r\n        customerNumber.subscriptionEndTime = customerNumber.subscriptionEndTime.add(subscriptionDuration);\r\n\r\n        return [\"200\"];\r\n    }\r\n\r\n    function transferOwnershipOfCustomerNumber(uint256 number, address newOwner) external returns(string[1] memory) {\r\n        if (!isValidNumber(number)) return [\"400\"];\r\n\r\n        CustomerNumber storage customerNumber = pool[number];\r\n        if (!isNumberOwner(customerNumber, msg.sender)) return [\"400\"];\r\n        if (isHolded(customerNumber)) return [\"400\"];\r\n\r\n        customerNumber.owner = newOwner;\r\n\r\n        return [\"200\"];\r\n    }\r\n\r\n    function renounceOwnershipOfCustomerNumber(uint256 number) external returns(string[1] memory) {\r\n        if (!isValidNumber(number)) return [\"400\"];\r\n\r\n        CustomerNumber storage customerNumber = pool[number];\r\n        if (!isNumberOwner(customerNumber, msg.sender)) return [\"400\"];\r\n\r\n        clearCustomerNumber(number);\r\n\r\n        return [\"200\"];\r\n    }\r\n\r\n    function changeCustomerNumberMode(uint256 number) external payable returns(string[1] memory) {\r\n        if (!isValidNumber(number)) return [\"400\"];\r\n        if (!checkPayment(modeChangePrice, msg.value)) return [\"400\"];\r\n\r\n        CustomerNumber storage customerNumber = pool[number];\r\n        if (!isNumberOwner(customerNumber, msg.sender)) return [\"400\"];\r\n        if (isHolded(customerNumber)) return [\"400\"];\r\n\r\n        if (isNumberMode(customerNumber)) {\r\n            customerNumber.mode = CustomerNumberMode.Pool;\r\n            delete customerNumber.sipDomain;\r\n        } else {\r\n            customerNumber.mode = CustomerNumberMode.Number;\r\n            delete customerNumber.router;\r\n        }\r\n\r\n        return [\"200\"];\r\n    }\r\n\r\n    function setCustomerNumberSipDomain(uint256 number, string memory newSipDomain) external returns(string[1] memory) {\r\n        if (!isValidNumber(number)) return [\"400\"];\r\n\r\n        CustomerNumber storage customerNumber = pool[number];\r\n        if (!isNumberOwner(customerNumber, msg.sender)) return [\"400\"];\r\n        if (isHolded(customerNumber)) return [\"400\"];\r\n        if (!isNumberMode(customerNumber)) return [\"400\"];\r\n\r\n        customerNumber.sipDomain = newSipDomain;\r\n\r\n        return [\"200\"];\r\n    }\r\n\r\n    function clearCustomerNumberSipDomain(uint256 number) external returns(string[1] memory) {\r\n        if (!isValidNumber(number)) return [\"400\"];\r\n\r\n        CustomerNumber storage customerNumber = pool[number];\r\n        if (!isNumberOwner(customerNumber, msg.sender)) return [\"400\"];\r\n        if (isHolded(customerNumber)) return [\"400\"];\r\n        if (!isNumberMode(customerNumber)) return [\"400\"];\r\n\r\n        delete customerNumber.sipDomain;\r\n\r\n        return [\"200\"];\r\n    }\r\n\r\n    function setCustomerNumberRouter(uint256 number, Router memory newRouter) external returns(string[1] memory) {\r\n        if (!isValidNumber(number)) return [\"400\"];\r\n\r\n        CustomerNumber storage customerNumber = pool[number];\r\n        if (!isNumberOwner(customerNumber, msg.sender)) return [\"400\"];\r\n        if (isHolded(customerNumber)) return [\"400\"];\r\n        if (!isPoolMode(customerNumber)) return [\"400\"];\r\n\r\n        customerNumber.router = newRouter;\r\n\r\n        return [\"200\"];\r\n    }\r\n\r\n    function clearCustomerNumberRouter(uint256 number) external returns(string[1] memory) {\r\n        if (!isValidNumber(number)) return [\"400\"];\r\n\r\n        CustomerNumber storage customerNumber = pool[number];\r\n        if (!isNumberOwner(customerNumber, msg.sender)) return [\"400\"];\r\n        if (isHolded(customerNumber)) return [\"400\"];\r\n        if (!isPoolMode(customerNumber)) return [\"400\"];\r\n\r\n        delete customerNumber.router;\r\n\r\n        return [\"200\"];\r\n    }\r\n\r\n    function setCustomerNumberRouterTtl(uint256 number, uint256 newTtl) external returns(string[1] memory) {\r\n        if (!isValidNumber(number)) return [\"400\"];\r\n\r\n        CustomerNumber storage customerNumber = pool[number];\r\n        if (!isNumberOwner(customerNumber, msg.sender)) return [\"400\"];\r\n        if (isHolded(customerNumber)) return [\"400\"];\r\n        if (!isPoolMode(customerNumber)) return [\"400\"];\r\n\r\n        customerNumber.router.ttl = newTtl;\r\n\r\n        return [\"200\"];\r\n    }\r\n\r\n    function clearCustomerNumberRouterTtl(uint256 number) external returns(string[1] memory) {\r\n        if (!isValidNumber(number)) return [\"400\"];\r\n\r\n        CustomerNumber storage customerNumber = pool[number];\r\n        if (!isNumberOwner(customerNumber, msg.sender)) return [\"400\"];\r\n        if (isHolded(customerNumber)) return [\"400\"];\r\n        if (!isPoolMode(customerNumber)) return [\"400\"];\r\n\r\n        delete customerNumber.router.ttl;\r\n\r\n        return [\"200\"];\r\n    }\r\n\r\n\r\n\r\n    // ----- ROUTING ---------------------------------------------------------------------------------------------------\r\n\r\n    function getNextNode(uint256 number) public view returns(string[5] memory) {\r\n        if (!isValidNumber(number)) return [\"400\", \"\", \"\", \"\", \"\"];\r\n\r\n        CustomerNumber storage customerNumber = pool[number];\r\n        if (isBlocked(customerNumber)) return [\"400\", \"\", \"\", \"\", \"\"];\r\n        if (isAvailable(customerNumber)) return [\"400\", \"\", \"\", \"\", \"\"];\r\n        if (isHolded(customerNumber)) return [\"400\", \"\", \"\", \"\", \"\"];\r\n\r\n        if (isNumberMode(customerNumber)) {\r\n            return [\r\n                \"200\",\r\n                \"0\",\r\n                Strings.toHexString(customerNumber.owner),\r\n                (isEmptyString(customerNumber.sipDomain) ? defaultSipDomain : customerNumber.sipDomain),\r\n                \"\"\r\n            ];\r\n        } else {\r\n            return [\r\n                \"200\",\r\n                Strings.toString(customerNumber.router.poolCodeLength),\r\n                Strings.toString(customerNumber.router.chainId),\r\n                customerNumber.router.adr,\r\n                Strings.toString(customerNumber.router.ttl == 0 ? defaultTtl : customerNumber.router.ttl)\r\n            ];\r\n        }\r\n    }\r\n}\r\n",
  "sourcePath": "W:\\QUIC-PRO Inc\\mvts-smart-contract-root-router\\contracts\\RootRouter.sol",
  "compiler": {
    "name": "solc",
    "version": "0.8.7+commit.e28d00a7.Emscripten.clang"
  },
  "schemaVersion": "3.4.10",
  "updatedAt": "2022-11-12T17:07:12.152Z",
  "networkType": "ethereum",
  "devdoc": {
    "kind": "dev",
    "methods": {
      "owner()": {
        "details": "Returns the address of the current owner."
      },
      "renounceOwnership()": {
        "details": "Leaves the contract without owner. It will not be possible to call `onlyOwner` functions anymore. Can only be called by the current owner. NOTE: Renouncing ownership will leave the contract without an owner, thereby removing any functionality that is only available to the owner."
      },
      "transferOwnership(address)": {
        "details": "Transfers ownership of the contract to a new account (`newOwner`). Can only be called by the current owner."
      }
    },
    "version": 1
  },
  "userdoc": {
    "kind": "user",
    "methods": {},
    "version": 1
  }
}