{
  "contractName": "RootRouter",
  "abi": [
    {
      "inputs": [],
      "stateMutability": "nonpayable",
      "type": "constructor"
    },
    {
      "anonymous": false,
      "inputs": [
        {
          "indexed": true,
          "internalType": "address",
          "name": "previousOwner",
          "type": "address"
        },
        {
          "indexed": true,
          "internalType": "address",
          "name": "newOwner",
          "type": "address"
        }
      ],
      "name": "OwnershipTransferred",
      "type": "event"
    },
    {
      "inputs": [],
      "name": "MAX_NUMBER",
      "outputs": [
        {
          "internalType": "uint256",
          "name": "",
          "type": "uint256"
        }
      ],
      "stateMutability": "view",
      "type": "function",
      "constant": true
    },
    {
      "inputs": [],
      "name": "MIN_NUMBER",
      "outputs": [
        {
          "internalType": "uint256",
          "name": "",
          "type": "uint256"
        }
      ],
      "stateMutability": "view",
      "type": "function",
      "constant": true
    },
    {
      "inputs": [],
      "name": "POOL_CODE_LENGTH",
      "outputs": [
        {
          "internalType": "uint256",
          "name": "",
          "type": "uint256"
        }
      ],
      "stateMutability": "view",
      "type": "function",
      "constant": true
    },
    {
      "inputs": [],
      "name": "POOL_SIZE",
      "outputs": [
        {
          "internalType": "uint256",
          "name": "",
          "type": "uint256"
        }
      ],
      "stateMutability": "view",
      "type": "function",
      "constant": true
    },
    {
      "inputs": [],
      "name": "buyPrice",
      "outputs": [
        {
          "internalType": "uint256",
          "name": "",
          "type": "uint256"
        }
      ],
      "stateMutability": "view",
      "type": "function",
      "constant": true
    },
    {
      "inputs": [],
      "name": "modeChangePrice",
      "outputs": [
        {
          "internalType": "uint256",
          "name": "",
          "type": "uint256"
        }
      ],
      "stateMutability": "view",
      "type": "function",
      "constant": true
    },
    {
      "inputs": [],
      "name": "numberFreezeDuration",
      "outputs": [
        {
          "internalType": "uint256",
          "name": "",
          "type": "uint256"
        }
      ],
      "stateMutability": "view",
      "type": "function",
      "constant": true
    },
    {
      "inputs": [],
      "name": "owner",
      "outputs": [
        {
          "internalType": "address",
          "name": "",
          "type": "address"
        }
      ],
      "stateMutability": "view",
      "type": "function",
      "constant": true
    },
    {
      "inputs": [
        {
          "internalType": "uint256",
          "name": "",
          "type": "uint256"
        }
      ],
      "name": "pool",
      "outputs": [
        {
          "internalType": "bool",
          "name": "isBlocked",
          "type": "bool"
        },
        {
          "internalType": "address",
          "name": "owner",
          "type": "address"
        },
        {
          "internalType": "uint256",
          "name": "subscriptionEndTime",
          "type": "uint256"
        },
        {
          "internalType": "enum RootRouter.CustomerNumberMode",
          "name": "mode",
          "type": "uint8"
        },
        {
          "components": [
            {
              "internalType": "uint128",
              "name": "chainId",
              "type": "uint128"
            },
            {
              "internalType": "string",
              "name": "adr",
              "type": "string"
            },
            {
              "internalType": "uint128",
              "name": "poolCodeLength",
              "type": "uint128"
            }
          ],
          "internalType": "struct RootRouter.Router",
          "name": "router",
          "type": "tuple"
        }
      ],
      "stateMutability": "view",
      "type": "function",
      "constant": true
    },
    {
      "inputs": [],
      "name": "renounceOwnership",
      "outputs": [],
      "stateMutability": "nonpayable",
      "type": "function"
    },
    {
      "inputs": [],
      "name": "sipDomain",
      "outputs": [
        {
          "internalType": "string",
          "name": "",
          "type": "string"
        }
      ],
      "stateMutability": "view",
      "type": "function",
      "constant": true
    },
    {
      "inputs": [],
      "name": "subscriptionDuration",
      "outputs": [
        {
          "internalType": "uint256",
          "name": "",
          "type": "uint256"
        }
      ],
      "stateMutability": "view",
      "type": "function",
      "constant": true
    },
    {
      "inputs": [],
      "name": "subscriptionPrice",
      "outputs": [
        {
          "internalType": "uint256",
          "name": "",
          "type": "uint256"
        }
      ],
      "stateMutability": "view",
      "type": "function",
      "constant": true
    },
    {
      "inputs": [
        {
          "internalType": "address",
          "name": "newOwner",
          "type": "address"
        }
      ],
      "name": "transferOwnership",
      "outputs": [],
      "stateMutability": "nonpayable",
      "type": "function"
    },
    {
      "inputs": [],
      "name": "ttl",
      "outputs": [
        {
          "internalType": "uint256",
          "name": "",
          "type": "uint256"
        }
      ],
      "stateMutability": "view",
      "type": "function",
      "constant": true
    },
    {
      "inputs": [
        {
          "internalType": "uint256",
          "name": "number",
          "type": "uint256"
        },
        {
          "internalType": "address",
          "name": "addressNumberOwner",
          "type": "address"
        }
      ],
      "name": "isAddressNumberOwner",
      "outputs": [
        {
          "internalType": "bool",
          "name": "",
          "type": "bool"
        }
      ],
      "stateMutability": "view",
      "type": "function",
      "constant": true
    },
    {
      "inputs": [
        {
          "internalType": "uint256",
          "name": "number",
          "type": "uint256"
        }
      ],
      "name": "getMode",
      "outputs": [
        {
          "internalType": "enum RootRouter.CustomerNumberMode",
          "name": "",
          "type": "uint8"
        }
      ],
      "stateMutability": "view",
      "type": "function",
      "constant": true
    },
    {
      "inputs": [
        {
          "internalType": "uint256",
          "name": "number",
          "type": "uint256"
        }
      ],
      "name": "getNumberStatus",
      "outputs": [
        {
          "components": [
            {
              "internalType": "bool",
              "name": "isBlocked",
              "type": "bool"
            },
            {
              "internalType": "bool",
              "name": "isFree",
              "type": "bool"
            },
            {
              "internalType": "bool",
              "name": "isHolded",
              "type": "bool"
            },
            {
              "internalType": "bool",
              "name": "isAvailableForBuy",
              "type": "bool"
            },
            {
              "internalType": "uint256",
              "name": "subscriptionEndTime",
              "type": "uint256"
            },
            {
              "internalType": "uint256",
              "name": "holdingEndTime",
              "type": "uint256"
            }
          ],
          "internalType": "struct RootRouter.NumberStatus",
          "name": "",
          "type": "tuple"
        }
      ],
      "stateMutability": "view",
      "type": "function",
      "constant": true
    },
    {
      "inputs": [],
      "name": "getBlockedNumber",
      "outputs": [
        {
          "internalType": "bool[1000]",
          "name": "",
          "type": "bool[1000]"
        }
      ],
      "stateMutability": "view",
      "type": "function",
      "constant": true
    },
    {
      "inputs": [],
      "name": "getFreeNumber",
      "outputs": [
        {
          "internalType": "bool[1000]",
          "name": "",
          "type": "bool[1000]"
        }
      ],
      "stateMutability": "view",
      "type": "function",
      "constant": true
    },
    {
      "inputs": [],
      "name": "getHoldedNumber",
      "outputs": [
        {
          "internalType": "bool[1000]",
          "name": "",
          "type": "bool[1000]"
        }
      ],
      "stateMutability": "view",
      "type": "function",
      "constant": true
    },
    {
      "inputs": [
        {
          "internalType": "uint256",
          "name": "number",
          "type": "uint256"
        }
      ],
      "name": "isFree",
      "outputs": [
        {
          "internalType": "bool",
          "name": "",
          "type": "bool"
        }
      ],
      "stateMutability": "view",
      "type": "function",
      "constant": true
    },
    {
      "inputs": [
        {
          "internalType": "uint256",
          "name": "number",
          "type": "uint256"
        }
      ],
      "name": "isBlocked",
      "outputs": [
        {
          "internalType": "bool",
          "name": "",
          "type": "bool"
        }
      ],
      "stateMutability": "view",
      "type": "function",
      "constant": true
    },
    {
      "inputs": [
        {
          "internalType": "uint256",
          "name": "number",
          "type": "uint256"
        }
      ],
      "name": "isHolded",
      "outputs": [
        {
          "internalType": "bool",
          "name": "",
          "type": "bool"
        }
      ],
      "stateMutability": "view",
      "type": "function",
      "constant": true
    },
    {
      "inputs": [
        {
          "internalType": "uint256",
          "name": "number",
          "type": "uint256"
        }
      ],
      "name": "isAvailableForBuy",
      "outputs": [
        {
          "internalType": "bool",
          "name": "",
          "type": "bool"
        }
      ],
      "stateMutability": "view",
      "type": "function",
      "constant": true
    },
    {
      "inputs": [],
      "name": "withdraw",
      "outputs": [],
      "stateMutability": "nonpayable",
      "type": "function"
    },
    {
      "inputs": [
        {
          "internalType": "uint256",
          "name": "newBuyPrice",
          "type": "uint256"
        }
      ],
      "name": "setBuyPrice",
      "outputs": [],
      "stateMutability": "nonpayable",
      "type": "function"
    },
    {
      "inputs": [
        {
          "internalType": "uint256",
          "name": "newSubscriptionPrice",
          "type": "uint256"
        }
      ],
      "name": "setSubscriptionPricePrice",
      "outputs": [],
      "stateMutability": "nonpayable",
      "type": "function"
    },
    {
      "inputs": [
        {
          "internalType": "uint256",
          "name": "newNumberFreezeDuration",
          "type": "uint256"
        }
      ],
      "name": "setNumberFreezeDuration",
      "outputs": [],
      "stateMutability": "nonpayable",
      "type": "function"
    },
    {
      "inputs": [
        {
          "internalType": "uint256",
          "name": "newModeChangePrice",
          "type": "uint256"
        }
      ],
      "name": "setModeChangePrice",
      "outputs": [],
      "stateMutability": "nonpayable",
      "type": "function"
    },
    {
      "inputs": [
        {
          "internalType": "uint256",
          "name": "newSubscriptionDuration",
          "type": "uint256"
        }
      ],
      "name": "setSubscriptionDuration",
      "outputs": [],
      "stateMutability": "nonpayable",
      "type": "function"
    },
    {
      "inputs": [
        {
          "internalType": "uint256",
          "name": "newTtl",
          "type": "uint256"
        }
      ],
      "name": "setTtl",
      "outputs": [],
      "stateMutability": "nonpayable",
      "type": "function"
    },
    {
      "inputs": [
        {
          "internalType": "string",
          "name": "newSipDomain",
          "type": "string"
        }
      ],
      "name": "setSipDomain",
      "outputs": [],
      "stateMutability": "nonpayable",
      "type": "function"
    },
    {
      "inputs": [
        {
          "internalType": "uint256",
          "name": "number",
          "type": "uint256"
        }
      ],
      "name": "takeAwayOwnership",
      "outputs": [],
      "stateMutability": "nonpayable",
      "type": "function"
    },
    {
      "inputs": [
        {
          "internalType": "uint256",
          "name": "number",
          "type": "uint256"
        },
        {
          "internalType": "bool",
          "name": "blockedStatus",
          "type": "bool"
        }
      ],
      "name": "setBlockedStatus",
      "outputs": [],
      "stateMutability": "nonpayable",
      "type": "function"
    },
    {
      "inputs": [
        {
          "internalType": "uint256",
          "name": "number",
          "type": "uint256"
        },
        {
          "internalType": "uint256",
          "name": "newExpirationTime",
          "type": "uint256"
        }
      ],
      "name": "setExpirationTime",
      "outputs": [],
      "stateMutability": "nonpayable",
      "type": "function"
    },
    {
      "inputs": [
        {
          "internalType": "uint256",
          "name": "number",
          "type": "uint256"
        }
      ],
      "name": "buy",
      "outputs": [],
      "stateMutability": "payable",
      "type": "function",
      "payable": true
    },
    {
      "inputs": [
        {
          "internalType": "uint256",
          "name": "number",
          "type": "uint256"
        }
      ],
      "name": "renewSubscription",
      "outputs": [
        {
          "internalType": "string[1]",
          "name": "",
          "type": "string[1]"
        }
      ],
      "stateMutability": "payable",
      "type": "function",
      "payable": true
    },
    {
      "inputs": [
        {
          "internalType": "uint256",
          "name": "number",
          "type": "uint256"
        }
      ],
      "name": "changeCustomerNumberMode",
      "outputs": [
        {
          "internalType": "string[1]",
          "name": "",
          "type": "string[1]"
        }
      ],
      "stateMutability": "payable",
      "type": "function",
      "payable": true
    },
    {
      "inputs": [
        {
          "internalType": "uint256",
          "name": "number",
          "type": "uint256"
        },
        {
          "internalType": "uint128",
          "name": "chainId",
          "type": "uint128"
        },
        {
          "internalType": "string",
          "name": "adr",
          "type": "string"
        },
        {
          "internalType": "uint128",
          "name": "poolCodeLength",
          "type": "uint128"
        }
      ],
      "name": "setCustomerNumberRouter",
      "outputs": [
        {
          "internalType": "string[1]",
          "name": "",
          "type": "string[1]"
        }
      ],
      "stateMutability": "nonpayable",
      "type": "function"
    },
    {
      "inputs": [
        {
          "internalType": "uint256",
          "name": "number",
          "type": "uint256"
        },
        {
          "internalType": "address",
          "name": "newOwner",
          "type": "address"
        }
      ],
      "name": "transferOwnershipOfCustomerNumber",
      "outputs": [
        {
          "internalType": "string[1]",
          "name": "",
          "type": "string[1]"
        }
      ],
      "stateMutability": "nonpayable",
      "type": "function"
    },
    {
      "inputs": [
        {
          "internalType": "uint256",
          "name": "number",
          "type": "uint256"
        }
      ],
      "name": "getNextNode",
      "outputs": [
        {
          "internalType": "string[]",
          "name": "",
          "type": "string[]"
        }
      ],
      "stateMutability": "view",
      "type": "function",
      "constant": true
    }
  ],
  "bytecode": "0x678ac7230489e80000600155676124fee993bc0000600255674563918244f400006003556312cea6006004556276a700600555620d2f0060065560c0604052600c60808190526b7369702e717569632e70726f60a01b60a090815262000069916007919062000149565b503480156200007757600080fd5b506200008333620000e4565b60005b6064811015620000dd5760016008826103e88110620000a957620000a962000253565b60060201805460ff1916911515919091179055620000d581600162000134602090811b6200175517901c565b905062000086565b5062000269565b600080546001600160a01b038381166001600160a01b0319831681178455604051919092169283917f8be0079c531659141344cd1fd0a4f28419497f9722a3daafe3b4186f6b6457e09190a35050565b6000620001428284620001ef565b9392505050565b828054620001579062000216565b90600052602060002090601f0160209004810192826200017b5760008555620001c6565b82601f106200019657805160ff1916838001178555620001c6565b82800160010185558215620001c6579182015b82811115620001c6578251825591602001919060010190620001a9565b50620001d4929150620001d8565b5090565b5b80821115620001d45760008155600101620001d9565b600082198211156200021157634e487b7160e01b600052601160045260246000fd5b500190565b600181811c908216806200022b57607f821691505b602082108114156200024d57634e487b7160e01b600052602260045260246000fd5b50919050565b634e487b7160e01b600052603260045260246000fd5b61231a80620002796000396000f3fe6080604052600436106102515760003560e01c8063b993056511610139578063db0c81b5116100b6578063ee9de15f1161007a578063ee9de15f146106d5578063f2fde38b146106f5578063f5415ac814610715578063fdab189314610735578063fe31311214610757578063fea9b5721461078857600080fd5b8063db0c81b514610640578063dd8ab8f914610660578063e03b53e014610675578063e716b8cc14610695578063e9f9425b146106b557600080fd5b8063ce4400da116100fd578063ce4400da146105d0578063d71bb37b146105f0578063d8da3a8014610603578063d96a094a14610618578063d9b5a55e1461062b57600080fd5b8063b99305651461055b578063bdc8e54c1461056e578063bf52472114610584578063c8c1b94e1461059a578063cac3c4d2146105b057600080fd5b80636d902bfb116101d25780638620410b116101965780638620410b146104a85780638da5cb5b146104be57806390c8125d146104e6578063a2f33b2614610506578063b0aa98c714610526578063b2f5adb61461054657600080fd5b80636d902bfb14610403578063715018a614610430578063781c8580146104455780637a94a633146104725780637c78d6da1461048857600080fd5b806350c3799f1161021957806350c3799f146102ff57806355d87bd2146103735780635aeb14b91461039357806363ae8d6c146103b35780636b1971c1146103d357600080fd5b806311e338d1146102565780633a721a96146102815780633ccfd60b146102ae5780634e8b1dd5146102c55780634f9daac6146102e9575b600080fd5b34801561026257600080fd5b5061026b61079e565b6040516102789190611ff2565b60405180910390f35b34801561028d57600080fd5b506102a161029c366004611e7f565b6107f9565b604051610278919061214f565b3480156102ba57600080fd5b506102c3610813565b005b3480156102d157600080fd5b506102db60065481565b604051908152602001610278565b3480156102f557600080fd5b506102db6103e881565b34801561030b57600080fd5b5061031f61031a366004611e7f565b610858565b6040516102789190600060c0820190508251151582526020830151151560208301526040830151151560408301526060830151151560608301526080830151608083015260a083015160a083015292915050565b34801561037f57600080fd5b506102c361038e366004611e7f565b61090e565b34801561039f57600080fd5b506102c36103ae366004611e7f565b61091b565b3480156103bf57600080fd5b506102c36103ce366004611e7f565b610928565b3480156103df57600080fd5b506103f36103ee366004611e7f565b610935565b6040519015158152602001610278565b34801561040f57600080fd5b5061042361041e366004611e7f565b610953565b6040516102789190612074565b34801561043c57600080fd5b506102c3610de2565b34801561045157600080fd5b50610465610460366004611e98565b610df6565b6040516102789190612027565b34801561047e57600080fd5b506102db60045481565b34801561049457600080fd5b506102c36104a3366004611e4a565b610e8c565b3480156104b457600080fd5b506102db60015481565b3480156104ca57600080fd5b506000546040516001600160a01b039091168152602001610278565b3480156104f257600080fd5b506103f3610501366004611e7f565b610eab565b34801561051257600080fd5b506102c3610521366004611ec4565b610ebe565b34801561053257600080fd5b506103f3610541366004611e7f565b610f13565b34801561055257600080fd5b506102db600381565b610465610569366004611e7f565b610f28565b34801561057a57600080fd5b506102db60025481565b34801561059057600080fd5b506102db60055481565b3480156105a657600080fd5b506102db60035481565b3480156105bc57600080fd5b506102c36105cb366004611e7f565b611073565b3480156105dc57600080fd5b506103f36105eb366004611e7f565b611080565b6104656105fe366004611e7f565b611093565b34801561060f57600080fd5b5061026b61113d565b6102c3610626366004611e7f565b611192565b34801561063757600080fd5b5061026b6112ae565b34801561064c57600080fd5b506102c361065b366004611f61565b611303565b34801561066c57600080fd5b506102db606481565b34801561068157600080fd5b506102c3610690366004611e7f565b611351565b3480156106a157600080fd5b506102c36106b0366004611e7f565b61135e565b3480156106c157600080fd5b506103f36106d0366004611e98565b61136b565b3480156106e157600080fd5b506104656106f0366004611ef9565b6113e7565b34801561070157600080fd5b506102c3610710366004611e2f565b61150f565b34801561072157600080fd5b506102c3610730366004611e7f565b611585565b34801561074157600080fd5b5061074a6115bb565b604051610278919061215d565b34801561076357600080fd5b50610777610772366004611e7f565b611649565b6040516102789594939291906120d6565b34801561079457600080fd5b506102db6103e781565b6107a6611c8f565b6107ae611c8f565b60005b6103e88110156107f3576107c481610f13565b82826103e881106107d7576107d76122b8565b911515602090920201526107ec816001611755565b90506107b1565b50919050565b60008061080583611761565b6002015460ff169392505050565b61081b611781565b600080546040516001600160a01b03909116914780156108fc02929091818181858888f19350505050158015610855573d6000803e3d6000fd5b50565b6040805160c081018252600080825260208201819052918101829052606081018290526080810182905260a081018290529061089383611761565b90506040518060c001604052806108ab835460ff1690565b151581526020016108bb836117db565b151581526020016108cb83611801565b151581526020016108db8361182b565b1515815260200182600101548152602001610905600554846001015461175590919063ffffffff16565b90529392505050565b610916611781565b600655565b610923611781565b600555565b610930611781565b600155565b60008061094183611761565b905061094c8161182b565b9392505050565b606061095e8261185c565b158061096e575061096e82611080565b156109e157604080516001808252818301909252600091816020015b606081526020019060019003908161098a5790505090506040518060400160405280600381526020016203430360ec1b815250816000815181106109d0576109d06122b8565b602090810291909101015292915050565b60006109ec83611761565b90506109f781611873565b15610be55760408051600580825260c08201909252600091816020015b6060815260200190600190039081610a145790505090506040518060400160405280600381526020016203230360ec1b81525081600081518110610a5a57610a5a6122b8565b6020908102919091010152815460ff16610a8d57604051806040016040528060018152602001603160f81b815250610aa8565b604051806040016040528060018152602001600360fc1b8152505b81600181518110610abb57610abb6122b8565b6020026020010181905250604051806040016040528060018152602001600360fc1b81525081600281518110610af357610af36122b8565b60209081029190910101528154610b179061010090046001600160a01b0316611897565b81600381518110610b2a57610b2a6122b8565b602002602001018190525060078054610b4290612212565b80601f0160208091040260200160405190810160405280929190818152602001828054610b6e90612212565b8015610bbb5780601f10610b9057610100808354040283529160200191610bbb565b820191906000526020600020905b815481529060010190602001808311610b9e57829003601f168201915b505050505081600481518110610bd357610bd36122b8565b60209081029190910101529392505050565b60408051600680825260e08201909252600091816020015b6060815260200190600190039081610bfd5790505090506040518060400160405280600381526020016203230360ec1b81525081600081518110610c4357610c436122b8565b6020908102919091010152815460ff16610c7657604051806040016040528060018152602001603160f81b815250610c91565b604051806040016040528060018152602001600360fc1b8152505b81600181518110610ca457610ca46122b8565b60209081029190910101526005820154610cc6906001600160801b03166118ad565b81600281518110610cd957610cd96122b8565b60209081029190910101526003820154610cfb906001600160801b03166118ad565b81600381518110610d0e57610d0e6122b8565b6020908102919091010152600482018054610d2890612212565b80601f0160208091040260200160405190810160405280929190818152602001828054610d5490612212565b8015610da15780601f10610d7657610100808354040283529160200191610da1565b820191906000526020600020905b815481529060010190602001808311610d8457829003601f168201915b505050505081600481518110610db957610db96122b8565b6020026020010181905250610dcf6006546118ad565b81600581518110610bd357610bd36122b8565b610dea611781565b610df460006119ab565b565b610dfe611caf565b610e08833361136b565b610e365750604080516060810182526003602082019081526203430360ec1b92820192909252908152610e86565b6000610e4184611761565b8054610100600160a81b0319166101006001600160a01b038616021790555050604080516060810182526003602082019081526203230360ec1b928201929092529081525b92915050565b610e94611781565b8051610ea7906007906020840190611cd6565b5050565b6000610e86610eb983611761565b611801565b610ec6611781565b610ecf8261185c565b610ef45760405162461bcd60e51b8152600401610eeb90612170565b60405180910390fd5b6000610eff83611761565b805460ff1916921515929092179091555050565b6000610e86610f2183611761565b5460ff1690565b610f30611caf565b610f3a823361136b565b1580610f4f5750610f4d346003546119fb565b155b15610f7d575050604080516060810182526003602082019081526203430360ec1b9282019290925290815290565b6000610f8883611761565b9050610f9381611873565b15610fac5760028101805460ff19166001179055611048565b60028101805460ff19169055604080516060810190915260008082526020820190610fd690611897565b8152600060209182015281516003840180546001600160801b0319166001600160801b03909216919091178155828201518051919261101d92600487019290910190611cd6565b5060409190910151600290910180546001600160801b0319166001600160801b039092169190911790555b5050604080516060810182526003602082019081526203230360ec1b92820192909252908152919050565b61107b611781565b600455565b6000610e8661108e83611761565b6117db565b61109b611caf565b6110a5823361136b565b15806110ba57506110b8346002546119fb565b155b156110e8575050604080516060810182526003602082019081526203430360ec1b9282019290925290815290565b60006110f383611761565b905061110e600454826001015461175590919063ffffffff16565b6001909101555050604080516060810182526003602082019081526203230360ec1b9282019290925290815290565b611145611c8f565b61114d611c8f565b60005b6103e88110156107f35761116381611080565b82826103e88110611176576111766122b8565b9115156020909202015261118b816001611755565b9050611150565b61119b8161185c565b6111b75760405162461bcd60e51b8152600401610eeb90612170565b6111c3346001546119fb565b6112055760405162461bcd60e51b8152602060048201526013602482015272496e73756666696369656e742066756e64732160681b6044820152606401610eeb565b61120e81611080565b61126b5760405162461bcd60e51b815260206004820152602860248201527f54686520637573746f6d65724e756d62657220616c72656164792068617320616044820152676e206f776e65722160c01b6064820152608401610eeb565b61127481611a1c565b600061127f82611761565b8054610100600160a81b03191633610100021781556004549091506112a5904290611755565b60019091015550565b6112b6611c8f565b6112be611c8f565b60005b6103e88110156107f3576112d481610eab565b82826103e881106112e7576112e76122b8565b911515602090920201526112fc816001611755565b90506112c1565b61130b611781565b6113148261185c565b6113305760405162461bcd60e51b8152600401610eeb90612170565b600061133b83611761565b90506113474283611755565b6001909101555050565b611359611781565b600355565b611366611781565b600255565b60006113768361185c565b61138257506000610e86565b600061138d84611761565b90506113a16000546001600160a01b031690565b6001600160a01b0316836001600160a01b031614806113df575080546001600160a01b03848116610100909204161480156113df5750806001015442105b949350505050565b6113ef611caf565b6113f9853361136b565b6114275750604080516060810182526003602082019081526203430360ec1b928201929092529081526113df565b600061143286611761565b905061143d81611ade565b6114935760405162461bcd60e51b815260206004820152602160248201527f54686520437573746f6d65724e756d626572206973206e6f74206120706f6f6c6044820152602160f81b6064820152608401610eeb565b6003810180546001600160801b0319166001600160801b03871617905583516114c59060048301906020870190611cd6565b5060050180546001600160801b0319166001600160801b03841617905550604080516060810182526003602082019081526203230360ec1b92820192909252908152949350505050565b611517611781565b6001600160a01b03811661157c5760405162461bcd60e51b815260206004820152602660248201527f4f776e61626c653a206e6577206f776e657220697320746865207a65726f206160448201526564647265737360d01b6064820152608401610eeb565b610855816119ab565b61158d611781565b6115968161185c565b6115b25760405162461bcd60e51b8152600401610eeb90612170565b61085581611a1c565b600780546115c890612212565b80601f01602080910402602001604051908101604052809291908181526020018280546115f490612212565b80156116415780601f1061161657610100808354040283529160200191611641565b820191906000526020600020905b81548152906001019060200180831161162457829003601f168201915b505050505081565b6008816103e8811061165a57600080fd5b6006020180546001820154600283015460408051606081019091526003850180546001600160801b0316825260048601805460ff80881699506101009097046001600160a01b031697959690941694936020840191906116b990612212565b80601f01602080910402602001604051908101604052809291908181526020018280546116e590612212565b80156117325780601f1061170757610100808354040283529160200191611732565b820191906000526020600020905b81548152906001019060200180831161171557829003601f168201915b5050509183525050600291909101546001600160801b0316602090910152905085565b600061094c8284612199565b60006008826103e88110611777576117776122b8565b6006020192915050565b6000546001600160a01b03163314610df45760405162461bcd60e51b815260206004820181905260248201527f4f776e61626c653a2063616c6c6572206973206e6f7420746865206f776e65726044820152606401610eeb565b805460009061010090046001600160a01b031615801590610e8657505060010154421190565b6000816001015442118015610e8657506005546001830154611824904290611ae7565b1092915050565b6000611836826117db565b1580156118455750815460ff16155b8015610e86575061185582611801565b1592915050565b600060648210158015610e865750506103e7101590565b6000805b600283015460ff166001811115611890576118906122a2565b1492915050565b6060610e866001600160a01b0383166014611af3565b6060816118d15750506040805180820190915260018152600360fc1b602082015290565b8160005b81156118fb57806118e581612247565b91506118f49050600a836121b1565b91506118d5565b60008167ffffffffffffffff811115611916576119166122ce565b6040519080825280601f01601f191660200182016040528015611940576020820181803683370190505b5090505b84156113df576119556001836121e4565b9150611962600a86612262565b61196d906030612199565b60f81b818381518110611982576119826122b8565b60200101906001600160f81b031916908160001a9053506119a4600a866121b1565b9450611944565b600080546001600160a01b038381166001600160a01b0319831681178455604051919092169283917f8be0079c531659141344cd1fd0a4f28419497f9722a3daafe3b4186f6b6457e09190a35050565b6000818310158061094c5750506000546001600160a01b0316331492915050565b6000611a2782611761565b80544260018301556001600160a81b031916815560028101805460ff1916905560408051606081019091526000808252919250906020820190611a6990611897565b8152600060209182015281516003840180546001600160801b0319166001600160801b039092169190911781558282015180519192611ab092600487019290910190611cd6565b5060409190910151600290910180546001600160801b0319166001600160801b039092169190911790555050565b60006001611877565b600061094c82846121e4565b60606000611b028360026121c5565b611b0d906002612199565b67ffffffffffffffff811115611b2557611b256122ce565b6040519080825280601f01601f191660200182016040528015611b4f576020820181803683370190505b509050600360fc1b81600081518110611b6a57611b6a6122b8565b60200101906001600160f81b031916908160001a905350600f60fb1b81600181518110611b9957611b996122b8565b60200101906001600160f81b031916908160001a9053506000611bbd8460026121c5565b611bc8906001612199565b90505b6001811115611c40576f181899199a1a9b1b9c1cb0b131b232b360811b85600f1660108110611bfc57611bfc6122b8565b1a60f81b828281518110611c1257611c126122b8565b60200101906001600160f81b031916908160001a90535060049490941c93611c39816121fb565b9050611bcb565b50831561094c5760405162461bcd60e51b815260206004820181905260248201527f537472696e67733a20686578206c656e67746820696e73756666696369656e746044820152606401610eeb565b60405180617d0001604052806103e8906020820280368337509192915050565b60405180602001604052806001905b6060815260200190600190039081611cbe5790505090565b828054611ce290612212565b90600052602060002090601f016020900481019282611d045760008555611d4a565b82601f10611d1d57805160ff1916838001178555611d4a565b82800160010185558215611d4a579182015b82811115611d4a578251825591602001919060010190611d2f565b50611d56929150611d5a565b5090565b5b80821115611d565760008155600101611d5b565b80356001600160a01b0381168114611d8657600080fd5b919050565b600082601f830112611d9c57600080fd5b813567ffffffffffffffff80821115611db757611db76122ce565b604051601f8301601f19908116603f01168101908282118183101715611ddf57611ddf6122ce565b81604052838152866020858801011115611df857600080fd5b836020870160208301376000602085830101528094505050505092915050565b80356001600160801b0381168114611d8657600080fd5b600060208284031215611e4157600080fd5b61094c82611d6f565b600060208284031215611e5c57600080fd5b813567ffffffffffffffff811115611e7357600080fd5b6113df84828501611d8b565b600060208284031215611e9157600080fd5b5035919050565b60008060408385031215611eab57600080fd5b82359150611ebb60208401611d6f565b90509250929050565b60008060408385031215611ed757600080fd5b8235915060208301358015158114611eee57600080fd5b809150509250929050565b60008060008060808587031215611f0f57600080fd5b84359350611f1f60208601611e18565b9250604085013567ffffffffffffffff811115611f3b57600080fd5b611f4787828801611d8b565b925050611f5660608601611e18565b905092959194509250565b60008060408385031215611f7457600080fd5b50508035926020909101359150565b60028110611fa157634e487b7160e01b600052602160045260246000fd5b9052565b6000815180845260005b81811015611fcb57602081850181015186830182015201611faf565b81811115611fdd576000602083870101525b50601f01601f19169290920160200192915050565b617d008101818360005b6103e881101561201e5781511515835260209283019290910190600101611ffc565b50505092915050565b60208082526000906040830183820185845b600181101561206857601f19878503018352612056848351611fa5565b93509184019190840190600101612039565b50919695505050505050565b6000602080830181845280855180835260408601915060408160051b870101925083870160005b828110156120c957603f198886030184526120b7858351611fa5565b9450928501929085019060010161209b565b5092979650505050505050565b85151581526001600160a01b0385166020820152604081018490526120fe6060820184611f83565b60a0608082015260006001600160801b038084511660a08401526020840151606060c0850152612132610100850182611fa5565b90508160408601511660e085015280925050509695505050505050565b60208101610e868284611f83565b60208152600061094c6020830184611fa5565b6020808252600f908201526e496e76616c6964206e756d6265722160881b604082015260600190565b600082198211156121ac576121ac612276565b500190565b6000826121c0576121c061228c565b500490565b60008160001904831182151516156121df576121df612276565b500290565b6000828210156121f6576121f6612276565b500390565b60008161220a5761220a612276565b506000190190565b600181811c9082168061222657607f821691505b602082108114156107f357634e487b7160e01b600052602260045260246000fd5b600060001982141561225b5761225b612276565b5060010190565b6000826122715761227161228c565b500690565b634e487b7160e01b600052601160045260246000fd5b634e487b7160e01b600052601260045260246000fd5b634e487b7160e01b600052602160045260246000fd5b634e487b7160e01b600052603260045260246000fd5b634e487b7160e01b600052604160045260246000fdfea2646970667358221220e117f8c31d5624d65f67d46c9828845def869d17135f4ddf1259bcce2600334e64736f6c63430008070033",
  "immutableReferences": {},
  "source": "// SPDX-License-Identifier: MIT\n\n\npragma solidity 0.8.7;\n\n\nimport \"@openzeppelin/contracts/access/Ownable.sol\";\nimport \"@openzeppelin/contracts/utils/math/SafeMath.sol\";\nimport \"@openzeppelin/contracts/utils/Strings.sol\";\n\n\n// TODO: Add possibility of hold\ncontract RootRouter is Ownable {\n    using SafeMath for uint256;\n\n\n\n    // ----- CUSTOM TYPES ------------------------------------------------------\n\n    enum CustomerNumberMode { Number, Pool }\n\n    struct Router {\n        uint128 chainId;\n        string adr;\n        uint128 poolCodeLength;\n    }\n\n    struct CustomerNumber {\n        bool isBlocked;\n        address owner;\n        uint256 subscriptionEndTime;\n        CustomerNumberMode mode;\n        Router router;\n    }\n\n    struct NumberStatus {\n        bool isBlocked;\n        bool isFree;\n        bool isHolded;\n        bool isAvailableForBuy;\n        uint256 subscriptionEndTime;\n        uint256 holdingEndTime;\n    }\n\n\n\n    // ----- SETTINGS ----------------------------------------------------------\n\n    uint256 constant public POOL_CODE_LENGTH = 3;\n    uint256 constant public POOL_SIZE = 1000;\n    uint256 constant public MIN_NUMBER = 100;\n    uint256 constant public MAX_NUMBER = 999;\n\n    uint256 public buyPrice = 10 ether;\n    uint256 public subscriptionPrice = 7 ether;\n    uint256 public modeChangePrice = 5 ether;\n    uint256 public subscriptionDuration = 315532800; // 10 years\n    uint256 public numberFreezeDuration = 7776000; // 3 months\n    // TODO: Refactory TTL globaly\n    uint256 public ttl = 864000; // 10 days\n\n    string public sipDomain = \"sip.quic.pro\";\n\n\n\n    // ----- DATA --------------------------------------------------------------\n\n    CustomerNumber[POOL_SIZE] public pool;\n\n\n\n    // ----- CONSTRUCTOR -------------------------------------------------------\n\n    constructor() {\n        for (uint256 number; number < MIN_NUMBER; number = number.add(1)) {\n            pool[number].isBlocked = true;\n        }\n    }\n\n\n\n    // ----- PUBLIC UTILS ------------------------------------------------------\n\n    function isValidNumber(uint256 number) internal pure returns(bool) {\n        return ((number >= MIN_NUMBER) && (number <= MAX_NUMBER));\n    }\n\n    function checkPayment(uint256 received, uint256 expected) internal view returns(bool) {\n        return ((received >= expected) || (msg.sender == owner()));\n    }\n\n    function isAddressNumberOwner(uint256 number, address addressNumberOwner) public view returns(bool) {\n        if (!isValidNumber(number)) {\n            return false;\n        }\n\n        CustomerNumber storage customerNumber = getCustomerNumber(number);\n        return ((addressNumberOwner == owner()) || ((customerNumber.owner == addressNumberOwner) && (block.timestamp < customerNumber.subscriptionEndTime)));\n    }\n\n    function isFree(uint256 number) public view returns(bool) {\n        return isFree(getCustomerNumber(number));\n    }\n\n    function isBlocked(uint256 number) public view returns(bool) {\n        return isBlocked(getCustomerNumber(number));\n    }\n\n    function isHolded(uint256 number) public view returns(bool) {\n        return isHolded(getCustomerNumber(number));\n    }\n\n    function isAvailableForBuy(uint256 number) public view returns(bool) {\n        CustomerNumber storage customerNumber = getCustomerNumber(number);\n        return isAvailableForBuy(customerNumber);\n    }\n\n    function getMode(uint256 number) public view returns(CustomerNumberMode) {\n        CustomerNumber storage customerNumber = getCustomerNumber(number);\n        return customerNumber.mode;\n    }\n\n    function getNumberStatus(uint256 number) public view returns(NumberStatus memory) {\n        CustomerNumber storage customerNumber = getCustomerNumber(number);\n        return NumberStatus(\n            isBlocked(customerNumber),\n            isFree(customerNumber),\n            isHolded(customerNumber),\n            isAvailableForBuy(customerNumber),\n            customerNumber.subscriptionEndTime,\n            customerNumber.subscriptionEndTime.add(numberFreezeDuration)\n        );\n    }\n\n    function getBlockedNumber() public view returns(bool[POOL_SIZE] memory) {\n        bool[1000] memory blockedNumbers;\n        for (uint256 number; number < POOL_SIZE; number = number.add(1)) {\n            blockedNumbers[number] = isBlocked(number);\n        }\n        return blockedNumbers;\n    }\n\n    function getFreeNumber() public view returns(bool[POOL_SIZE] memory) {\n        bool[1000] memory freeNumbers;\n        for (uint256 number; number < POOL_SIZE; number = number.add(1)) {\n            freeNumbers[number] = isFree(number);\n        }\n        return freeNumbers;\n    }\n\n     function getHoldedNumber() public view returns(bool[POOL_SIZE] memory) {\n        bool[1000] memory holdedNumbers;\n        for (uint256 number; number < POOL_SIZE; number = number.add(1)) {\n            holdedNumbers[number] = isHolded(number);\n        }\n        return holdedNumbers;\n    }\n\n\n\n    // ----- INTERNAL UTILS ----------------------------------------------------\n\n    function getCustomerNumber(uint256 number) internal view returns(CustomerNumber storage) {\n        return pool[number];\n    }\n\n    function isFree(CustomerNumber storage customerNumber) internal view returns(bool) {\n        return ((customerNumber.owner != address(0)) && (block.timestamp > customerNumber.subscriptionEndTime));\n    }\n\n    function isBlocked(CustomerNumber storage customerNumber) internal view returns(bool) {\n        return customerNumber.isBlocked;\n    }\n\n    function isHolded(CustomerNumber storage customerNumber) internal view returns(bool) {\n        return (\n            (block.timestamp > customerNumber.subscriptionEndTime) &&\n            (block.timestamp.sub(customerNumber.subscriptionEndTime) < numberFreezeDuration)\n        );\n    }\n\n    function isAvailableForBuy(CustomerNumber storage customerNumber) internal view returns(bool) {\n        return (!isFree(customerNumber) && !isBlocked(customerNumber) && !isHolded(customerNumber));\n    }\n\n    function isNumberMode(CustomerNumber storage customerNumber) internal view returns(bool) {\n        return (customerNumber.mode == CustomerNumberMode.Number);\n    }\n\n    function isPoolMode(CustomerNumber storage customerNumber) internal view returns(bool) {\n        return (customerNumber.mode == CustomerNumberMode.Pool);\n    }\n\n    function clearCustomerNumber(uint256 number) internal {\n        CustomerNumber storage customerNumber = getCustomerNumber(number);\n        customerNumber.owner = address(0);\n        customerNumber.subscriptionEndTime = block.timestamp;\n        customerNumber.isBlocked = false;\n        customerNumber.mode = CustomerNumberMode.Number;\n        customerNumber.router = Router(0, Strings.toHexString(address(0)), 0);\n    }\n\n\n\n    // ----- SMART CONTRACT MANAGEMENT ------------------------------------------\n\n    function withdraw() external onlyOwner {\n        payable(owner()).transfer(address(this).balance);\n    }\n\n    function setBuyPrice(uint256 newBuyPrice) external onlyOwner {\n        buyPrice = newBuyPrice;\n    }\n\n    function setSubscriptionPricePrice(uint256 newSubscriptionPrice) external onlyOwner {\n        subscriptionPrice = newSubscriptionPrice;\n    }\n\n    function setNumberFreezeDuration(uint256 newNumberFreezeDuration) external onlyOwner {\n        numberFreezeDuration = newNumberFreezeDuration;\n    }\n\n    function setModeChangePrice(uint256 newModeChangePrice) external onlyOwner {\n        modeChangePrice = newModeChangePrice;\n    }\n\n    function setSubscriptionDuration(uint256 newSubscriptionDuration) external onlyOwner {\n        subscriptionDuration = newSubscriptionDuration;\n    }\n\n    function setTtl(uint256 newTtl) external onlyOwner {\n        ttl = newTtl;\n    }\n\n    function setSipDomain(string memory newSipDomain) external onlyOwner {\n        sipDomain = newSipDomain;\n    }\n\n    function takeAwayOwnership(uint256 number) external onlyOwner {\n        require(isValidNumber(number), \"Invalid number!\");\n\n        clearCustomerNumber(number);\n    }\n\n    function setBlockedStatus(uint256 number, bool blockedStatus) external onlyOwner {\n        require(isValidNumber(number), \"Invalid number!\");\n\n        CustomerNumber storage customerNumber = getCustomerNumber(number);\n        customerNumber.isBlocked = blockedStatus;\n    }\n\n    function setExpirationTime(uint256 number, uint256 newExpirationTime) external onlyOwner {\n        require(isValidNumber(number), \"Invalid number!\");\n\n        CustomerNumber storage customerNumber = getCustomerNumber(number);\n        customerNumber.subscriptionEndTime = block.timestamp.add(newExpirationTime);\n    }\n\n\n\n    // ----- CUSTOMER NUMBER MANAGEMENT -----------------------------------------\n\n    // TODO: Refactory to ERC721 (like ENS Name)\n    function buy(uint256 number) external payable {\n        require(isValidNumber(number), \"Invalid number!\");\n        require(checkPayment(msg.value, buyPrice), \"Insufficient funds!\");\n        require(isFree(number), \"The customerNumber already has an owner!\");\n\n        clearCustomerNumber(number);\n\n        CustomerNumber storage customerNumber = getCustomerNumber(number);\n        customerNumber.owner = msg.sender;\n        customerNumber.subscriptionEndTime = block.timestamp.add(subscriptionDuration);\n    }\n\n    function renewSubscription(uint256 number) external payable returns(string[1] memory) {\n        if (!isAddressNumberOwner(number, msg.sender) || !checkPayment(msg.value, subscriptionPrice)) {\n            return [\"400\"];\n        }\n\n        CustomerNumber storage customerNumber = getCustomerNumber(number);\n        customerNumber.subscriptionEndTime = customerNumber.subscriptionEndTime.add(subscriptionDuration);\n\n        return [\"200\"];\n    }\n\n    function changeCustomerNumberMode(uint256 number) external payable returns(string[1] memory) {\n        if (!isAddressNumberOwner(number, msg.sender) || !checkPayment(msg.value, modeChangePrice)) {\n            return [\"400\"];\n        }\n\n        CustomerNumber storage customerNumber = getCustomerNumber(number);\n        if (isNumberMode(customerNumber)) {\n            customerNumber.mode = CustomerNumberMode.Pool;\n        } else {\n            customerNumber.mode = CustomerNumberMode.Number;\n            customerNumber.router = Router(0, Strings.toHexString(address(0)), 0);\n        }\n\n        return [\"200\"];\n    }\n\n    function setCustomerNumberRouter(uint256 number, uint128 chainId, string memory adr, uint128 poolCodeLength) external returns(string[1] memory) {\n        if (!isAddressNumberOwner(number, msg.sender)) {\n            return [\"400\"];\n        }\n\n        CustomerNumber storage customerNumber = getCustomerNumber(number);\n        require(isPoolMode(customerNumber), \"The CustomerNumber is not a pool!\");\n\n        customerNumber.router.chainId = chainId;\n        customerNumber.router.adr = adr;\n        customerNumber.router.poolCodeLength = poolCodeLength;\n\n        return [\"200\"];\n    }\n\n    function transferOwnershipOfCustomerNumber(uint256 number, address newOwner) external returns(string[1] memory) {\n        if (!isAddressNumberOwner(number, msg.sender)) {\n            return [\"400\"];\n        }\n\n        CustomerNumber storage customerNumber = getCustomerNumber(number);\n        customerNumber.owner = newOwner;\n\n        return [\"200\"];\n    }\n\n\n\n    // ----- ROUTING ------------------------------------------------------------\n\n    function getNextNode(uint256 number) public view returns(string[] memory) {\n        if (!isValidNumber(number) || isFree(number)) {\n            string[] memory result = new string[](1);\n            result[0] = \"400\";\n            return result;\n        }\n\n        CustomerNumber storage customerNumber = getCustomerNumber(number);\n        if (isNumberMode(customerNumber)) {\n            string[] memory result = new string[](5);\n            result[0] = \"200\";\n            result[1] = customerNumber.isBlocked ? \"0\" : \"1\";\n            result[2] = \"0\";\n            result[3] = Strings.toHexString(customerNumber.owner);\n            result[4] = sipDomain;\n\n            return result;\n        } else {\n            string[] memory result = new string[](6);\n            result[0] = \"200\";\n            result[1] = customerNumber.isBlocked ? \"0\" : \"1\";\n            result[2] = Strings.toString(customerNumber.router.poolCodeLength);\n            result[3] = Strings.toString(customerNumber.router.chainId);\n            result[4] = customerNumber.router.adr;\n            result[5] = Strings.toString(ttl);\n\n            return result;\n        }\n    }\n}\n",
  "sourcePath": "/Users/kosrotoff/Desktop/mvts-smart-contract-root-router/contracts/RootRouter.sol",
  "compiler": {
    "name": "solc",
    "version": "0.8.7+commit.e28d00a7.Emscripten.clang"
  },
  "schemaVersion": "3.4.10",
  "updatedAt": "2022-11-05T19:35:27.550Z",
  "networkType": "ethereum",
  "devdoc": {
    "kind": "dev",
    "methods": {
      "owner()": {
        "details": "Returns the address of the current owner."
      },
      "renounceOwnership()": {
        "details": "Leaves the contract without owner. It will not be possible to call `onlyOwner` functions anymore. Can only be called by the current owner. NOTE: Renouncing ownership will leave the contract without an owner, thereby removing any functionality that is only available to the owner."
      },
      "transferOwnership(address)": {
        "details": "Transfers ownership of the contract to a new account (`newOwner`). Can only be called by the current owner."
      }
    },
    "version": 1
  },
  "userdoc": {
    "kind": "user",
    "methods": {},
    "version": 1
  }
}