{
  "contractName": "Router",
  "abi": [
    {
      "inputs": [
        {
          "internalType": "uint256",
          "name": "number",
          "type": "uint256"
        }
      ],
      "name": "getNextNode",
      "outputs": [
        {
          "internalType": "string[]",
          "name": "",
          "type": "string[]"
        }
      ],
      "stateMutability": "view",
      "type": "function"
    }
  ],
  "bytecode": "0x608060405234801561001057600080fd5b5061017b806100206000396000f3fe608060405234801561001057600080fd5b506004361061002b5760003560e01c80636d902bfb14610030575b600080fd5b61004361003e366004610091565b610059565b60405161005091906100aa565b60405180910390f35b60408051600680825260e0820190925260609160009190816020015b6060815260200190600190039081610075579050509392505050565b6000602082840312156100a357600080fd5b5035919050565b6000602080830181845280855180835260408601915060408160051b87010192508387016000805b8381101561013757888603603f1901855282518051808852835b81811015610107578281018a01518982018b015289016100ec565b8181111561011757848a838b0101525b50601f01601f1916969096018701955093860193918601916001016100d2565b50939897505050505050505056fea264697066735822122052a559e5542adeaaf47a813affff2f1f9b7e9b11a3985b13acc8ff1d41f7093964736f6c63430008070033",
  "immutableReferences": {},
  "source": "// SPDX-License-Identifier: MIT\n\n\npragma solidity 0.8.7;\n\n\ncontract Router {\n    function getNextNode(uint256 number) public view returns(string[] memory) {\n        string[] memory result = new string[](6);\n        return result;\n    }\n}\n",
  "sourcePath": "/Users/kosrotoff/Desktop/mvts-smart-contract-root-router/contracts/RootRouter.sol",
  "compiler": {
    "name": "solc",
    "version": "0.8.7+commit.e28d00a7.Emscripten.clang"
  },
  "schemaVersion": "3.4.10",
  "updatedAt": "2022-11-02T17:08:04.109Z",
  "devdoc": {
    "kind": "dev",
    "methods": {},
    "version": 1
  },
  "userdoc": {
    "kind": "user",
    "methods": {},
    "version": 1
  }
}