{
  "contractName": "Router",
  "abi": [
    {
      "inputs": [
        {
          "internalType": "uint256",
          "name": "number",
          "type": "uint256"
        }
      ],
      "name": "getNextNode",
      "outputs": [
        {
          "internalType": "string[5]",
          "name": "",
          "type": "string[5]"
        }
      ],
      "stateMutability": "view",
      "type": "function"
    }
  ],
  "bytecode": "0x608060405234801561001057600080fd5b506101b9806100206000396000f3fe608060405234801561001057600080fd5b506004361061002b5760003560e01c80636d902bfb14610030575b600080fd5b61004361003e3660046100e4565b610059565b60405161005091906100fd565b60405180910390f35b6100616100bd565b50506040805160c081018252600060a08201818152825282516020818101855282825280840191909152835180820185528281528385015283518082018552828152606084015283519081019093528252608081019190915290565b6040518060a001604052806005905b60608152602001906001900390816100cc5790505090565b6000602082840312156100f657600080fd5b5035919050565b602080825260009060c083018382018584805b600581101561017657601f198089870301855283518051808852845b81811015610147578281018a01518982018b0152890161012c565b8181111561015757858a838b0101525b50601f0190911695909501860194509285019291850191600101610110565b509297965050505050505056fea26469706673582212205a9d0b14a2f8ec9b8e2bd9829f462bb0ef2e0edac58577e666ade055a7c8d90a64736f6c63430008070033",
  "immutableReferences": {},
  "source": "// SPDX-License-Identifier: MIT\r\npragma solidity 0.8.7;\r\n\r\n\r\ncontract Router {\r\n    function getNextNode(uint256 number) public view returns(string[5] memory) {\r\n        return [\"\", \"\", \"\", \"\", \"\"];\r\n    }\r\n}\r\n",
  "sourcePath": "W:\\QUIC-PRO Inc\\mvts-smart-contract-root-router\\contracts\\Router.sol",
  "compiler": {
    "name": "solc",
    "version": "0.8.7+commit.e28d00a7.Emscripten.clang"
  },
  "schemaVersion": "3.4.10",
  "updatedAt": "2022-11-12T18:30:16.802Z",
  "devdoc": {
    "kind": "dev",
    "methods": {},
    "version": 1
  },
  "userdoc": {
    "kind": "user",
    "methods": {},
    "version": 1
  }
}